:020000040800F2
:1000000000040020390200083B0200083B020008FF
:100010003B0200083B0200083B0200083B020008CC
:100020003B0200083B0200083B020008B12B00081D
:100030003B0200083B0200083B0200083B020008AC
:100040003B0200083B0200083B0200083B0200089C
:100050003B0200083B0200083B0200083B0200088C
:100060003B0200083B0200083B0200082115000883
:10007000F1150008C1160008911700086118000862
:1000800031190008011A00083B0200083B02000871
:100090003B0200083B0200083B0200083B0200084C
:1000A0003B0200083B0200083B0200083B0200083C
:1000B000411F00083B0200083B020008D11A00085B
:1000C000511D00083B0200083B0200083B020008EB
:1000D0003B0200083B0200083B0200083B0200080C
:1000E0003B0200083B0200083B0200083B020008FC
:1000F0003B0200083B0200083B0200083B020008EC
:100100003B0200083B0200083B0200083B020008DB
:100110003B0200083B0200083B0200083B020008CB
:100120003B0200083B0200083B0200083B020008BB
:100130003B0200083B0200083B0200083B020008AB
:100140003B0200083B0200083B0200083B0200089B
:100150003B0200083B0200083B0200083B0200088B
:1001600072B6264880F30888254880F30988254818
:1001700025490860022080F31488BFF36F8F01F0D7
:100180007FF901F0EDFF4FF0553020491B4A9142B5
:100190003CBF41F8040BFAE71D49194A91423CBFA4
:1001A00041F8040BFAE71B491B4A1C4B9A423EBF1D
:1001B00051F8040B42F8040BF8E700201849194ADB
:1001C00091423CBF41F8040BFAE701F071F901F0EC
:1001D0005FF9154C154DAC4203DA54F8041B8847FF
:1001E000F9E702F0F5FC124C124DAC4203DA54F878
:1001F000041B8847F9E701F053B900000004002010
:10020000000800200000000808ED00E000000020C9
:1002100000040020103A000800080020300C0020E4
:10022000400C0020A41B00206001000860010008B1
:10023000600100086001000892E700F000F8FEE7A6
:100240002DE9F04FC1F80CD0C3689D46BDE8F08F92
:1002500002F036F9002383F311882846A0470020D6
:1002600002F05EFCFEE701F0BBFF02F041F902F094
:1002700027F900DFFEE7000080F0004002E000BF49
:1002800081F0004142001FBF5FEA410392EA030F81
:100290007FEA226C7FEA236C6AD04FEA1262D2EBCB
:1002A0001363C1BFD218414048404140B8BF5B42D0
:1002B000192B88BF704710F0004F40F4000020F069
:1002C0007F4018BF404211F0004F41F4000121F07F
:1002D0007F4118BF494292EA030F3FD0A2F10102C9
:1002E00041FA03FC10EB0C00C3F1200301FA03F107
:1002F00000F0004302D5494260EB4000B0F5000F2A
:1003000013D3B0F1807F06D340084FEA310102F1E8
:100310000102FE2A51D2B1F1004F40EBC25008BF9A
:1003200020F0010040EA03007047490040EB000064
:10033000013A28BFB0F5000FEDD2B0FA80FCACF165
:10034000080CB2EB0C0200FA0CF0AABF00EBC25092
:1003500052421843BCBFD0401843704792F0000F80
:1003600081F4000106BF80F400000132013BB5E7D3
:100370004FEA41037FEA226C18BF7FEA236C21D049
:1003800092EA030F04D092F0000F08BF08467047AE
:1003900090EA010F1CBF0020704712F07F4F04D17C
:1003A000400028BF40F00040704712F100723CBF8F
:1003B00000F50000704700F0004343F0FE4040F4B9
:1003C000000070477FEA226216BF08467FEA236377
:1003D0000146420206BF5FEA412390EA010F40F462
:1003E000800070474FF0000304E000BF10F00043AE
:1003F00048BF40425FEA000C08BF704743F0964395
:1004000001464FF000001CE050EA010208BF7047AF
:100410004FF000030AE000BF50EA010208BF704736
:1004200011F0004302D5404261EB41015FEA010C4B
:1004300002BF84460146002043F0B64308BFA3F143
:100440008053A3F50003BCFA8CF2083AA3EBC25325
:1004500010DB01FA02FC634400FA02FCC2F1200244
:10046000BCF1004F20FA02F243EB020008BF20F07B
:100470000100704702F1200201FA02FCC2F12002E1
:1004800050EA4C0021FA02F243EB020008BF20EAD6
:10049000DC7070474FF0FF0C1CEAD0521EBF1CEA04
:1004A000D15392EA0C0F93EA0C0F6FD01A4480EAF2
:1004B000010C400218BF5FEA41211ED04FF00063DB
:1004C00043EA501043EA5111A0FB01310CF0004007
:1004D000B1F5000F3EBF490041EAD3715B0040EA2D
:1004E000010062F17F02FD2A1DD8B3F1004F40EBFD
:1004F000C25008BF20F00100704790F0000F0CF0D0
:10050000004C08BF49024CEA502040EA51207F3A93
:10051000C2BFD2F1FF0340EAC250704740F400006E
:100520004FF00003013A5DDC12F1190FDCBF00F05F
:1005300000407047C2F10002410021FA02F1C2F10D
:10054000200200FA02FC5FEA310040F1000053EAA9
:100550004C0308BF20EADC70704792F0000F00F0F7
:10056000004C02BF400010F4000F013AF9D040EAFD
:100570000C0093F0000F01F0004C02BF490011F491
:10058000000F013BF9D041EA0C018FE70CEAD1538F
:1005900092EA0C0F18BF93EA0C0F0AD030F0004C0F
:1005A00018BF31F0004CD8D180EA010000F00040C3
:1005B000704790F0000F17BF90F0004F084691F081
:1005C000000F91F0004F14D092EA0C0F01D14202BB
:1005D0000FD193EA0C0F03D14B0218BF084608D184
:1005E00080EA010000F0004040F0FE4040F40000CE
:1005F000704740F0FE4040F4400070474FF0FF0C61
:100600001CEAD0521EBF1CEAD15392EA0C0F93EAA7
:100610000C0F69D0A2EB030280EA010C49024FEAF9
:10062000402037D04FF0805343EA111143EA1013B2
:100630000CF000408B4238BF5B0042F17D024FF46A
:10064000000C8B4224BF5B1A40EA0C00B3EB510F45
:1006500024BFA3EB510340EA5C00B3EB910F24BF2E
:10066000A3EB910340EA9C00B3EBD10F24BFA3EBB3
:10067000D10340EADC001B0118BF5FEA1C1CE0D17B
:10068000FD2A3FF650AF8B4240EBC25008BF20F02E
:10069000010070470CF0004C4CEA50207F32C2BF82
:1006A000D2F1FF0340EAC250704740F400004FF01F
:1006B0000003013A37E792F0000F00F0004C02BF50
:1006C000400010F4000F013AF9D040EA0C0093F01A
:1006D000000F01F0004C02BF490011F4000F013B74
:1006E000F9D041EA0C0195E70CEAD15392EA0C0FDC
:1006F00008D142027FF47DAF93EA0C0F7FF470AF14
:10070000084676E793EA0C0F04D14B023FF44CAF56
:1007100008466EE730F0004C18BF31F0004CCAD1EB
:1007200030F000427FF45CAF31F000437FF43CAF27
:100730005FE700BF4FF0FF3C06E000BF4FF0010C49
:1007400002E000BF4FF0010C4DF804CD4FEA40022B
:100750004FEA41037FEA226C18BF7FEA236C11D075
:1007600001B052EA530C18BF90EA010F58BFB2EB28
:10077000030088BFC81738BF6FEAE17018BF40F0A8
:10078000010070477FEA226C02D15FEA402C05D15C
:100790007FEA236CE4D15FEA412CE1D05DF8040BE1
:1007A000704700BF844608466146FFE70FB5FFF774
:1007B000C9FF002848BF10F1000F0FBD4DF808ED2C
:1007C000FFF7F4FF0CBF012000205DF808FB00BF1D
:1007D0004DF808EDFFF7EAFF34BF012000205DF877
:1007E00008FB00BF4DF808EDFFF7E0FF94BF0120C4
:1007F00000205DF808FB00BF4DF808EDFFF7D2FFC1
:1008000094BF012000205DF808FB00BF4DF808ED03
:10081000FFF7C8FF34BF012000205DF808FB00BFD0
:100820004FEA40024FEA41037FEA226C02D15FEABD
:10083000402C08D17FEA236C02D15FEA412C02D11F
:100840004FF0000070474FF00100704700000000BB
:1008500010B40268437B11684468D940246801F0F1
:100860000E010C420DD0807B074C01FA03F30130DE
:10087000536054F8303023B104EBC000406810BC22
:10088000184710BC704700BF601B0020000000002C
:10089000FEE700BF000000000000000000000000B4
:1008A000014B5B6883607047001000E000000000AF
:1008B0000E4B0F4A5B68926881689B1A5B1A10B4F2
:1008C000D0E90342D21841690261426841F1000156
:1008D0009342026804F1010488BF43609342C0E977
:1008E0000234416110BC38BF03607047001000E063
:1008F000301B00200000000000000000000000008D
:10090000302383F311880D4B5B6813F4006302D12D
:1009100083F311887047EFF309834FF08072203B17
:10092000DA6183F30988064A1168D2688968926897
:1009300091428CBF034A044A9A61704700ED00E07F
:10094000E0100020670200087202000800000000AA
:100950004FF0010C2DE9F041244D0CFA00F22C6807
:10096000224218BF002001D0BDE8F0810346204E8E
:1009700014432C607769604445F830101D4C1E49C3
:1009800005EBC00047EA0C074160776104EB0310F8
:1009900071696E6881681B010E420FD032436A6034
:1009A0000E22E558E11800244B68497B8A401968FB
:1009B00021F00F0119606A601C60D5E74FF0500EFE
:1009C000C17B4F09BF0001F1604807F1604701F0AA
:1009D0001F0107F561470CFA01F108F5614888F835
:1009E00000E3C7F880113960D8E700BF601B002022
:1009F0000010024000390008400C002000000000F8
:100A00000C4B30B44FF08045D3F8F4100A4C0A4632
:100A10006D6A0868646803F6F80C64F31F208D8023
:100A200042F8100B624528BF03F1F802C3F8F42026
:100A300030BC7047E0100020001000E00000000013
:100A4000044608B572B6094DB5F8F0301B0705D558
:100A50000322074BC5F8E4401A70FEE70522D5F8DB
:100A6000F43098601A70FFF7CBFFF1E7E010002038
:100A7000301B00200000000000000000000000000B
:100A80000B0710B5446B0FD4026BD2E900010B6861
:100A900023F00F030B600E23527B93404360636887
:100AA00043F40073636010BD0148FFF7C9FF00BF46
:100AB000AC3500080000000000000000000000004D
:100AC00008B5064BD3F8E820002A04DBD3F8EC3055
:100AD000002B00DD08BD0248FFF7B2FFE010002048
:100AE000B835000800000000000000000000000011
:100AF00010B5037F13B30F2B20D0124A0446B2F86F
:100B0000F010C9070ED500222369A16822771B685F
:100B10009A688A42FBD85A682046C4E900321460B9
:100B20005C6010BD416BD2F8F420DB0043F00103A0
:100B3000C2E902011370FFF763FFE4E70248FFF721
:100B40007FFF00BFE01000207C360008000000009E
:100B5000022270B400244D684FF0010C45618D688D
:100B60000D4E8561CD6882838A6980F81EC0A242DD
:100B700008BF324609680261016200F1380200F1E3
:100B80003C01C0E90B44C0E911448560C564C0E97B
:100B90000F1170BC82637047E0100020000000005D
:100BA00038B5302383F31188194BD3E93A452C43E8
:100BB00020D10124C3F8EC40F9B101F1FF3C1CEA5B
:100BC000010C1AD1134C49426568281A0840216863
:100BD000821A8A420CD395420AD3626000211A68B5
:100BE000C3F8EC109A420BD1002383F3118838BD6F
:100BF0006046F3E70848FFF723FF0848FFF720FFA8
:100C0000D96893688A689A42EED20548FFF718FFC0
:100C1000E0100020281B0020C035000838370008ED
:100C2000B8360008000000000000000000000000CE
:100C3000104B10B5D3F8E820002A15DBD3F8EC30C0
:100C4000002B11DD99B14B1E0B4010D10A4A4942CD
:100C50005468201A08401168884203D3844201D3A3
:100C6000506010BD184610BD0448FFF7E9FE044867
:100C7000FFF7E6FEE0100020281B0020B835000832
:100C800038370008000000000000000000000000ED
:100C9000294B70B51E6A1C6903F11005B242998395
:100CA000C0E9015204606060186117D3B2F57F4F4C
:100CB00028BF4FF47F42881885B24FF08040C46847
:100CC00014F002042AD1456304610224C460446A1A
:100CD000A4B2651AADB2AA4205D970BDB6F5803F7F
:100CE00019D23246E7E7751CB5F5803F13D2C268CA
:100CF0002944920789B214D54163426A92B2111B0A
:100D000089B2A94210D2AE42E7D2DA6B1D6242F03C
:100D10000102DA6370BD0948FFF792FE0848FFF749
:100D20008FFE0848FFF78CFE0135B5F5803F214660
:100D3000F1D01446DBE700BFE0100020B83800080F
:100D400094370008E03600080000000000000000B2
:100D500070B51B4C236A8B4219D8B1F57F4F28BF61
:100D60004FF47F411D464FF0804CDCF80C60421878
:100D7000B60792B219D5CCF83420DCF8242092B210
:100D8000101A80B2884213D2AB4205D370BDB3F5BE
:100D9000803F07D21946E5E7E36B256243F0010384
:100DA000E36370BD0748FFF74BFE0748FFF748FEB7
:100DB000691CB1F5803FF5D210460D46D5E700BF5E
:100DC000E0100020B8380008E036000800000000FD
:100DD00010B5037F0BB30F2B1FD0114A0446B2F896
:100DE000F010C9070DD500222369A16822771B687E
:100DF0009A688A42FBD25A68C4E9003214605C6087
:100E000010BD416BD2F8F420DB0043F00103C2E9CE
:100E100002011370FFF7F4FDE5E70248FFF710FE4B
:100E2000E0100020F437000800000000000000007F
:100E30000B0710B53FD4C16A436B4C68226822F09F
:100E40000F0222600E2291F80DC00C6802FA0CF21B
:100E500062605A68302122F480525A601A6822F483
:100E600080621A601A6842F400721A6081F3118875
:100E7000174CD4F8E830002B23DDD4F8EC2002BB6B
:100E80000121C369C4F8EC107BB1197F03291BD180
:100E9000C26118465A63FFF79BFFD4F8E830002B75
:100EA0000CDDD4F8EC30002B08DD0023C4F8EC3066
:100EB00083F3118810BD0748FFF7C2FD0648FFF70E
:100EC000BFFD0648FFF7BCFD0548FFF7B9FD00BFB1
:100ED000E0100020AC350008D0350008C835000807
:100EE000343800080000000000000000000000008E
:100EF000302310B583F311881E4CD4F8E830002B52
:100F000035DDD4F8EC30002B31D10123C4F8EC30BE
:100F10000B7F0C2B10D8DFE803F01D0F0F230B07FE
:100F20000F0B0F0F0F0F0B004A6B93680133936089
:100F3000D1E9003213605A604FF0FF3308464B632B
:100F4000FFF746FFD4F8E830002B0DDDD4F8EC3085
:100F5000002B09DD0023C4F8EC3083F3118810BDA9
:100F600000224B6B1A60E7E70348FFF769FD03486F
:100F7000FFF766FDE0100020D0350008C8350008F6
:100F800038B5244BD3F8E820002A3AD1D3F8EC2026
:100F9000002A36DD5A689168012938D1DC6894420C
:100FA00032D022699A422FD1156820772B685A6077
:100FB0002977B2F8F01013608B07D5600ED5EFF3E8
:100FC00009836269243B9A4205D821462846BDE838
:100FD0003840FFF735B91048FFF732FD237F616BCA
:100FE000D2F8F420DB0043F00203C2E9025113708F
:100FF000FFF706FDEFF309836269243B9A42E4D9C7
:10100000E9E70648FFF71CFD0548FFF719FD05480D
:10101000FFF716FDE0100020E0350008D835000885
:10102000BC3700086836000800000000000000001F
:101030002DE9F043444D87B0D5F8E830002B57D167
:101040000746D5F8EC00002852DDA84605934FF07E
:1010500080433E48D5F80C900390586A58F8103FEA
:101060000A464345CDF8109080B24BD0AC8B9A68BD
:10107000041BA4B20E19B24234463CD89A68B2425C
:101080006E4605D309E01B68A41A9A68944204D9F5
:10109000B342F8D12E48FFF7D3FC4FF0FF30029453
:1010A0009A685968121B019100930E60C3E90162AE
:1010B000A8613846FFF764FFD5F8E830002B1EDB47
:1010C000D5F8EC30002B1ADD009B63B12A69B242DF
:1010D0001ED0DDE901109A680B600244C3E90112D9
:1010E0004FF0FF33AB61D9F8340007B0BDE8F083AF
:1010F0001848FFF7A5FCFFF72BFE2B69BEE7164843
:10110000FFF79EFC6E4601463046FFF7C1FDD0E773
:10111000002243452B610092C3F8048010D09968E7
:101120000298AA8B01444FF080409960406A80B2D7
:10113000831A9BB29942D6D9C91AFFF709FED2E7A2
:101140004FF08043DA60CEE7E0100020F10E000897
:101150006C380008D8350008B835000800000000D9
:101160002DE9F843002A65D1734D2F78022F63D102
:10117000302383F31188714CD4E93A36334356D186
:10118000AB600123C4F8EC3003236E6B2B70002A94
:101190005ED13A232B840023C4F8EC302368A342A9
:1011A00040F08C80002383F311884FF0804C2B6B30
:1011B000DFF88C91D3F80480EB6AD3F804E0AB6AD3
:1011C000C8F800306B6AC8F80C90C8F80400CEF874
:1011D0000030CEF80C10CEF80420DCF824203020AB
:1011E00092B280F31188D4F8E81001BB4FF0010EE1
:1011F000D4F8EC30DBB9B369C4F8ECE09B0702D457
:1012000033689B0562D5DCF824309B1A9BB2B3F59A
:10121000FA7F24D22368C4F8EC10A3420FD181F3E3
:10122000118880F31188D4F8E830002BE0D04548CD
:10123000FFF706FC002997D14348FFF701FCD3F8DC
:101240000880E3689B684345E9D24048FFF7F8FB14
:10125000012A01D000299CD13D48FFF7F1FB2A6B00
:10126000052751684FF0FF300B68D2F800E023F0FB
:101270000F030B600E23517BEA6AD2E900C603FA22
:1012800001F1CEF80410316821F00F013160527B7A
:101290009340CCF80430D4F8E8302F70002B3DD1C7
:1012A000D4F8EC20002A39DD2268C4F8EC30A242E0
:1012B00037D1002383F31188BDE8F883D3F808C041
:1012C000E3689B686345BFF46DAFBEE77368EA6986
:1012D00043F400737360336843F480733360E368EE
:1012E0003ABB1C4A282103205A63EB61FFF7A0FE9A
:1012F0000028D0D02E6BEA6AD6F804C0431CDCF874
:101300000010D6F800E021F00F01CCF80010717B3E
:1013100008BF0527D2E900C60E23B0E70E48FFF745
:101320008FFBE16893688A689A42C2D20B48FFF744
:1013300087FB0B48FFF784FB400C0020E0100020E7
:10134000D4100020C0350008CC370008EC36000867
:101350003C3600085C0C0020F0350008943800088A
:101360007C380008000000000000000000000000C1
:101370003C4B70B5D3F8E820002A70D1D3F8EC20AC
:10138000002A6CDD384EDC68706920B3A26883687F
:101390009A4206D9037F8260062B40D0072B2AD0C1
:1013A00003B3324D2B4603E09968A268914202D301
:1013B0001B68AB42F8D15A680620C4E900321460B9
:1013C0005C606563FFF7DCFD73699C4244D1A36CEC
:1013D000AB4241D170BDA26C06F10C03C6E90542D7
:1013E000A36470BD0121D0E90032017713605A6017
:1013F000FFF7EEFCD5E7456B416802682B460A60B3
:10140000516003E099688268914202D31B689D4253
:10141000F8D15A68C0E9003210605860C1E7456BE6
:10142000416802682B460A60516003E0996882684F
:10143000914202D31B689D42F8D15A680360426012
:1014400010605860A868A26883689A42A9D9037F8F
:101450008260062BA2D1E2E70548FFF7F1FA0548C2
:10146000FFF7EEFAE0100020400C00204C0C0020AA
:1014700008380008D835000800000000000000000F
:10148000704700BF000000000000000000000000E6
:10149000704700BF000000000000000000000000D6
:1014A000FEE700BF00000000000000000000000098
:1014B000F8B5154D154F16491648174A05F1700431
:1014C00081420DD90346043A52F8046F43F8046B85
:1014D0009942F9D84B1E1B1A23F003030433184416
:1014E000874207D97A1E121A22F003020021043221
:1014F00002F00AF8A54205D0D5E90420D5E906177F
:101500001035DDE7F8BD00BF90390008A41B0020AE
:10151000A41B0020A41B0020403E00080000000087
:1015200070B52D4CB4F8F03013F0040539D03025E7
:1015300085F31188D4F8E830002B46DBD4F8EC2092
:10154000002A42D10133C4F8E83082F311882348DD
:10155000FFF77EF985F31188D4F8E830002B37DDEA
:10156000D4F8EC20A2BB013BC4F8E83082F3118828
:10157000B4F8F03013F0040603D0BDE87040FFF774
:10158000BFB985F311880422D4F8F43014491A70D5
:101590009960FFF735FA86F31188BDE87040FFF7D0
:1015A000AFB9302383F311880322D4F8F4300C4907
:1015B0001A709960FFF724FA85F31188302585F3B6
:1015C0001188D4F8E830002BB8DA0648FFF738FA6B
:1015D0000548FFF735FA00BFE01000200039000889
:1015E000F4380008F8350008003600080000000054
:1015F00070B52D4CB4F8F03013F0040539D0302517
:1016000085F31188D4F8E830002B46DBD4F8EC20C1
:10161000002A42D10133C4F8E83082F3118823480C
:10162000FFF716F985F31188D4F8E830002B37DD81
:10163000D4F8EC20A2BB013BC4F8E83082F3118857
:10164000B4F8F03013F0040603D0BDE87040FFF7A3
:1016500057B985F311880422D4F8F43014491A706C
:101660009960FFF7CDF986F31188BDE87040FFF768
:1016700047B9302383F311880322D4F8F4300C499E
:101680001A709960FFF7BCF985F31188302585F34E
:101690001188D4F8E830002BB8DA0648FFF7D0F903
:1016A0000548FFF7CDF900BFE01000201039000811
:1016B000E8380008F835000800360008000000008F
:1016C00070B52D4CB4F8F03013F0040539D0302546
:1016D00085F31188D4F8E830002B46DBD4F8EC20F1
:1016E000002A42D10133C4F8E83082F3118823483C
:1016F000FFF7AEF885F31188D4F8E830002B37DD1A
:10170000D4F8EC20A2BB013BC4F8E83082F3118886
:10171000B4F8F03013F0040603D0BDE87040FFF7D2
:10172000EFB885F311880422D4F8F43014491A7004
:101730009960FFF765F986F31188BDE87040FFF7FF
:10174000DFB8302383F311880322D4F8F4300C4936
:101750001A709960FFF754F985F31188302585F3E5
:101760001188D4F8E830002BB8DA0648FFF768F99A
:101770000548FFF765F900BFE01000202039000898
:10178000D0380008F83500080036000800000000D6
:1017900070B52D4CB4F8F03013F0040539D0302575
:1017A00085F31188D4F8E830002B46DBD4F8EC2020
:1017B000002A42D10133C4F8E83082F3118823486B
:1017C000FFF746F885F31188D4F8E830002B37DDB1
:1017D000D4F8EC20A2BB013BC4F8E83082F31188B6
:1017E000B4F8F03013F0040603D0BDE87040FFF702
:1017F00087B885F311880422D4F8F43014491A709C
:101800009960FFF7FDF886F31188BDE87040FFF797
:1018100077B8302383F311880322D4F8F4300C49CD
:101820001A709960FFF7ECF885F31188302585F37D
:101830001188D4F8E830002BB8DA0648FFF700F931
:101840000548FFF7FDF800BFE01000203039000820
:10185000A0380008F8350008003600080000000035
:1018600070B52D4CB4F8F03013F0040539D03025A4
:1018700085F31188D4F8E830002B46DBD4F8EC204F
:10188000002A42D10133C4F8E83082F3118823489A
:10189000FEF7DEFF85F31188D4F8E830002B37DD42
:1018A000D4F8EC20A2BB013BC4F8E83082F31188E5
:1018B000B4F8F03013F0040603D0BDE87040FFF731
:1018C0001FB885F311880422D4F8F43014491A7033
:1018D0009960FFF795F886F31188BDE87040FFF72F
:1018E0000FB8302383F311880322D4F8F4300C4965
:1018F0001A709960FFF784F885F31188302585F315
:101900001188D4F8E830002BB8DA0648FFF798F8C9
:101910000548FFF795F800BFE010002040390008A7
:1019200050380008F83500080036000800000000B4
:1019300070B52D4CB4F8F03013F0040539D03025D3
:1019400085F31188D4F8E830002B46DBD4F8EC207E
:10195000002A42D10133C4F8E83082F311882348C9
:10196000FEF776FF85F31188D4F8E830002B37DDD9
:10197000D4F8EC20A2BB013BC4F8E83082F3118814
:10198000B4F8F03013F0040603D0BDE87040FEF761
:10199000B7BF85F311880422D4F8F43014491A70C3
:1019A0009960FFF72DF886F31188BDE87040FEF7C7
:1019B000A7BF302383F311880322D4F8F4300C49F5
:1019C0001A709960FFF71CF885F31188302585F3AC
:1019D0001188D4F8E830002BB8DA0648FFF730F861
:1019E0000548FFF72DF800BFE0100020503900082F
:1019F00014380008F8350008003600080000000020
:101A000070B52D4CB4F8F03013F0040539D0302502
:101A100085F31188D4F8E830002B46DBD4F8EC20AD
:101A2000002A42D10133C4F8E83082F311882348F8
:101A3000FEF70EFF85F31188D4F8E830002B37DD70
:101A4000D4F8EC20A2BB013BC4F8E83082F3118843
:101A5000B4F8F03013F0040603D0BDE87040FEF790
:101A60004FBF85F311880422D4F8F43014491A705A
:101A70009960FEF7C5FF86F31188BDE87040FEF758
:101A80003FBF302383F311880322D4F8F4300C498C
:101A90001A709960FEF7B4FF85F31188302585F33D
:101AA0001188D4F8E830002BB8DA0648FEF7C8FFF2
:101AB0000548FEF7C5FF00BFE010002060390008B0
:101AC000E8370008F835000800360008000000007C
:101AD0002DE9F843934CB4F8F03013F0040576D0B8
:101AE000302181F31188D4F8E830002BC0F28480D3
:101AF000D4F8EC20002A7FD10133C4F8E83082F317
:101B00001188894A8948556BAB696E6946EA034377
:101B100003F0FF13834234D8B3F5403F0FD9A3F548
:101B20004033013B102B0DD8DFE803F069800C0C2B
:101B30000C0C0C970C0C0C0C0C0C0C0C9C00B3F14A
:101B4000011F5CD016F00A0F18BFAB69302181F37A
:101B50001188D4F8E830002B40F3D880D4F8EC207A
:101B6000002A40F0D380013BC4F8E83082F31188AA
:101B7000B4F8F03013F0040519D0BDE8F843FEF7CF
:101B8000BFBE6B48834246D002308342DAD12B6914
:101B9000D36A5B685B68002B00F08C80118C2B682B
:101BA00041F0010143F4A06311842B60CEE781F37F
:101BB00011880422D4F8F4305E491A709960FEF757
:101BC0001FFF85F31188BDE8F843FEF799BE302367
:101BD00083F311880322D4F8F43056491A709960BF
:101BE000FEF70EFF85F31188302181F31188D4F8B8
:101BF000E830002BBFF67CAF4F48FEF721FF138C77
:101C00001A0A2DD002F0060203F00103134343F039
:101C1000F0032B6196E76B68126B23F40073526834
:101C20006B60136843F0010313608BE76B68D16A44
:101C300023F400724B686A601A6842F001021A606D
:101C40006A6842F480526A605B68012B3FF67AAFA3
:101C50002B6823F480632B6074E7138CC3F3470372
:101C60002B616FE700204FF400490E23116BD26AFD
:101C7000D1E900E8D2E9007CC5F8009028606860EE
:101C80006861D8F8000020F00F00C8F80000497B18
:101C900003FA01F1CEF80410DCF8001021F00F0176
:101CA000CCF80010527B93407B606B6823F4007388
:101CB0006B6047E76B6823F400736B602B6843F439
:101CC00000732B6081F31188D4F8E830002B20DDFD
:101CD000D4F8EC30EBB90123D069C4F8EC3078B11A
:101CE000037F032B1BD10023D3614363FFF770F8FD
:101CF000D4F8E830002B0FDDD4F8EC30002B0BDDEE
:101D00000023C4F8EC3083F311881BE70B48FEF77F
:101D100097FE0B48FEF794FE0A48FEF791FE0A482C
:101D2000FEF78EFEE0100020400C002011000300A2
:101D300082000700DC380008F8350008003600088B
:101D4000C8350008D035000834380008000000000D
:101D50002DE9F041714D724C6A6BB4F8F030D2F855
:101D6000148013F004071FFA88F600F0A2803023D5
:101D700083F31188D4F8E830002BC0F2AF80D4F898
:101D8000EC20002A40F0AA800133C4F8E83082F346
:101D9000118808F45F43DB43D5E90B10D0E900CE8E
:101DA0006A6B53610E23DEF8007027F00F07CEF840
:101DB0000070407BD1E9007E03FA00F0CCF804000B
:101DC000DEF8000020F00F00CEF80000497B8B40C9
:101DD0007B6016F4807318BF0123B105AB6044BF6C
:101DE00043F00203AB6077050AD5516843F0040362
:101DF00021F400715160116841F400711160AB6011
:101E0000300544BF43F00803AB60710444BF43F0A6
:101E10002003AB60F2041CD418F4004F1FD10BBB9D
:101E2000302181F31188D4F8E830002B69DDD4F833
:101E3000EC20002A65D1013BC4F8E83082F3118818
:101E4000B4F8F03013F004054BD0BDE8F041FEF7D4
:101E500057BD43F0100318F4004FAB6002D043F0BD
:101E60004003AB60302383F31188D4F8E830002BB3
:101E70004ADDD4F8EC30002B46D10122E869C4F8E1
:101E8000EC2080B1027F032A44D16FF00102EB61A4
:101E90004263FEF79DFFD4F8E830002B37DDD4F81D
:101EA000EC30002B33DD0023C4F8EC3083F31188D1
:101EB000B6E7302383F311880322D4F8F4301A7084
:101EC000184A9A60FEF79CFD87F31188302383F34C
:101ED0001188D4F8E830002BBFF651AF1248FEF756
:101EE000AFFD81F311880422D4F8F4300D491A7043
:101EF0009960FEF785FD85F31188BDE8F041FEF796
:101F0000FFBC0A48FEF79CFD0948FEF799FD094809
:101F1000FEF796FD0848FEF793FD00BF400C002039
:101F2000E0100020AC380008F83500080036000842
:101F3000C8350008D035000834380008000000001B
:101F40002DE9F0477B4CB4F8F03013F0040535D0A0
:101F5000302181F31188D4F8E830002B42DBD4F82B
:101F6000EC20002A3ED10133C4F8E83082F3118816
:101F70004FF080452B69EA681340DAB2D2439B07E1
:101F80002A6132D4302181F31188D4F8E830002B53
:101F900040F39780D4F8EC20002A40F09280013B77
:101FA000C4F8E83082F31188B4F8F03013F0040577
:101FB00000F08A80BDE8F047FEF7A2BC302383F32F
:101FC00011880322D4F8F4305B491A709960FEF747
:101FD00017FD85F31188302181F31188D4F8E8309A
:101FE000002BBCDA5548FEF72BFD81F31188D4F89D
:101FF000E830002B78DDD4F8EC90B9F1000F73D104
:102000000123DFF83CA1C4F8EC304FF03008686AD7
:102010002669A38B80B2B168C21A92B28A4269D390
:102020000B449FB2A783D6E9003213605A60C6F80A
:1020300000902369534508BFC5F80C90D4F8E830E8
:10204000002B54DDD4F8EC30002B50DDC4F8EC90BC
:1020500089F311883046D6E90331984788F311880F
:10206000D4F8E830002B3FDDD4F8EC30002B3BD126
:1020700001237269C4F8EC30002AC8D0696A89B2B9
:10208000CF1BBFB2BA424AD3236953454DD099689A
:102090008A4209D9B34202D144E09E4242D01B6831
:1020A000521A99688A42F8D84FF0FF30B2609968A6
:1020B00033608A1A596871600E60C3E90162A061D9
:1020C000A3E72048FEF7BCFC81F311880422D4F872
:1020D000F43019491A709960FEF792FC85F3118863
:1020E000BDE8F047FEF70CBC1748FEF7A9FC1748FF
:1020F000FEF7A6FC564504D0891AA083B160FEF70E
:1021000027FED4F8E830002BF1DDD4F8EC30002BBA
:10211000EDDD0023C4F8EC3083F3118832E70C487E
:10212000FEF78EFC0B48FEF78BFC3046D21BFEF709
:10213000AFFDE6E7E01000205C360008F835000847
:10214000F010002000360008C8350008D03500081F
:10215000043700086C380008000000000000000090
:102160001B4A136843F00103136013689807FCD5FA
:1021700000201368164903F0F903136050604B68A0
:1021800013F00C0FFBD10B68114A43F480330B6042
:1021900013689903FCD553680D4943F4E813536061
:1021A000136843F0807313600B689B01FCD5122009
:1021B000084A094B4A6018604B68054A43F002031D
:1021C0004B60536803F00C03082BFAD1704700BF33
:1021D0000010024000641D000020024000000000CA
:1021E00008B5064BD3E93A120A4303D10122C3F8DA
:1021F000EC2008BD0248FEF723FC00BFE0100020E1
:10220000C0350008000000000000000000000000D1
:102210002DE9F04330230646894689B083F31188BF
:10222000974CFFF7DDFF236B13F8062C013203F800
:10223000062CD4F8E820002A5ED1D4F8EC1000294E
:102240005ADDC4F8EC202268A2424DD10022243B82
:1022500082F3118830270121DFF828825A699642DB
:1022600000F0F38087F31188D4E93A25154338D17B
:102270005A6AC4F8EC10424509D012F8060CA2F1D3
:102280002405FF2800F0C480013002F8060C00226B
:10229000C4F8EC202268A24240F0BD80002282F304
:1022A000118887F31188D4E93A02024319D1C4F89E
:1022B000EC10987F002800F0B58001389877D86935
:1022C00000F0FF1CBCF10F0F19D02368C4F8EC20FC
:1022D000A34240F09180002383F311882DB32B4655
:1022E000BCE76948FEF7ACFBE168926889689142F7
:1022F000ACD26648FEF7A4FB6548FEF7A1FBD3E924
:10230000090CCCF80000C0F804C0C4F8EC20226826
:10231000A24240F09D80002282F31188DA6A002AEE
:10232000DCD0184690470121D8E74FF4E0725521E0
:10233000304601F0E9F8574B01A9CDE9013606F521
:1023400008730393802306F5E0700493CDE90595A7
:102350000794FEF7FDFB504AA0F124013023064606
:1023600040E90995C16040F8042C83F31188FFF718
:1023700037FF336906F1240203F130017162596BB2
:10238000B1620A60D4F8E8105A6300293DD1D4F84C
:10239000EC30002B39DD2268E068A242836862D10C
:1023A0000021B26871639A4259D9FEF7A1FB01235B
:1023B0003377B4F8F03005469B07E66038D5EFF385
:1023C00009836A69243B9A422FD829463046FDF793
:1023D00037FFD4F8E830002B8ED1D4F8EC20002A57
:1023E0008ADD2268C4F8EC30A24242D1002383F394
:1023F000118809B0BDE8F0839A68E3689B6893424E
:10240000BFF469AF2548FEF71BFB2548FEF718FB14
:102410002448FEF715FB9068E26892688242BFF498
:102420003DAF66E72048FEF70BFB2048FEF708FBB0
:10243000037F416BD4F8F420DB0043F00203D1604A
:1024400013709660FEF7DCFAB9E71948FEF7F8FA60
:102450009068E26892688242BFF45DAFD2E730468E
:10246000FEF7B6FCB5E79268934299D21148FEF7A1
:10247000E7FAE16893688A689A42B7D2C2E700BF78
:10248000E010002010110020C0350008203700089F
:10249000F0350008083600085102000888370008A7
:1024A000D8350008A836000864370008E035000871
:1024B000743700081037000800000000000000001A
:1024C00008B5074BD3F8E82032B9D3F8EC1000294F
:1024D00002DDC3F8EC2008BD0248FEF7B1FA00BFE8
:1024E000E0100020F03500080000000000000000AF
:1024F000012270B5174C2668E06833685C6032775B
:102500002360E660FEF7F4FAB4F8F03005469B0766
:102510000BD5EFF309836A69243B9A4217D8294601
:102520003046BDE87040FDF78BBE037F416BD4F8A9
:10253000F420DB0043F00203C2E902611370FEF7EE
:102540005FFAEFF309836A69243B9A42E7D90248AC
:10255000FEF776FAE0100020E035000800000000E9
:10256000F8B5334C3023E16883F31188D4E93A326B
:102570001A434FD101208B6CC4F8EC00002B46D0DD
:102580009868814243D12B4D05F10C06B3423ED1F0
:10259000E868AB69B0428B642ED0CF6C4BB11A683F
:1025A000934203D09268974238BF1746DB68002BEE
:1025B000F5D18F600368EB605E60836C8664C5E96B
:1025C0000503FEF705FCD4F8E83033BBD4F8EC3053
:1025D000002B22DD2268E36892689B689A420CD93E
:1025E000FFF786FFD4F8E8301BB9D4F8EC30002BA5
:1025F00003DC1148FEF724FA6A6100222368C4F85C
:10260000EC20A3420CD1002383F31188F8BD0B48C2
:10261000FEF716FA0A48FEF713FA0A48FEF710FA10
:10262000E2689B6892689A42EDD20748FEF708FA82
:10263000E0100020400C0020F03500082C37000886
:10264000C0350008D83500084438000800000000F4
:102650002DE98048804C8149E268302385B01162C1
:1026600083F31188D4F8E830002B40F0D4804FF089
:1026700062577B4DD4F8EC30002B40F0CC80012326
:102680004FF4A0710820C4F8EC30FEF7D1FCD4F868
:10269000E830002B40F0C280D4F8EC20002A40F350
:1026A000BD80C4F8EC302368A34240F0BD80002315
:1026B00083F311884FF05533A8226A4EC5E90033E1
:1026C0003270302383F31188D4E93A23134340F066
:1026D000A2800123C4F8EC30FEF74AFED4F8E830BB
:1026E000002B40F09B80D4F8EC20002A40F3968029
:1026F000C4F8EC302368A34240F09F80002383F3AA
:102700001188062201205649FEF72AFD8046FFF770
:1027100027FFB8F1000F40F08480DFF84481DFF834
:102720004891C346CA469BF801301BF8020B40EAA9
:10273000032000B2FDF75AFE3946FDF7ABFE4B4BC6
:102740004AF8040B5345EED128224FF0553332702E
:10275000434AC2E90033302383F31188D4E93A2392
:10276000134358D10123C4F8EC30FEF701FED4F82E
:10277000E830002B52D1D4F8EC20002A4EDDC4F80A
:10278000EC302368A34261D14FF0000B8BF311882A
:10279000012205EB0B011046FEF7E2FC002840D1B8
:1027A00033780BF1010B0133BBF1060F3370EFD11E
:1027B00001AE8246B346FFF7D3FE98F8013018F811
:1027C000020B0AF1010A40EA032000B2FDF70EFEF7
:1027D0003946FDF75FFEBAF1030F4BF8040BECD15D
:1027E0004FF0000856F8041B59F8040BFDF748FD9C
:1027F0001F4920F00040FDF7EBFF90B108F1010800
:10280000B8F1030FEED1302383F31188D4F8E83008
:10281000002B3FF42FAF1748FEF712F91648FEF7CA
:102820000FF91648FEF70CF9E2689B6892689A4225
:10283000BFF43DAF1248FEF703F9E2689B68926867
:102840009A42BFF45BAF0F48FEF7FAF8E2689B6864
:1028500092689A4298D2F6E7E010002010360008FD
:10286000CC100020D4100020C0100020CC1000207C
:10287000CDCCCC3DC0350008F0350008C43600088A
:1028800088370008443800080000000000000000FD
:10289000944C9549E26880B53023116283F3118826
:1028A000D4F8E830002B40F0BE80904D904E05F1FA
:1028B0001C07D4F8EC30002B40F0B5800123A02198
:1028C0000820C4F8EC30FEF7B3FBD4F8E830002B56
:1028D00077D1D4F8EC20002A73DDC4F8EC302368FB
:1028E000A34240F0A380002383F31188302383F3B5
:1028F0001188D4E93A23134340F095800123C4F8AA
:10290000EC30FEF735FDD4F8E830002B59D1D4F87F
:10291000EC20002A55DDC4F8EC302368A34240F0D7
:102920008E80002383F3118895F80080B8F1020FA0
:1029300040F08E80302383F31188D4E93A32134378
:1029400071D1AB60C4F8EC3004232B70992322685A
:102950002B84A2426B6B40F08680002080F31188AC
:1029600002224FF0804C4FF0300E4FF00109E96A1F
:10297000D5F824A04968C1F800A0CE604A60DCF810
:1029800024201FFA82FA8EF31188D4E93A120A43FE
:1029900049D19A69C4F8EC90910702D41A6892055B
:1029A00068D5DCF82420A2EB0A0292B2B2F5FA7FD5
:1029B0000AD22268C4F8EC00A2424CD180F31188FC
:1029C000E1E74C48FEF73CF80E234FF005084FF0C6
:1029D000FF39EA6AD2E900C0016821F00F01016005
:1029E000527B9340CCF80430D4F8E83085F800806E
:1029F000002BE6D1D4F8EC20002AE2DDC4F8EC305C
:102A00002368A34262D1002383F31188FFF7A8FD56
:102A100019F1020F54D0302383F31188D4F8E83031
:102A2000002B3FF446AF3448FEF70AF8E2689B6893
:102A300092689A42BFF457AF3048FEF701F8E26857
:102A40009B6892689A42BFF46CAF2D48FDF7F8FF7F
:102A50002C48FDF7F5FF9168E26892688A42ADD292
:102A60002948FDF7EDFFE168926889689142BFF45B
:102A700074AFF5E75A6842F400725A601A6842F47B
:102A8000A0621A60EA69E36842BB282103205F6301
:102A9000EB61FEF7CDFA81460028A5D00E23EA6A45
:102AA000B0F1FF3FD2E900C0016808BF4FF0050850
:102AB00021F00F010160527B9340CCF8043093E782
:102AC000AB68042BA7D01148FDF7BAFFE2689B68FA
:102AD00092689A4297D20E48FDF7B2FF0D48FDF773
:102AE000AFFF00BFE01000201C360008400C0020A3
:102AF000A01B0020F0350008C0350008883700080A
:102B000044380008A4370008EC360008D036000826
:102B1000943800087C380008000000000000000025
:102B200008B5302383F311881A4CD4E93A231343B0
:102B300022D10122E568AB6B05F138069E42C4F84C
:102B4000EC20686307D1AB7FCBB10F20FEF718FAFA
:102B50001148FDF775FF1A68AA63D4F8E820002A27
:102B600015DBD4F8EC20002A11DD1846FEF730F909
:102B7000AB6BB342E7D0EEE70848FDF761FFEB6AC5
:102B8000002BE2D1D5E9093213605A60DDE7044831
:102B9000FDF756FFE010002058370008C035000848
:102BA000B835000800000000000000000000000030
:102BB000EFF30983203383F30988002383F311881B
:102BC000704700BF0000000000000000000000008F
:102BD00000214FF0FF32124B124C18692DE980484A
:102BE00061601A611E6919611E69DE68DA60DA685F
:102BF000D960DA68DE690C4F46F08056DE61DE6926
:102C0000DE690A4646F00066DE61DB693B6807481C
:102C100043F480733B60064D0B4689B021600CE0A5
:102C200000100240601B00200070004008000240BD
:102C30000039000805EBC201486804EB820102324A
:102C40000E2A03608B60F5D14FF0600C4FF0FF301F
:102C50004021CD4ACD4C4FF4807E60604FF4806AB5
:102C600082F806C34FF40008C2F880114FF40079CF
:102C7000116080214FF088374FF0010BC44E82F86D
:102C800007C3C2F88011116082F808C3C2F880E15E
:102C9000C2F800E082F809C3C2F88091C2F800903F
:102CA00082F80AC3C2F880A1C2F800A082F817C354
:102CB000C2F88081C2F8008082F828C3C2F884E19B
:102CC000C2F804E0D6F818C0DFF8C8924CF07D0CCA
:102CD000C6F818C0D6F818C0DFF8BCC2DFF8BCA22E
:102CE000CCF80C00CCF80470CCF80090DFF8B0926F
:102CF000CAF80C00CAF80490DFF8A89208F17E58D0
:102D0000CAF8009009F1194909F57D0908F58838D4
:102D100009F52B49A44DC8F80C00C8F80490DFF859
:102D20008C92C5E90B336B606B61EB61DFF880E27D
:102D3000C8F80090DFF87C820CF5805CCEF80C00BF
:102D4000CEF80470CEF80080CCF80C00CCF80470FB
:102D5000CCF8007085F800B0F769DFF85CC247EA8C
:102D60000B07F761F669DCF804704FF0804147F417
:102D70000067CCF8047041F61F478F624FF6FF776B
:102D8000CF628B614B63CB604B60C1F814B0C1F86C
:102D900000B06FF07F0182F81C134FF08051C2F831
:102DA00080111160854A864E6A6305F10C02C5E9FF
:102DB000032286F800B00022C6E90133CDE9000302
:102DC000CDE9023300230424CDE904236846FDF74E
:102DD00067FDFDF76DFD013CF8D114201C21042294
:102DE000009B784FB360784B9861196377487849B6
:102DF000DA615A63774A7960091A916076495060BE
:102E0000196299637549C2E90344116002F1140122
:102E1000C2E90511D46103F110021A6103F1240221
:102E20005A6203F128029A6203F13C023860DA63C5
:102E3000706803F140021A6403F14402C3E90033ED
:102E40009C605C61DC625A64002840F04B82644FF5
:102E5000644B7760BC633B64302080F3118862B6BA
:102E60004FF6FF08C7E901745F4BFC63C7F8E84001
:102E7000D9685E4A01EA08010A43BC83DA60D3F8E4
:102E8000FC204FF0200E42F08072C3F8FC204FF07F
:102E9000FF324FF0804C5649BA610A6807EB0008D0
:102EA00042F001020A6083F81FE083F82200022347
:102EB000DCF824104FF0010C3B624E4BC7E90C8844
:102EC000C7E93BC307F11003C7E9043307F1F8036F
:102ED000C7F8F43023468AB2C7E90A233F60C7F82F
:102EE000E44007EB041393F8F82001346FF3020277
:102EF000802C83F8F820F4D1039400243E4B6946DB
:102F000000933E4B3E4801933E4BCDE9044402936F
:102F10000697FDF71DFE03464FF0010C4FF480723B
:102F2000D7F834E03848C3E9098EDFF8E0B003F1A0
:102F30002408DFF8DC9000EB020A5521FB60CEF894
:102F40000080C7F8348083F81CC0CDE902ACCDE91D
:102F50000494CDE900B0069700F0D6FA69462D48F2
:102F6000FDF7F6FDDDE904A901698269D7F8E8E01B
:102F7000DFF8A480D1F834C0A2F1240BC0F80CB063
:102F800000F124044AE000BF00E100E0000002403C
:102F900000100240844B888800080140000C01406A
:102FA00088EEB3B4888888EE400C002088880444FA
:102FB0000014014044888888002004E00054004048
:102FC000301B0020281B0020E01A0020A81B002036
:102FD000005000203C1B0020310C0008A10B000811
:102FE000E01000207039000800ED00E00003FA0551
:102FF000001000E0E0FF80002836000800040020F8
:103000007411002000080020E0190020303600086C
:1030100091080008241100205102000842E909A982
:1030200042F8048CBEF1000F01F13002C0F828C054
:103030004262CCF800404C63C0F24E81D7F8EC30CD
:10304000002B40F34981FDF7C3FE02233370FFF7E5
:1030500037FA3B68BB4240F05E81002383F311885E
:10306000302383F31188FFF7BBF82E78731E012BF2
:1030700000F25A81B84B012E6C6B6B6000F0E78058
:103080004FF4004E4FF0000C4FF41060EA6A04F168
:10309000100352686E6893602A6B5268936073687D
:1030A000AE4A591E9142C4F800E0C4F800C0606006
:1030B00000F21B814FF6C07C6A6B307A516801EADE
:1030C0000C015160516841F024015160A4498B42C8
:1030D00000F3A480012840F00881A2485B00B0FB07
:1030E000F3F103FB1100002840F0FF8089B20329AF
:1030F00040F2FB802523B1F5805F1362C1F30B031F
:1031000080F0F380D3613178136802299BB200F01C
:10311000F980032900F0F380012900F0EC800221FE
:1031200013602368D7F8E82043F001032360297077
:10313000002A40F0DD80D7F8EC30002B40F3D88037
:103140003B68C7F8EC20BB4240F04881002383F382
:103150001188854A85493023116083F31188FFF770
:103160003FF8FEF705F9FFF7ABF93B68BB4240F0CB
:103170002C81002282F3118804201146FDF7F0FF14
:103180000446FFF7EDF9002C40F0E28078497948D9
:10319000FFF73EF878497948FFF73AF84FF480593D
:1031A0004FF07C58764D774E2968D5F804A0084634
:1031B000FDF770F9514604465046FDF76BF901469C
:1031C0002046FDF75FF800F01DF94146FDF71EFBB4
:1031D000002800F08480C6F81490302383F311880F
:1031E000D7E93A23134340F093800123C8210820F4
:1031F000C7F8EC30FDF71CFFD7F8E830002B77D18B
:10320000D7F8EC20002A73DDC7F8EC303B68BB42EE
:1032100040F0D280002383F31188C5E7811E012985
:1032200063D8022800F08980192103FB01F14D4881
:10323000B0FBF1F301FB1301002956D14FF480409C
:103240009BB20B21034343F4004311625AE78A22E5
:103250009A23C5E90923DFF83081D8F8103043F408
:103260000013C8F81030D8F8103023F40013C8F851
:103270001030FDF725FC06204449D8F81030FDF742
:1032800067FBE862002855D0FDF71AFC052040498D
:10329000FDF75EFB286300284CD050224FF0004120
:1032A000D8F81C3043F40013C8F81C30D8F81C3090
:1032B0006B6A43F440536B62AB6A43F44053AB62B6
:1032C000344B83F81F23C3F88011196083F820233F
:1032D000C3F884615E60D3E62F48FDF7B1FBC6F802
:1032E00010907AE72D48FDF7ABFB2D48FDF7A8FBC2
:1032F0002C48FDF7A5FB23F00A039BB20FE743F030
:103300000A030CE723F008039BB243F0020306E72D
:103310002548FDF795FBFA689B6892689A42BFF4CE
:103320009CAE2248FDF78CFB052E60D10A4B6C6BDE
:103330006B60A5E61E48FDF783FB0A4803EB4303D9
:10334000B0FBF3F103FB11000028CED18BB278E77C
:103350001848FDF775FB00BF843900087F1A060086
:10336000A086010000512502D4100020A0E74100F2
:1033700051260008800C002091280008A00E002093
:10338000C01000200010014000100240310E000863
:10339000810A000800E100E0B83500089036000816
:1033A00020380008F0350008C0350008F83600085D
:1033B0005C3800084C370008FA689B6892689A42AB
:1033C000BFF428AF0B48FDF73BFBFA689B68926897
:1033D0009A42BFF4CEAE0848FDF732FBFA689B680C
:1033E00092689A42BFF4B2AE0448FDF729FB044844
:1033F000FDF726FB88370008443800089438000899
:10340000C438000838B5044600F020F80E4B0546D5
:1034100093F90030013309D021462046FDF700FA28
:1034200020B920460021FDF7D3F908B9284638BD58
:1034300000F064F82122034600211A600846FDF7D7
:10344000DDF80546284638BD0008002020F000427F
:10345000B2F1FF4F10B5044634D292B300280346B0
:1034600042DB10F0FF4F4FEAE05432D00021A4F1CC
:103470007F00E2074FF0190C4FEA60044FF08072B2
:103480000846C3F3160343F4000358BF5B005B0018
:1034900000EB020E9E4504DC0EEB0200A3EB0E03D4
:1034A0001144BCF1010C4FEA43034FEA5202EFD141
:1034B00013B1013121F00101481000F17C5000EB03
:1034C000C45010BD0146FCF7E5FF2146FCF7DAFECB
:1034D00010BD10F400020ED15B001802114602F17B
:1034E0000102F9D5641AC1E70146FCF7C9FE01469D
:1034F000FDF784F810BD4FF0FF31F3E7014B18687A
:10350000704700BF04080020830730B548D0541E20
:10351000002A3FD00346CAB201E0013C3AD303F887
:10352000012B9D07F9D1032C2DD9CDB245EA0525F4
:103530000F2C45EA054536D9A4F1100222F00F0CF4
:1035400003F1200EE6444FEA121C03F1100242E997
:10355000045542E9025510327245F8D10CF10102CE
:1035600014F00C0F03EB021204F00F0C13D0ACF1AB
:10357000040323F003030433134442F8045B93422F
:10358000FBD10CF003042CB1CAB21C4403F8012B8C
:103590009C42FBD130BD64461346002CF4D1F9E7C0
:0C35A00003461446BFE71A46A446E0E7C5
:1035AC00444D41206661696C757265005356233138
:1035BC0030000000535623340000000053562336CD
:1035CC0000000000535623370000000053562331EF
:1035DC0031000000737461636B206F766572666CEA
:1035EC006F770000535623350000000053562338E4
:1035FC000000000053562339000000006E6F6E610E
:10360C006D650000506F6C6C416363656C0000006D
:10361C00506F6C6C46616B65000000006D61696EEB
:10362C000000000069646C6500000000633000005D
:10363C006932635F6C6C645F6D61737465725F7427
:10364C0072616E736D69745F74696D656F7574000A
:10365C00566563746F7242300000000063685379E2
:10366C007347657449646C6554687265616458008D
:10367C005F5F7363685F72656164795F61686561E0
:10368C00640000006368496E7374616E63654F6219
:10369C006A656374496E6974000000006368526562
:1036AC00674E657874546872656164006368537919
:1036BC0073556E6C6F636B006C6973334765744143
:1036CC0063630000726571756573745F66616B6529
:1036DC00000000007374536574416C61726D0000DE
:1036EC006368537973556E6C6F636B0063685379C1
:1036FC0073556E6C6F636B0063685654446F5469FA
:10370C00636B4900636853636857616B65757053ED
:10371C00000000006368537973556E6C6F636B0027
:10372C0063684D7478556E6C6F636B006368436FA0
:10373C007265416C6C6F6346726F6D546F704900AB
:10374C006C6973335374617274000000636854685D
:10375C006445786974530000636854686452656CFE
:10376C0065617365000000006368546864437265AA
:10377C006174655374617469630000006368537904
:10378C0073556E6C6F636B00737453746172744118
:10379C006C61726D000000006932634D6173746579
:1037AC00725265636569766554696D656F757400F1
:1037BC006368536368476F536C6565705300000012
:1037CC006932634D61737465725472616E736D69A5
:1037DC007454696D656F75740000000056656374F0
:1037EC006F723834000000005F5F7363685F72654E
:1037FC006164795F626568696E64000063684D742A
:10380C00784C6F636B530000566563746F7238307D
:10381C00000000006932635F6C6C645F7365745FF9
:10382C00636C6F636B00000063685468645265736B
:10383C00756D6549000000006368537973556E6CB3
:10384C006F636B00566563746F7237430000000042
:10385C006932635F6C6C645F737461727400000036
:10386C0063685F646C6973745F696E73657274000E
:10387C00636854686453757370656E6454696D65E0
:10388C006F757453000000006368537973556E6C48
:10389C006F636B00566563746F72373800000000FD
:1038AC00566563746F72433000000000636854699E
:1038BC006D654164645800006932635374617274BD
:1038CC0000000000566563746F723734000000000E
:1038DC00566563746F724243000000005665637452
:1038EC006F72373000000000566563746F72364398
:1038FC00000000000000024008000240010000002F
:10390C000000000B000002401C00024002000000FE
:10391C000004010C000002403000024004000000D2
:10392C000008020D000002404400024008000000A4
:10393C00000C030E00000240580002401000000072
:10394C000010040F000002406C0002402000000038
:10395C0000140510000002408000024040000000EE
:10396C00001806113836000800040020000800205A
:10397C00E0190020E01A002001000000801A060067
:10398C0002000000403E0008A41B0020A41B0020E5
:10399C00A41B0020403E00080000000000000000B6
:1039AC0000000000403E0008000000000000000085
:1039BC0000000000403E0008000000000000000075
:1039CC0000000000403E0008000000000000000065
:1039DC0000000000403E0008000000000000000055
:1039EC0000000000403E0008000000000000000045
:1039FC0000000000403E0008000000000000000035
:043A0C0000000000B6
:103A1000FF0000000808002000000000F40A002059
:103A20005C0B0020C40B0020000000000000000020
:103A30000000000000000000000000000000000086
:103A40000000000000000000000000000000000076
:103A50000000000000000000000000000000000066
:103A60000000000000000000000000000000000056
:103A70000000000000000000000000000000000046
:103A80000000000000000000000000000000000036
:103A90000000000000000000000000000000000026
:103AA0000000000000000000000000000000000016
:103AB0000000000000000000000000000000000006
:103AC00001000000000000000E33CDAB34126DE6A3
:103AD000ECDE05000B00000000000000000000000C
:103AE00000000000000000000000000000000000D6
:103AF00000000000000000000000000000000000C6
:103B000000000000000000000000000000000000B5
:103B100000000000000000000000000000000000A5
:0400000508000239B4
:00000001FF
