:020000040800F2
:1000000000040020D9022000DB022000DB022000D7
:10001000DB022000DB022000DB022000DB022000EC
:10002000DB022000DB022000DB022000515C20000C
:10003000DB022000DB022000DB022000DB022000CC
:10004000DB022000DB022000DB022000DB022000BC
:10005000DB022000DB022000DB022000DB022000AC
:10006000DB022000DB022000DB022000F122200066
:1000700051232000B12320001124200071242000EE
:10008000D124200031252000C11F2000DB022000E8
:10009000DB022000DB022000DB022000DB0220006C
:1000A000DB022000DB022000DB022000DB0220005C
:1000B000A1192000DB022000F1192000DB02200042
:1000C000DB022000DB022000DB022000DB0220003C
:1000D000DB022000E1182000DB022000DB02200010
:1000E000DB022000DB022000DB022000DB0220001C
:1000F000DB022000DB022000DB0220009125200033
:10010000DB022000DB022000DB022000DB022000FB
:10011000DB022000DB022000DB022000DB022000EB
:10012000F125200051262000B126200011272000B3
:1001300071272000DB022000DB022000DB02200010
:10014000DB022000DB022000DB022000DB022000BB
:10015000D12720003128200091282000DB02200038
:10016000DB022000DB022000DB022000DB0220009B
:10017000DB022000DB022000DB022000DB0220008B
:10018000DB022000DB022000DB022000DB0220007B
:10019000DB022000DB022000DB022000DB0220006B
:1001A000DB022000DB022000DB022000DB0220005B
:1001B000DB022000DB022000DB022000DB0220004B
:1001C000DB022000DB022000DB022000DB0220003B
:1001D000DB022000DB022000DB022000DB0220002B
:1001E000DB022000DB022000DB022000DB0220001B
:1001F000DB022000DB022000DB022000DB0220000B
:1002000072B6264880F30888254880F30988254877
:1002100025490860022080F31488BFF36F8F00F037
:10022000C7F903F065F94FF0553020491B4A914258
:100230003CBF41F8040BFAE71D49194A91423CBF03
:1002400041F8040BFAE71B491B4A1C4B9A423EBF7C
:1002500051F8040B42F8040BF8E700201849194A3A
:1002600091423CBF41F8040BFAE700F0B9F900F005
:10027000A7F9154C154DAC4203DA54F8041B884716
:10028000F9E705F0D5FD124C124DAC4203DA54F8F3
:10029000041B8847F9E700F09BB900000004002028
:1002A000000800200000200008ED00E00000002011
:1002B0000004002064660008000001200000012006
:1002C000000800208016002000022000000220000C
:1002D000000220000002200092E700F000F8FEE794
:1002E0002DE9F04FC1F80CD0D0F80CD0BDE8F08F5C
:1002F00003F01EFA002383F311882846A04700204C
:1003000004F0CEFFFEE703F0EBF904F029FB03F065
:100310000FFA00DFFEE70000844641EA000313F015
:1003200003036DD1403A41D351F8043B40F8043BFC
:1003300051F8043B40F8043B51F8043B40F8043BBF
:1003400051F8043B40F8043B51F8043B40F8043BAF
:1003500051F8043B40F8043B51F8043B40F8043B9F
:1003600051F8043B40F8043B51F8043B40F8043B8F
:1003700051F8043B40F8043B51F8043B40F8043B7F
:1003800051F8043B40F8043B51F8043B40F8043B6F
:1003900051F8043B40F8043B51F8043B40F8043B5F
:1003A00051F8043B40F8043B403ABDD2303211D3FF
:1003B00051F8043B40F8043B51F8043B40F8043B3F
:1003C00051F8043B40F8043B51F8043B40F8043B2F
:1003D000103AEDD20C3205D351F8043B40F8043BFF
:1003E000043AF9D2043208D0D2071CBF11F8013BFD
:1003F00000F8013B01D30B8803806046704700BFC3
:10040000082A13D38B078DD010F003038AD0C3F1D1
:100410000403D21ADB071CBF11F8013B00F8013BB3
:1004200080D331F8023B20F8023B7BE7043AD9D372
:10043000013A11F8013B00F8013BF9D20B78037047
:100440004B7843708B7883706046704700000000E3
:10045000BFF34F8F00BFBFF36F8F00BF0B4B002266
:10046000C3F85022BFF34F8F00BFBFF36F8F00BFA1
:10047000064B5B69054A43F400335361BFF34F8F6A
:1004800000BFBFF36F8F00BF00BF704700ED00E0FB
:10049000BFF34F8F00BFBFF36F8F00BF054B00222C
:1004A000C3F85022BFF34F8F00BFBFF36F8F00BF61
:1004B00000BF704700ED00E00000000000000000F9
:1004C00084B01E4B0022C3F88420BFF34F8F00BFBF
:1004D0001A4BD3F880300193019B5B0BC3F30E03DF
:1004E0000393019BDB08C3F309030293039B5A01A7
:1004F00043F6E0731340029A920710491343C1F880
:100500006032029B5A1E0292002BEFD1039B5A1EAF
:100510000392002BE5D1BFF34F8F00BF074B5B6900
:10052000064A43F480335361BFF34F8F00BFBFF3DC
:100530006F8F00BF00BF04B0704700BF00ED00E048
:1005400084B0194B0022C3F88420BFF34F8F00BF43
:10055000154BD3F880300193019B5B0BC3F30E0363
:100560000393019BDB08C3F309030293039B5A0126
:1005700043F6E0731340029A92070B491343C1F804
:100580006C32029B5A1E0292002BEFD1039B5A1E23
:100590000392002BE5D1BFF34F8F00BFBFF36F8FE6
:1005A00000BF00BF04B0704700ED00E00000000095
:1005B00008B5FFF74DFFFFF783FF00BF08BD00BF81
:1005C00000BF7047000000000000000000000000B5
:1005D000FEE700BF00000000000000000000000077
:1005E00000B585B0194B0393039B1B680293039BD3
:1005F0005B68019309E0029B1A68019B1A60019BEA
:1006000004330193029B04330293039B9B68019A7A
:100610009A42F0D305E0019B00221A60019B04334B
:100620000193039BDB68019A9A42F4D3039B103336
:100630000393039B064A9342D6D3FFF781FFFFF74C
:1006400027FF00BF05B05DF804FB00BFC85E0008CF
:10065000485F0008000000000000000000000000EB
:1006600000BF704700000000000000000000000014
:1006700008B5FFF7F5FF01F06BFA02F019FA00F088
:1006800077FC00F0D5FD00F0DBFF02F039FF00F051
:100690004FF800BF08BD00BF0000000000000000D0
:1006A0004FF080435B6A1846704700BF00000000AF
:1006B00082B001904FF08042019B53634FF0804322
:1006C00000221A614FF080430222DA6000BF02B0BC
:1006D000704700BF000000000000000000000000A4
:1006E0004FF080430022DA6000BF70470000000036
:1006F00082B001904FF08042019B536300BF02B073
:10070000704700BF00000000000000000000000073
:100710004FF08043DB6803F00203002B14BF01237A
:100720000023DBB218467047000000000000000004
:1007300008B502F0BDFA00BF08BD00BF0000000010
:1007400008B5FFF7ADFF0346184608BD00000000DE
:1007500000B583B0019000F033F80346002B02D0BF
:10076000044802F06DFF0198FFF7A2FF00BF03B03D
:100770005DF804FB485F0008000000000000000076
:1007800008B5FFF7ADFF00BF08BD00BF00000000C7
:1007900000B583B0019000F013F8034683F0010325
:1007A000DBB2002B02D0054802F04AFF0198FFF7A8
:1007B0009FFF00BF03B05DF804FB00BF585F000857
:1007C00008B5FFF7A5FF0346184608BD0000000066
:1007D00000B583B072B600BF30230193019B83F351
:1007E000118800BF62B600BF00BF02F079FF00BFF2
:1007F00003B05DF804FB00BF000000000000000033
:1008000000B583B002F094FF124B1B68114A93426B
:1008100014BF01230023DBB2002B0FD00D4BDB688C
:100820009A680C4B1B689B689A4234BF01230023D3
:10083000DBB2002B02D0084802F002FF0023019334
:10084000019B83F3118800BF00BF00BF03B05DF8B8
:1008500004FB00BF58090020785F0008000000007A
:1008600008B5FFF7B5FF00BF08BD00BF00000000DE
:1008700008B5FFF7C5FF00BF08BD00BF00000000BE
:1008800000B583B00190019804F092FD00BF03B061
:100890005DF804FB00000000000000000000000004
:1008A00000B583B0019000910099019804F098FD83
:1008B0000346184603B05DF804FB00BF00000000CB
:1008C00000B583B0019000910099019804F0A8FD53
:1008D00000BF03B05DF804FB000000000000000052
:1008E00000B587B0039002910192019B002B0CBFD1
:1008F00001230023DBB2002B02D02E4802F0A0FE21
:10090000039B9B68019A9A4202D9039B9B680193BF
:10091000039B1A69039B9B69D31A0593019A059B54
:100920009A420DD2039B9B69019A19460298FFF7E0
:10093000F3FC039B9A69019B1A44039B9A612BE089
:10094000019A059B9A421CD9039B9B69059A1946FB
:100950000298FFF7E1FC029A059B13440293019A67
:10096000059BD31A0493039BDB68049A19460298EB
:10097000FFF7D2FC039BDA68049B1A44039B9A613D
:100980000AE0039B9B69019A19460298FFF7C4FC91
:10099000039BDA68039B9A61039B9A68019BD21AB6
:1009A000039B9A60019B00BF00BF184607B05DF82B
:1009B00004FB00BF645F00080000000000000000AE
:1009C00000B587B0039002910192019B002B0CBFF0
:1009D00001230023DBB2002B02D02E4802F030FEB0
:1009E000039B9B68019A9A4202D9039B9B680193DF
:1009F000039B1A69039B5B69D31A0593019A059BB4
:100A00009A420DD2039B5B69019A02991846FFF73F
:100A100083FC039B5A69019B1A44039B5A612BE098
:100A2000019A059B9A421CD9039B5B69059A02991E
:100A30001846FFF771FC029A059B13440293019A32
:100A4000059BD31A0493039BDB68049A029918460A
:100A5000FFF762FC039BDA68049B1A44039B5A610C
:100A60000AE0039B5B69019A02991846FFF754FC60
:100A7000039BDA68039B5A61039B9A68019BD21A15
:100A8000039B9A60019B00BF00BF184607B05DF84A
:100A900004FB00BF6C5F00080000000000000000C5
:100AA00000B585B00390029101920093039B184614
:100AB000FFF7E6FE039B00229A60039B029ADA602E
:100AC000039B029A9A61039B029A5A61029A019BC4
:100AD0001A44039B1A61039B009ADA61039B069AEE
:100AE0001A6200BF05B05DF804FB00BF0000000003
:100AF00000B583B001900B468DF8033002F010FF73
:100B0000019B5A69019B9B699A4205D1019B9B6895
:100B1000002B01D0012300E0002303F00103DBB22E
:100B200083F00103DBB2002B1DD0019B9B685A1C94
:100B3000019B9A60019B5B69591C019A51619DF868
:100B400003201A70019B5A69019B1B699A4203D3C7
:100B5000019BDA68019B5A61019B00211846FFF74F
:100B6000AFFE002301E04FF0FF33184603B05DF8FD
:100B700004FB00BF000000000000000000000000B7
:100B800000B585B001900091FFF76AFE0CE0019B73
:100B900000991846FFF784FE0290029B002B03DAAF
:100BA000FFF766FE029B26E0019B9B68002BEED0C0
:100BB000019B9B685A1E019B9A60019B9B69591C73
:100BC000019A91611B788DF80F30019B9A69019B06
:100BD0001B699A4203D3019BDA68019B9A61019BCE
:100BE000DB69002B03D0019BDB6901989847FFF775
:100BF0003FFE9DF80F30184605B05DF804FB00BFBE
:100C000000B589B00390029101920093039BDB69C8
:100C10000793019B0693019B002B0CBF012300232C
:100C2000DBB2002B02D01C4802F00AFDFFF718FED1
:100C300024E0019A02990398FFF752FE0590059B64
:100C4000002B09D1039B00991846FFF729FE049059
:100C5000049B002B12D014E0079B002B02D0079BB3
:100C600003989847FFF704FE019A059BD31A019356
:100C7000029A059B13440293FFF7F2FD019B002BA0
:100C8000D7D1FFF7F5FD069A019BD31A00BF00BF2D
:100C9000184609B05DF804FB845F000800000000FE
:100CA00000B585B00390029101920093039B184612
:100CB000FFF7E6FD039B019A9A60039B029ADA60B4
:100CC000039B029A9A61039B029A5A61029A019BC2
:100CD0001A44039B1A61039B009ADA61039B069AEC
:100CE0001A6200BF05B05DF804FB00BF0000000001
:100CF00000B587B003900B4601928DF80B30FFF7DB
:100D0000AFFD0CE0039B01991846FFF7C9FD059064
:100D1000059B002B03DAFFF7ABFD059B25E0039B4A
:100D20009B68002BEED0039B9B685A1E039B9A6026
:100D3000039B5B69591C039A51619DF80B201A7043
:100D4000039B5A69039B1B699A4203D3039BDA688E
:100D5000039B5A61039BDB69002B03D0039BDB6978
:100D600003989847FFF784FD0023184607B05DF805
:100D700004FB00BF000000000000000000000000B5
:100D800000B585B0019002F0CBFD019B5A69019B33
:100D90009B699A4205D1019B9B68002B01D00123DE
:100DA00000E0002303F00103DBB283F00103DBB2B8
:100DB000002B1ED0019B9B685A1C019B9A60019BD3
:100DC0009B69591C019A91611B788DF80F30019B2A
:100DD0009A69019B1B699A4203D3019BDA68019BC4
:100DE0009A61019B00211846FFF76AFD9DF80F30BC
:100DF00001E04FF0FF33184605B05DF804FB00BF7B
:100E000000B589B00390029101920093039BDB69C6
:100E10000793019B0693019B002B0CBF012300232A
:100E2000DBB2002B02D01C4802F00AFCFFF718FDD1
:100E300024E0019A02990398FFF7C2FD0590059BF3
:100E4000002B09D1039B00991846FFF729FD049058
:100E5000049B002B12D014E0079B002B02D0079BB1
:100E600003989847FFF704FD019A059BD31A019355
:100E7000029A059B13440293FFF7F2FC019B002B9F
:100E8000D7D1FFF7F5FC069A019BD31A00BF00BF2C
:100E9000184609B05DF804FB945F000800000000EC
:100EA00000B583B072B600BF30230193019B83F37A
:100EB000118800BF62B600BF00BF02F011FC00BF86
:100EC00003B05DF804FB00BF00000000000000005C
:100ED00000B583B002F02CFC124B1B68114A934200
:100EE00014BF01230023DBB2002B0FD00D4BDB68B6
:100EF0009A680C4B1B689B689A4234BF01230023FD
:100F0000DBB2002B02D0084802F09AFB00230193C9
:100F1000019B83F3118800BF00BF00BF03B05DF8E1
:100F200004FB00BF58090020B05F0008000000006B
:100F300008B5FFF7B5FF00BF08BD00BF0000000007
:100F400008B5FFF7C5FF00BF08BD00BF00000000E7
:100F500000B583B00190019804F0D2FB00BF03B04C
:100F60005DF804FB0000000000000000000000002D
:100F700008B501F04DF800BF08BD00BF000000003B
:100F800000B583B00190019B01221A70019B0022E1
:100F90005A60019B00229A60019B0022DA60019B4B
:100FA00000221A61019B00225A61019B18331846E6
:100FB000FFF7CEFF00BF03B05DF804FB00000000A8
:100FC00000B585B001900091019B002B0CBF01235F
:100FD0000023DBB2002B02D01A4802F031FBFFF7EE
:100FE000A7FF019B1B78012B14BF01230023DBB259
:100FF000002B0BD0019B1B78022B14BF0123002375
:10100000DBB2002B02D00F4802F01AFB019B009AC2
:101010005A60019801F02CF800230393039B002BE6
:1010200003D1019B02221A7002E0019B01221A7077
:10103000FFF786FF039B00BF00BF184605B05DF8B1
:1010400004FB00BFA45F00080000000000000000D7
:1010500000B585B00390029101920093FFF768FFFD
:10106000009B019A0299039800F00AF8FFF768FFC5
:1010700000BF05B05DF804FB0000000000000000A8
:1010800000B585B0039002910192009302F048FCF4
:10109000039B002B0CBF01230023DBB2002B07D1E5
:1010A000029B002B0CBF01230023DBB2002B01D0DD
:1010B000012300E00023002B07D1019B002B0CBF74
:1010C00001230023DBB2002B01D0012300E0002329
:1010D000002B07D1009B002B0CBF01230023DBB2A8
:1010E000002B01D0012300E00023002B16D1009B30
:1010F000012B14BF01230023DBB2002B0BD0009B7C
:1011000003F00103002B14BF01230023DBB2002BEB
:1011100001D0012300E00023002B02D0154802F08B
:101120008FFA039B1B78022B14BF01230023DBB231
:10113000002B0BD0039B1B78052B14BF012300232E
:10114000DBB2002B02D00B4802F07AFA039B019A23
:101150009A60039B009ADA60039B029A1A61039BD0
:1011600003221A70039800F0DBFF00BF05B05DF8A2
:1011700004FB00BFBC5F000800000000000000008E
:1011800000B583B072B600BF30230193019B83F397
:10119000118800BF62B600BF00BF02F0A1FA00BF15
:1011A00003B05DF804FB00BF000000000000000079
:1011B00000B583B002F0BCFA124B1B68114A93428F
:1011C00014BF01230023DBB2002B0FD00D4BDB68D3
:1011D0009A680C4B1B689B689A4234BF012300231A
:1011E000DBB2002B02D0084802F02AFA0023019358
:1011F000019B83F3118800BF00BF00BF03B05DF8FF
:1012000004FB00BF58090020DC5F0008000000005C
:1012100008B5FFF7B5FF00BF08BD00BF0000000024
:1012200008B5FFF7C5FF00BF08BD00BF0000000004
:1012300008B501F0A5FD00BF08BD00BF000000001B
:1012400082B00190019B01221A70019B00225A601A
:1012500000BF02B0704700BF0000000000000000A7
:1012600000B585B001900091019B002B0CBF0123BC
:101270000023DBB2002B07D1009B002B0CBF012306
:101280000023DBB2002B02D01A4802F0D9F9FFF795
:10129000BFFF019B1B78012B14BF01230023DBB28E
:1012A000002B0BD0019B1B78022B14BF01230023C2
:1012B000DBB2002B02D00F4802F0C2F9019B009A6A
:1012C0005A60019801F06CFD00230393039B002BEF
:1012D00003D1019B02221A7002E0019B01221A70C5
:1012E000FFF79EFF039B00BF00BF184605B05DF8E7
:1012F00004FB00BFD05F00080000000000000000F9
:1013000000B583B001900091FFF782FF009901982A
:1013100000F006F8FFF784FF00BF03B05DF804FBA0
:1013200000B583B00190009102F0FAFA019B002B06
:101330000CBF01230023DBB2002B02D00C4802F0CB
:101340007FF9019B1B78022B14BF01230023DBB222
:10135000002B02D0064802F073F9019B03221A7099
:101360000099019801F094FD00BF03B05DF804FB03
:10137000E85F00080000000000000000000000001E
:1013800000B583B072B600BF30230193019B83F395
:10139000118800BF62B600BF00BF02F0A1F900BF14
:1013A00003B05DF804FB00BF000000000000000077
:1013B00000B583B002F0BCF9124B1B68114A93428E
:1013C00014BF01230023DBB2002B0FD00D4BDB68D1
:1013D0009A680C4B1B689B689A4234BF0123002318
:1013E000DBB2002B02D0084802F02AF90023019357
:1013F000019B83F3118800BF00BF00BF03B05DF8FD
:1014000004FB00BF58090020346000080000000001
:1014100008B5FFF7B5FF00BF08BD00BF0000000022
:1014200008B5FFF7C5FF00BF08BD00BF0000000002
:1014300000B583B00190019804F082F900BF03B0B9
:101440005DF804FB00000000000000000000000048
:1014500000B583B0019000910099019804F0C8F99B
:1014600000BF03B05DF804FB0000000000000000B6
:1014700000B585B0039002910192039B03F1300007
:101480004FF0FF33019A0299FFF7BAFC0346184662
:1014900005B05DF804FB00BF000000000000000084
:1014A00000B585B0039002910192039B03F10C00FB
:1014B0004FF0FF33019A0299FFF7A2FB034618464B
:1014C00005B05DF804FB00BF000000000000000054
:1014D00000B583B001900B468DF80330019B30338B
:1014E0009DF803104FF0FF321846FFF701FC03464A
:1014F000184603B05DF804FB000000000000000087
:1015000000B583B00190019B0C334FF0FF311846BA
:10151000FFF736FB0346184603B05DF804FB00BF37
:1015200000B585B003900B4601928DF80B30039BFC
:1015300030339DF80B10019A1846FFF7D9FB03468C
:10154000184605B05DF804FB000000000000000034
:1015500000B583B001900091019B0C3300991846AF
:10156000FFF70EFB0346184603B05DF804FB00BF0F
:1015700000B585B00390029101920093039B03F1A3
:101580003000009B019A0299FFF73AFC0346184687
:1015900005B05DF804FB00BF000000000000000083
:1015A00000B585B00390029101920093039B03F173
:1015B0000C00009B019A0299FFF722FB0346184694
:1015C00005B05DF804FB00BF000000000000000053
:1015D00000B587B0039002910192039B0593059B90
:1015E000002B0CBF01230023DBB2002B02D01148DB
:1015F00002F026F8029B002B0ED0029B012B0ED18D
:10160000019B002B14BF01230023DBB2002B09D068
:10161000084802F015F805E06FF0130305E06FF0DD
:10162000130302E000BF002300BF184607B05DF8B7
:1016300004FB00BF24600008000000000000000060
:1016400008B501F0ADFD00BF08BD00BF00000000FF
:1016500000B583B00190019B064A1A60019B0433D8
:101660001846FFF7E5FE019B01221A7200BF03B086
:101670005DF804FBFC5F00080000000000000000B3
:1016800000B585B001900091019B002B0CBF012398
:101690000023DBB2002B02D0194801F0D1FFFFF785
:1016A000B7FE019B1B7A012B14BF01230023DBB281
:1016B000002B0BD0019B1B7A022B14BF01230023AC
:1016C000DBB2002B02D00E4801F0BAFF009901985E
:1016D00001F096FD00230393039B002B03D1019B94
:1016E00002221A7202E0019B01221A72FFF798FE91
:1016F000039B00BF00BF184605B05DF804FB00BFA8
:101700002C60000800000000000000000000000045
:1017100000B583B001900B468DF8033002F000F95C
:10172000019B002B0CBF01230023DBB2002B02D056
:10173000114801F085FF019B5B69002B05D1019BDE
:10174000043304211846FFF783FE019B0C339DF8F8
:10175000032011461846FFF7CBF90346002B06DAA3
:10176000019B04334FF400611846FFF771FE00BF80
:1017700003B05DF804FB00BF4060000800000000FB
:1017800082B001900091009BDBB2114A1B01D9B2DB
:10179000019B134403F540730A461A70019B03F042
:1017A0001F020B49019B5B09012000FA02F2603322
:1017B00041F82320019B03F01F020549019B5B09AF
:1017C000012000FA02F241F8232000BF02B0704766
:1017D00000E100E000000000000000000000000048
:1017E00000BF704700000000000000000000000083
:1017F00000BF704700000000000000000000000073
:1018000000BF704700000000000000000000000062
:1018100000BF704700000000000000000000000052
:1018200000BF704700000000000000000000000042
:1018300000BF704700000000000000000000000032
:1018400000BF704700000000000000000000000022
:1018500000BF704700000000000000000000000012
:1018600000BF704700000000000000000000000002
:1018700000BF7047000000000000000000000000F2
:1018800000BF7047000000000000000000000000E2
:1018900000BF7047000000000000000000000000D2
:1018A00000BF7047000000000000000000000000C2
:1018B00000BF7047000000000000000000000000B2
:1018C00000BF7047000000000000000000000000A2
:1018D00008B50C212520FFF753FF00BF08BD00BF4E
:1018E00008B5084802F03CF901F09AFF064801F0FB
:1018F000B7FC01F0D5FF034802F072F904F000FADA
:1019000000BF08BD50600008C808002000000000AB
:1019100000BF704700000000000000000000000051
:1019200000BF704700000000000000000000000041
:1019300000BF704700000000000000000000000031
:1019400000BF704700000000000000000000000021
:1019500000BF704700000000000000000000000011
:1019600000BF704700000000000000000000000001
:1019700000BF7047000000000000000000000000F1
:1019800000BF7047000000000000000000000000E1
:1019900008B507211C20FFF7F3FE00BF08BD00BFFC
:1019A00008B5084802F0DCF801F03AFF01F0C0F990
:1019B00001F076FF034802F013F904F0A1F900BF2B
:1019C00008BD00BF5C6000080000000000000000CF
:1019D00000BF704700000000000000000000000091
:1019E00008B507211E20FFF7CBFE00BF08BD00BFD2
:1019F00008B5084802F0B4F801F012FF064801F0FB
:101A000097FA01F04DFF034802F0EAF804F078F984
:101A100000BF08BD68600008B80800200000000092
:101A200000BF704700000000000000000000000040
:101A300000BF704700000000000000000000000030
:101A400000BF704700000000000000000000000020
:101A500000BF704700000000000000000000000010
:101A600008B5FFF7BDFEFFF7C3FEFFF7C9FEFFF79E
:101A7000CFFEFFF7D5FEFFF7DBFEFFF7E1FEFFF736
:101A8000E7FEFFF7EDFEFFF7F3FEFFF7F9FEFFF7C6
:101A9000FFFEFFF705FFFFF70BFFFFF711FFFFF753
:101AA0006FFFFFF775FFFFF793FFFFF799FFFFF752
:101AB000B7FFFFF7BDFFFFF7C3FFFFF7C9FFFFF752
:101AC00007FFFFF725FFFFF72BFFFFF731FFFFF7BA
:101AD00037FFFFF73DFFFFF743FFFFF749FF00BF69
:101AE00008BD00BF00000000000000000000000072
:101AF000144B1B68134A43F480731360124B1B6F23
:101B000003F44073B3F5807F06D00F4B4FF480325F
:101B10001A670D4B00221A670B4B1B6F0A4A43F0E2
:101B20001903136700BF084B1B6F03F00203002B60
:101B3000F9D0044B5B68034A23F40073536000BF81
:101B4000704700BF007000400038024000000000F5
:101B500008B51F4B1A691E491E4B13430B611C4BE2
:101B60001B691B4AC3F30A031361194B1B69184B0A
:101B70005B69174B4FF0FF325A61154B5B69144B91
:101B800000225A61124B5B69114B1B6A104A63F0C9
:101B9000805313620E4B1B6A0D4A03F0805313628D
:101BA0000B4B1B6A0A4B5B6A094B4FF0FF325A62C0
:101BB000074B5B6A064B00225A62054B5B6AFFF7D4
:101BC00097FF00F095FEFFF74BFF00BF08BD00BF79
:101BD0000038024000F8FFFF000000000000000095
:101BE00082B0504B4FF080521A644F4B4FF440423A
:101BF0001A604C4B1B684B4A43F00103136000BF53
:101C0000484B1B6803F00203002BF9D0454B9B683F
:101C1000444A23F00303936000BF424B9B6803F0E8
:101C20000C03002BF9D13F4B1B683E4A03F0F9032C
:101C300013603C4B00229A603A4B1B68394A43F4CC
:101C4000A023136000BF374B1B6803F40033002B45
:101C5000F9D0344B354A5A60324B1B68314A43F055
:101C60008073136000BF304B5B6803F48043002B2C
:101C7000F9D02D4B1B682C4A43F48033136000BF0E
:101C8000294B5B6803F48033002BF9D0264B1B688B
:101C9000254A43F40033136000BF234B5B6803F411
:101CA0000033002BF9D000BF1E4B1B6803F00073FC
:101CB000002BF9D01B4B1E4A9A6040F2011301938E
:101CC000184A019BC2F88C30164B0022C3F89020B2
:101CD000184B40F207321A6000BF164B1B6803F026
:101CE0000F03072BF9D10F4B9B680E4A43F00203F9
:101CF000936000BF0B4B9B6803F00C03082BF9D1DA
:101D0000084B5B6C074A43F480435364054B5B6E9E
:101D1000044A43F480435366024B5B6E00BF02B03B
:101D2000704700BF0038024000700040196C400945
:101D300000949930003C02400000000000000000C8
:101D400000B583B072B600BF30230193019B83F3CB
:101D5000118800BF62B600BF00BF00BF01F010FDD8
:101D600000BF03B05DF804FB0000000000000000AD
:101D700000B583B001F02CFD00230193019B83F398
:101D8000118800BF00BF00BF00BF03B05DF804FBB7
:101D900008B5FFF7D5FF00BF08BD00BF0000000079
:101DA00008B5FFF7E5FF00BF08BD00BF0000000059
:101DB00000B583B0019000910099019803F0D0FA2A
:101DC00000BF03B05DF804FB00000000000000004D
:101DD00000B583B001900091009B03F00C03002B31
:101DE0002DD0019800F03CFA019B1B699B68002BE9
:101DF00013D0019B05221A70019B1B699B6801216E
:101E000001989847019B1B78052B0CD1019B02225E
:101E10001A70019B00221A6105E0019B02221A70D0
:101E2000019B00221A61FFF7B3FF019B14334FF0AF
:101E3000FF311846FFF7BCFFFFF7B2FF5DE0019BE3
:101E40001B69002B59D0009B03F02003002B45D0C9
:101E5000019B1B691B78002B14D0019B1B695B68DD
:101E6000002B4AD0019B04221A70019B1B695B68FE
:101E700001989847019B1B78042B3ED1019B0322BC
:101E80001A703AE0019800F0EBF9019B1B695B685E
:101E9000002B12D0019B04221A70019B1B695B6806
:101EA00001989847019B1B78042B0CD1019B0222BF
:101EB0001A70019B00221A6105E0019B02221A7030
:101EC000019B00221A61FFF763FF019B143300217D
:101ED0001846FFF76DFFFFF763FF0EE0009B03F06E
:101EE0001003002B09D0019B1B695B68002B04D0F9
:101EF000019B1B695B680198984700BF03B05DF8C0
:101F000004FB00BF00000000000000000000000013
:101F100000B585B001900091019B1B69002B47D053
:101F200000230393009B03F02003002B07D0019BA9
:101F30001B78032B03D1039B43F002030393009B05
:101F400003F00103002B03D0039B43F0040303932E
:101F5000039B002B2CD0019800F082F9019B1B6998
:101F60009B68002B13D0019B05221A70019B1B69F3
:101F70009B68039901989847019B1B78052B0CD10E
:101F8000019B02221A70019B00221A6105E0019B4D
:101F900002221A70019B00221A61FFF7F9FE019BD1
:101FA00014334FF0FF311846FFF702FFFFF7F8FE3A
:101FB00000BF05B05DF804FB000000000000000059
:101FC00000B583B00C4801F0CBFD01F029FC0B4BB0
:101FD0001B680193094B00221A6001990848FFF71A
:101FE00097FF01F05DFC044801F0FAFD03F088FE64
:101FF00000BF03B05DF804FB7460000800200140DE
:1020000000080020000000000000000000000000A8
:1020100008B51048FEF7B4FF0E4B0F4A9A620D4BFD
:102020000022DA620B4B0D4A1A630D4B5B6A0C4AB5
:1020300043F4807353620A4B5B6A094A23F480734A
:102040005362074B5B6A06211220FFF799FB00BF22
:1020500008BD00BF0008002000200140162C02002F
:1020600000380240000000000000000000000000F6
:1020700000B583B00190019B1B78012B3FD1019BE0
:10208000214A934227D1019B204A06210C2000F0CF
:1020900067FC0246019BDA62019BDB6A002B0CBFE6
:1020A00001230023DBB2002B02D0194801F0C8FA4B
:1020B000019BDB6A1B68174A9A60174B5B6C164AD8
:1020C00043F480735364144B5B6E134A43F4807380
:1020D0005366114B5B6E114B5B6803F440030F4A70
:1020E00043F480335360019B9B6A00225A60019B3A
:1020F0009B6A00229A60019B9B6A01229A6000BF42
:1021000003B05DF804FB00BF00080020D11D2000D3
:10211000806000084C20014000380240002301404C
:1021200086B00190019B1B690393019B1B6B059378
:10213000039B1B78002B0FD0059B43F48073059302
:10214000019BDB68012B03D9059B43F00803059332
:102150004FF40073049301E000230493019B9A68F9
:10216000019BDB6A1B68DA60039B5B881946019B55
:10217000DA68019BDB6A1B6801FB02F25A60019B73
:10218000DB6A1B68059A1A60019BDB6A1B681A6888
:10219000019BDB6A1B6842F001021A60019B9B6A8B
:1021A00000221A60019B9B6A039A5269DA60019BC4
:1021B0009B6A039A92691A61039B9A8B019B9B6AA3
:1021C0005A62039BDA8B019B9B6A9A62039B1A6A91
:1021D000039B5B88013B1B051946019B9B6A0A43D5
:1021E000DA62019B9B6A039A526A1A63019B9B6A9B
:1021F000039A926A5A63039BD968019B9A6A134BAC
:102200000B435360039B1A69049B1A4340F201136A
:1022100013430493049B03F08043002B0ED0049AD5
:102220000B4B1340019A926A43F002039360019BA7
:102230009B6A049A42F002029A6003E0019B9B6A47
:10224000049A9A6000BF06B0704700BF0001000406
:10225000FDFFFFBF000000000000000000000000C4
:1022600082B00190019BDB6A1B681A68019BDB6AE4
:102270001B6822F01F021A60019BDB6A1B681B6847
:1022800003F00103002BF7D1019BDB6A5B7A19464F
:10229000019BDB6A5B683D228A401A60019B9B6A56
:1022A00000225A60019B9B6A9B6803F00203002B8B
:1022B00003D0019B9B6A00229A60019B9B6A0122CA
:1022C0009A6000BF02B070470000000000000000EC
:1022D000034B5B68024A43F40003536000BF70473E
:1022E000002301400000000000000000000000008A
:1022F00000B583B0114801F033FC01F091FA104BA6
:102300001B6803F03D0301930D4A019B93600D4B45
:102310005B68002B06D00B4B5B680A4A92680199F8
:102320001046984701F0BCFA044801F059FC03F04C
:10233000E7FC00BF03B05DF804FB00BF506100087C
:10234000006002403408002000000000000000008F
:1023500000B583B0124801F003FC01F061FA114BA3
:102360001B689B0903F03D0301930E4A019B9B01EF
:1023700093600D4BDB68002B06D00B4BDB680A4AE1
:10238000126901991046984701F08AFA044801F051
:1023900027FC03F0B5FC00BF03B05DF804FB00BFF1
:1023A0005C6100080060024034080020000000006A
:1023B00000B583B0124801F0D3FB01F031FA114BA4
:1023C0001B681B0C03F03D0301930E4A019B1B0489
:1023D00093600D4B5B69002B06D00B4B5B690A4A7F
:1023E000926901991046984701F05AFA044801F0A1
:1023F000F7FB03F085FC00BF03B05DF804FB00BFF2
:1024000068610008006002403408002000000000FD
:1024100000B583B0124801F0A3FB01F001FA114BA3
:102420001B689B0D03F03D0301930E4A019B9B0526
:1024300093600D4BDB69002B06D00B4BDB690A4A1E
:10244000126A01991046984701F02AFA044801F0EF
:10245000C7FB03F055FC00BF03B05DF804FB00BFF1
:102460007461000800600240340800200000000091
:1024700000B583B0114801F073FB01F0D1F9104BA6
:102480005B6803F03D0301930D4A019BD3600D4B44
:102490005B6A002B06D00B4B5B6A0A4A926A019971
:1024A0001046984701F0FCF9044801F099FB03F04D
:1024B00027FC00BF03B05DF804FB00BF806100088B
:1024C000006002403408002000000000000000000E
:1024D00000B583B0124801F043FB01F0A1F9114BA4
:1024E0005B689B0903F03D0301930E4A019B9B012E
:1024F000D3600D4BDB6A002B06D00B4BDB6A0A4A1C
:10250000126B01991046984701F0CAF9044801F08E
:1025100067FB03F0F5FB00BF03B05DF804FB00BFF1
:102520008C610008006002403408002000000000B8
:1025300000B583B0124801F013FB01F071F9114BA3
:102540005B681B0C03F03D0301930E4A019B1B04C7
:10255000D3600D4B5B6B002B06D00B4B5B6B0A4AB9
:10256000926B01991046984701F09AF9044801F0DE
:1025700037FB03F0C5FB00BF03B05DF804FB00BFF1
:10258000986100080060024034080020000000004C
:1025900000B583B0124801F0E3FA01F041F9114BA4
:1025A0005B689B0D03F03D0301930E4A019B9B0565
:1025B000D3600D4BDB6B002B06D00B4BDB6B0A4A59
:1025C000126C01991046984701F06AF9044801F02D
:1025D00007FB03F095FB00BF03B05DF804FB00BFF1
:1025E000A4610008006002403408002000000000E0
:1025F00000B583B0114801F0B3FA01F011F9104BA6
:102600001B6803F03D0301930D4A019B93600D4B42
:102610005B6C002B06D00B4B5B6C0A4A926C0199E9
:102620001046984701F03CF9044801F0D9FA03F04C
:1026300067FB00BF03B05DF804FB00BFB06100089A
:102640000064024034080020000000000000000088
:1026500000B583B0124801F083FA01F0E1F8114BA4
:102660001B689B0903F03D0301930E4A019B9B01EC
:1026700093600D4BDB6C002B06D00B4BDB6C0A4AD6
:10268000126D01991046984701F00AF9044801F0CB
:10269000A7FA03F035FB00BF03B05DF804FB00BFF1
:1026A000BC61000800640240340800200000000003
:1026B00000B583B0124801F053FA01F0B1F8114BA4
:1026C0001B681B0C03F03D0301930E4A019B1B0486
:1026D00093600D4B5B6D002B06D00B4B5B6D0A4A74
:1026E000926D01991046984701F0DAF8044801F01C
:1026F00077FA03F005FB00BF03B05DF804FB00BFF1
:10270000C861000800640240340800200000000096
:1027100000B583B0124801F023FA01F081F8114BA3
:102720001B689B0D03F03D0301930E4A019B9B0523
:1027300093600D4BDB6D002B06D00B4BDB6D0A4A13
:10274000126E01991046984701F0AAF8044801F06A
:1027500047FA03F0D5FA00BF03B05DF804FB00BFF1
:10276000D46100080064024034080020000000002A
:1027700000B583B0114801F0F3F901F051F8104BA6
:102780005B6803F03D0301930D4A019BD3600D4B41
:102790005B6E002B06D00B4B5B6E0A4A926E019962
:1027A0001046984701F07CF8044801F019FA03F04C
:1027B000A7FA00BF03B05DF804FB00BFE0610008AA
:1027C0000064024034080020000000000000000007
:1027D00000B583B0124801F0C3F901F021F8114BA4
:1027E0005B689B0903F03D0301930E4A019B9B012B
:1027F000D3600D4BDB6E002B06D00B4BDB6E0A4A11
:10280000126F01991046984701F04AF8044801F008
:10281000E7F903F075FA00BF03B05DF804FB00BFF1
:10282000EC61000800640240340800200000000051
:1028300000B583B0124801F093F900F0F1FF114B9D
:102840005B681B0C03F03D0301930E4A019B1B04C4
:10285000D3600D4B5B6F002B06D00B4B5B6F0A4AAE
:10286000926F01991046984701F01AF8044801F058
:10287000B7F903F045FA00BF03B05DF804FB00BFF1
:10288000F8610008006402403408002000000000E5
:1028900000B583B0124801F063F900F0C1FF114B9D
:1028A0005B689B0D03F03D0301930E4A019B9B0562
:1028B000D3600D4BDB6F002B07D00B4BDB6F0A4A4D
:1028C000D2F8802001991046984700F0E9FF0448AB
:1028D00001F086F903F014FA00BF03B05DF804FBC1
:1028E0000462000800640240340800200000000078
:1028F00082B0174B00221A600023019312E01549A1
:10290000019A13465B0013449B000B441B68002292
:102910001A600F4A019BDB00134400225A60019B9E
:1029200001330193019B0F2BE9D90B4B4FF0FF3281
:102930009A60094B4FF0FF32DA60084B4FF0FF32DC
:102940009A60064B4FF0FF32DA6000BF02B070476A
:1029500034080020906000080060024000640240DB
:1029600000B58BB0039002910192009300F0D8FF64
:10297000039B0F2B06D8039B0893039B0793089B8D
:1029800009937CE0434800F05BFE00237DE00122D8
:10299000099B02FA03F306933F4B1A68069B134008
:1029A000002B69D1099A13465B0013449B003B4AF4
:1029B00013440593384A099BDB001344019A5A607B
:1029C000354A099BDB001344009A9A60324B1A681F
:1029D000069B1343304A1360069BDBB2002B0DD0DD
:1029E0002F4B1B6B2E4A43F4001313632C4B1B6DB0
:1029F0002B4A43F400131365294B1B6D069B03F40C
:102A00007F43002B0DD0264B1B6B254A43F48003DC
:102A10001363234B1B6D224A43F480031365204B41
:102A20001B6D059B1B681A68059B1B6822F01F0223
:102A30001A6000BF059B1B681B6803F00103002B95
:102A4000F8D1059B5B7A1946059B5B683D228A405D
:102A50001A60059B1B6800221A60059B1B682122D7
:102A60005A61019B002B05D0059BDB7A0299184621
:102A7000FEF786FE059B08E0099B01330993099A3E
:102A8000079B9A4283D9002300BF18460BB05DF81C
:102A900004FB00BF106200083408002090600008AA
:102AA00000380240000000000000000000000000AC
:102AB00000BF7047000000000000000000000000A0
:102AC0008EB0039002910192019B03F003030D93DA
:102AD000019B9B0803F001030C93019BDB0803F0AF
:102AE00003030B93019B5B0903F003030A93019B10
:102AF000DB0903F00F03089300230993029B03F003
:102B00000103002B79D0099B03F007039B00089A6F
:102B100002FA03F307930122099B02FA03F30693D7
:102B2000099B5B00032202FA03F30593099B03F060
:102B300007039B000F2202FA03F30493039B5A68D6
:102B4000069BDB431A400C9B1A43039B5A60039B72
:102B50009A68059BDB431A400B9B1A43039B9A60C0
:102B6000039BDA68059BDB431A400A9B1A43039BCD
:102B7000DA60019B03F00303022B1FD1099B072B93
:102B800009D8039B1A6A049BDB431A40079B1A432C
:102B9000039B1A6208E0039B5A6A049BDB431A40BA
:102BA000079B1A43039B5A62039B1A68059BDB43EE
:102BB0001A400D9B1A43039B1A601EE0039B1A6880
:102BC000059BDB431A400D9B1A43039B1A60099B2C
:102BD000072B09D8039B1A6A049BDB431A40079B07
:102BE0001A43039B1A6208E0039B5A6A049BDB4367
:102BF0001A40079B1A43039B5A62029B5B0802938D
:102C0000029B002B0FD00C9B5B000C930B9B9B003B
:102C10000B930A9B9B000A930D9B9B000D93099BB2
:102C2000013309936AE700BF0EB07047000000004F
:102C300000B583B072B600BF30230193019B83F3CC
:102C4000118800BF62B600BF00BF00BF00F098FD52
:102C500000BF03B05DF804FB0000000000000000AE
:102C600000B583B000F0B4FD00230193019B83F312
:102C7000118800BF00BF00BF00BF03B05DF804FBB8
:102C800008B5FFF7D5FF00BF08BD00BF000000007A
:102C900008B5FFF7E5FF00BF08BD00BF000000005A
:102CA00008B500F005FD00BF08BD00BF0000000032
:102CB0001B4B1B6C1A4A43F001031364184B1B6E29
:102CC000174A43F001031366154B1B6E154B9B68A7
:102CD000144A43F0010393604FF0804342F62F22E1
:102CE0009A624FF080434FF0FF32DA624FF0804338
:102CF00000229A614FF0804300225A634FF08043D4
:102D00000022DA604FF0804300225A604FF0804387
:102D100001225A614FF0804301221A6000BF7047C0
:102D200000380240002004E0000000000000000025
:102D300000B583B04FF080430193019B1B69009362
:102D4000019BDB68DBB2009A13400093009BDA43DF
:102D5000019B1A61009B03F00203002B05D0FFF7D3
:102D60008FFFFFF79DFFFFF793FF00BF03B05DF8F4
:102D700004FB00BF00000000000000000000000095
:102D800008B5044B044ADA600248FEF759FA00BF5E
:102D900008BD00BFB8080020000800400000000087
:102DA00000B585B00190019B1B78012B22D1019BBE
:102DB000304A93421ED1304B1B6C2F4A43F0040320
:102DC00013642D4B1B6E2C4A43F0040313662A4BED
:102DD0001B6E294B1B6A284A43F004031362264BDF
:102DE0001B6A254A23F004031362234B1B6A019BD1
:102DF000224A9A60019B9A68019B5B681B68B2FB40
:102E0000F3F39BB2013BADF80E30BDF80E30013349
:102E10001A46019B5B681B6803FB02F2019B9B68DF
:102E20009A4214BF01230023DBB2002B02D01448C6
:102E300000F006FC019BDB6800221A60019B5A68C7
:102E4000019BDB6892685A60019BDB68BDF80E202D
:102E50009A62019BDB6800221A61019B5B68DA6859
:102E6000019BDB6822F0FF02DA6000BF05B05DF86D
:102E700004FB00BFB80800200038024000F36F06D2
:102E800020620008000000000000000000000000B8
:102E900000B583B001900091009B002B0CBF012373
:102EA0000023DBB2002B02D0144800F0C9FB019BC9
:102EB000DB68009A013ADA62019BDB6801225A6101
:102EC000019BDB6800225A62019BDB6800221A61C9
:102ED000019B5B685B68002B07D0019BDB68DA68AD
:102EE000019BDB6842F00102DA60019BDB6885220E
:102EF0001A6000BF03B05DF804FB00BF3062000839
:102F000082B00190019BDB6800221A60019BDB68A4
:102F100000221A61019BDB68DA68019BDB6822F002
:102F2000FF02DA6000BF02B0704700BF000000007F
:102F300000B585B00190019BDB681B690393019B81
:102F4000DB68DB68DBB2039A13400393019BDB6809
:102F5000039AD2431A61039B03F00103002B13D0A1
:102F6000019B1B78042B05D1019B02221A7001984A
:102F7000FFF7C6FF019B5B685B68002B04D0019BD9
:102F80005B685B680198984700BF05B05DF804FB7B
:102F900000B583B072B600BF30230193019B83F369
:102FA000118800BF62B600BF00BF00BF00F0E8FBA1
:102FB00000BF03B05DF804FB00000000000000004B
:102FC00000B583B000F004FC00230193019B83F360
:102FD000118800BF00BF00BF00BF03B05DF804FB55
:102FE00008B5FFF7D5FF00BF08BD00BF0000000017
:102FF00008B5FFF7E5FF00BF08BD00BF00000000F7
:1030000000B583B0019000910099019802F0F0FBA7
:1030100000BF03B05DF804FB0000000000000000EA
:1030200000B587B001900091019B5B6D0493019BFB
:103030009B6D0393009B1B685A08039B1A44009BDB
:103040001B68B2FBF3F30593009B5B6803F400433A
:10305000002B08D0059B23F007035A00059B03F0C3
:10306000070313430593059B4FF6FF7293428CBFF2
:1030700001230023DBB2002B02D0224800F0E0FA4B
:10308000049B059ADA60009B9B6843F04002049B16
:103090005A60009BDB6843F00102049B9A60009B2E
:1030A0005A6840F22D131343049A1360049B4FF0A7
:1030B000FF321A62009B5B6803F48063002B18D018
:1030C000009B5B6803F01023002B03D0B3F1805FFB
:1030D00005D009E0019B7F2283F85C200EE0019B74
:1030E0003F2283F85C2009E0019BFF2283F85C20EB
:1030F00004E0019BFF2283F85C20FFE700BF07B0DC
:103100005DF804FB546200080000000000000000AD
:1031100000B585B00190009100230393009B03F05C
:103120000803002B03D0039B43F480730393009B9D
:1031300003F00103002B03D0039B43F02003039310
:10314000009B03F00203002B03D0039B43F04003DA
:103150000393009B03F00403002B03D0039B43F075
:1031600080030393FFF73CFF019B04330399184648
:10317000FFF746FFFFF73CFF00BF05B05DF804FB1B
:1031800082B00190044B1B68034A43F0C0031360F4
:1031900000BF02B0704700BF0010014000000000F7
:1031A00000B583B00E48FEF753FA0D4B0093002391
:1031B00010220C490C48FDF773FC094B00930B4B94
:1031C00010220B490B48FDF76BFD054B0A4A5A6567
:1031D000034B0A4A9A6500BF03B05DF804FB00BFC9
:1031E000C808002028090020D408002081312000D0
:1031F00038090020F80800200010014000F36F0695
:1032000000B583B001900091009B002B01D1104BC1
:103210000093019B1B7A012B11D1019B0D4A934214
:103220000DD10D4B5B6C0C4A43F0100353640A4BF9
:103230005B6E094A43F010035366074B5B6E0099BF
:103240000198FFF7EDFE00BF03B05DF804FB00BF7F
:1032500044620008C8080020003802400000000056
:1032600000B587B00190019B5B6D0393039BDB6905
:103270000493039B049A1A62049B03F00F03002B30
:1032800003D004990198FFF743FF049B03F4807374
:10329000002B1ED0FFF7A4FE019B04334FF4806186
:1032A0001846FFF7ADFEFFF7A3FE12E0FFF798FE0A
:1032B000039B5B6ADAB2019B93F85C301340DBB28C
:1032C00019460198FEF724FAFFF792FE039BDB698B
:1032D0000493049B03F02003002BE7D1039B1B689E
:1032E0000593059B03F08003002B25D01FE0FFF71B
:1032F00077FE019B30331846FDF742FD0290029B9A
:10330000002B0CDA019B043308211846FFF778FEE6
:10331000059B23F080030593FFF76AFE0CE0029AF9
:10332000039B9A62FFF764FE039BDB690493049B93
:1033300003F08003002BDAD1059B03F04003002B40
:1033400024D0049B03F04003002B1FD0FFF748FE5E
:10335000019B5A6C019B9B6C9A4205D1019B9B6B14
:10336000002B01D0012300E0002303F00103DBB2B6
:10337000002B09D0019B043310211846FFF740FEB3
:10338000059B23F040030593FFF732FE039B059A4C
:103390001A6000BF07B05DF804FB00BF000000002A
:1033A00082B001900091009B5A68019B5A60009B7B
:1033B0009A68019B9A60009BDA68019BDA60009B27
:1033C0001A69019B5A61009B5A69019B1A62009B12
:1033D0009A69019B5A62009B1A68019B1A6000BFA0
:1033E00002B0704700000000000000000000000074
:1033F00008B5264B1A69254940F2FF7313430B6148
:10340000224B1A692149224B13400B611F4B1B6948
:103410001E4B1A6B1D4940F2FF7313430B631B4B8A
:103420001A6D1A4940F2FF7313430B65174B1B6D5E
:1034300018491948FFF7B4FF18491948FFF7B0FFBA
:1034400018491948FFF7ACFF18491948FFF7A8FFBA
:1034500018491948FFF7A4FF18491948FFF7A0FFBA
:1034600018491948FFF79CFF18491948FFF798FFBA
:1034700018491948FFF794FF18491948FFF790FFBA
:1034800018491948FFF78CFF00BF08BD00380240FB
:1034900000F8FFFF60620008000002407C62000844
:1034A000000402409862000800080240B46200086C
:1034B000000C0240D062000800100240EC620008DC
:1034C000001402400863000800180240246300084A
:1034D000001C024040630008002002405C630008BA
:1034E0000024024078630008002802400000000029
:1034F00008B5FFF77DFFFEF773FB00BF08BD00BFF7
:1035000000BF704700000000000000000000000045
:1035100000B58BB00190019B00221A6002AB1846E7
:1035200001F0CEFF0423099302AB184601F0E8FF37
:1035300002AB184601F0F4FF099B013B0993099B7C
:10354000002BF1D1029A019B1A6000BF0BB05DF80D
:1035500004FB00BF000000000000000000000000AD
:1035600000B583B000F0E4F8124B1B68114A934297
:1035700014BF01230023DBB2002B0FD00D4BDB68FF
:103580009A680C4B1B689B689A4234BF0123002346
:10359000DBB2002B02D0084800F052F80023019360
:1035A000019B83F3118800BF00BF00BF03B05DF82B
:1035B00004FB00BF58090020AC63000800000000B5
:1035C00008B502F09DF902F023FA02F0C1FA00BF3B
:1035D00008BD00BF00000000000000000000000067
:1035E00000B583B0114B01221A700023019308E04B
:1035F0000E4A019B9B00134400225A60019B013339
:103600000193019B002BF3D00948FFF781FFFFF7DF
:10361000D7FF0849084801F083FA044B02221A70C8
:10362000FFF79EFF00BF03B05DF804FB48090020D0
:10363000500900209863000858090020000000008D
:1036400000B583B0019072B600BF00BF019800F0D2
:1036500007FB044A019BC2F8E430034B03221A70B3
:10366000FEE700BF580900204809002000000000C4
:1036700000B583B00A4B5B680193019B9B68012BEB
:1036800014BF01230023DBB2002B02D00548FFF753
:10369000D7FF019B00BF00BF184603B05DF804FBD5
:1036A00058090020B8630008000000000000000076
:1036B00008B500F035F900F0F3FD00BF08BD00BF0C
:1036C00082B00190044BDA6B019B1343024AD3632F
:1036D00000BF02B0704700BF580900200000000082
:1036E00000B583B0104B0193019BD3F8E830002B59
:1036F00014BF01230023DBB2002B09D1019BD3F8B7
:10370000EC30002B14BF01230023DBB2002B02D0CE
:103710000648FFF795FF019B0122C3F8EC2000BF8C
:1037200003B05DF804FB00BF58090020CC6300081B
:1037300000B583B0104B0193019BD3F8E830002B08
:1037400014BF01230023DBB2002B09D1019BD3F866
:10375000EC30002BD4BF01230023DBB2002B02D0BE
:103760000648FFF76DFF019B0022C3F8EC2000BF65
:1037700003B05DF804FB00BF58090020D4630008C3
:1037800000B583B0104B0193019BD3F8E830002BB8
:10379000D4BF01230023DBB2002B09D1019BD3F856
:1037A000EC30002B14BF01230023DBB2002B02D02E
:1037B0000648FFF745FF019B0122C3F8EC2000BF3C
:1037C00003B05DF804FB00BF58090020DC6300086B
:1037D00000B583B0104B0193019BD3F8E830002B68
:1037E000D4BF01230023DBB2002B09D1019BD3F806
:1037F000EC30002BD4BF01230023DBB2002B02D01E
:103800000648FFF71DFF019B0022C3F8EC2000BF14
:1038100003B05DF804FB00BF58090020E463000812
:1038200000B585B01A4B039372B600BF30230293E4
:10383000029B83F3118800BF62B600BF00BF00BFC8
:10384000039BD3F8E830DB0FDBB2002B09D1039BDD
:10385000D3F8EC30002B14BF01230023DBB2002B84
:1038600002D00C48FFF7ECFE039BD3F8E8305A1C5B
:10387000039BC3F8E82000230193019B83F3118885
:1038800000BF00BF00BF00BF05B05DF804FB00BF74
:1038900058090020EC630008000000000000000050
:1038A00000B585B01B4B039372B600BF3023029363
:1038B000029B83F3118800BF62B600BF00BF00BF48
:1038C000039BD3F8E830002BD4BF01230023DBB2E5
:1038D000002B09D1039BD3F8EC30002B14BF01233C
:1038E0000023DBB2002B02D00B48FFF7A9FE039B9D
:1038F000D3F8E8305A1E039BC3F8E8200023019355
:10390000019B83F3118800BF00BF00BF00BF05B05B
:103910005DF804FB58090020F46300080000000073
:1039200000B583B00C4B0193019BD3F8E830DB0F5B
:10393000DBB2002B09D1019BD3F8EC30002BD4BFB4
:1039400001230023DBB2002B02D00448FFF778FEEE
:1039500000BF03B05DF804FB58090020FC630008B9
:1039600000B583B00E4B0193019BD3F8E830002BD8
:1039700014BF01230023DBB2002B09D1019BD3F834
:10398000EC30002BD4BF01230023DBB2002B02D08C
:103990000448FFF755FE00BF03B05DF804FB00BF0D
:1039A0005809002004640008000000000000000026
:1039B00008B5FCF7C5FE0346184608BD0000000028
:1039C00008B5FFF7F5FF0346184608BD00000000E4
:1039D00010B582B00190019BD3F8F440FFF7F0FFDF
:1039E00003466360114B5B68019AD2F8F42023F020
:1039F0007F41136861F31F231360019BD3F8F430F8
:103A000003F11002019BC3F8F420019BD3F8F420CA
:103A1000019B03F6F8039A4205D3019B03F1F802D8
:103A2000019BC3F8F42000BF02B010BD001000E0FD
:103A300084B00190019B4FF6E0721A80019B8022B6
:103A40005A80019B03F10802019B5A6000230393F3
:103A50000CE0019A039B1B01134403F10802137845
:103A60006FF302031370039B01330393039B7F2BBC
:103A7000EFD900BF00BF04B0704700BF00000000D6
:103A800000B585B001900091174B0393039BB3F8E9
:103A9000F03003F00103002B21D1039BD3F8F42075
:103AA0001378012161F302031370019B197F039BBB
:103AB000D3F8F4200B4603F01F03D9B2137861F357
:103AC000C7031370039BD3F8F430019A9A60039BE9
:103AD000D3F8F430009ADA600398FFF779FF00BF5B
:103AE00005B05DF804FB00BF58090020000000008D
:103AF00000B585B001900091174B0393039BB3F879
:103B0000F03003F00203002B22D1039BD3F8F42002
:103B10001378022161F302031370009B197F039B4A
:103B2000D3F8F4200B4603F01F03D9B2137861F3E6
:103B3000C7031370039BD3F8F430019A9A60039B78
:103B4000D3F8F430009A526BDA600398FFF740FF25
:103B500000BF05B05DF804FB58090020000000001C
:103B600000B587B001901C4B0593059BB3F8F0306E
:103B700003F00403002B2AD172B600BF3023039355
:103B8000039B83F3118800BF62B600BF00BF00BF74
:103B9000059BD3F8F4201378032161F3020313701B
:103BA000059BD3F8F42013786FF3C7031370059BBC
:103BB000D3F8F430019A9A600598FFF709FF0023C3
:103BC0000493049B83F3118800BF00BF00BF00BFB4
:103BD00007B05DF804FB00BF58090020000000009A
:103BE00000B587B001901C4B0593059BB3F8F030EE
:103BF00003F00403002B2AD172B600BF30230393D5
:103C0000039B83F3118800BF62B600BF00BF00BFF3
:103C1000059BD3F8F4201378042161F30203137099
:103C2000059BD3F8F42013786FF3C7031370059B3B
:103C3000D3F8F430019A9A600598FFF7C9FE002383
:103C40000493049B83F3118800BF00BF00BF00BF33
:103C500007B05DF804FB00BF580900200000000019
:103C600000B585B00190124B0393039BB3F8F0307D
:103C700003F00803002B16D1039BD3F8F42013782C
:103C8000052161F302031370039BD3F8F42013782A
:103C90006FF3C7031370039BD3F8F430019A9A6053
:103CA0000398FFF795FE00BF05B05DF804FB00BF69
:103CB0005809002000000000000000000000000083
:103CC00082B001900091019A009B1344184602B003
:103CD000704700BF0000000000000000000000006E
:103CE00082B001900091009A019BD31A184602B04D
:103CF000704700BF0000000000000000000000004E
:103D000082B00190019B1B68019A9A420CBF01236B
:103D10000023DBB2184602B0704700BF000000006D
:103D200082B001900091019B1B68009A9A420CBFDF
:103D300001230023DBB2184602B0704700000000E8
:103D400084B0039002910192029B019A9A60029BB7
:103D5000039A5A60029B5B681A68029B1A60029B76
:103D60001B68029A5A60039B029A1A6000BF04B053
:103D7000704700BF000000000000000000000000CD
:103D800084B0039002910192029B019A9A60029B77
:103D9000039A1A60029B1B685A68029B5A60029B36
:103DA0005B68029A1A60039B029A5A6000BF04B0D3
:103DB000704700BF0000000000000000000000008D
:103DC00000B587B0039002910192039B1B68059395
:103DD00013E0059A029B9A420CBF01230023DBB239
:103DE000002B02D01348FFF72BFC059B9B68019A20
:103DF000D31A0193059B1B680593059B9B68019A49
:103E00009A428CBF01230023DBB2002BE1D1019A3F
:103E100002990598FFF7B4FF059B9A68019BD21A97
:103E2000059B9A60039B4FF0FF329A6000BF07B07A
:103E30005DF804FB0C6400080000000000000000B6
:103E400084B00190019B1B680393039B1A68019B3C
:103E50001A60019B1B68019A5A60039B184604B0C4
:103E6000704700BF000000000000000000000000DC
:103E700082B00190019B5B68019A12681A60019BF5
:103E80001B68019A52685A60019B184602B070473D
:103E900000B583B001900198FCF75AFC00BF03B055
:103EA0005DF804FB000000000000000000000000BE
:103EB00008B5FCF765FC00BF08BD00BF00000000AE
:103EC00000B583B001900198FCF762FC00BF03B01D
:103ED0005DF804FB0000000000000000000000008E
:103EE00008B5FCF72DFC0346184608BD000000008D
:103EF00000B583B072B600BF30230193019B83F3FA
:103F0000118800BF62B600BF00BF00BFFFF738FCDA
:103F100000BF03B05DF804FB0000000000000000DB
:103F200000B583B0FFF754FC00230193019B83F39A
:103F3000118800BF00BF00BF00BF03B05DF804FBE5
:103F400008B5FFF7CDFF0346184608BD0000000086
:103F500000B583B00190FFF7E3FC019B1B68002BC9
:103F600014BF01230023DBB2184603B05DF804FB45
:103F700000B589B0039002910192039B1B690793DE
:103F8000019A079B9A4201D2079B019301990298DB
:103F9000FFF796FE03461846FFF792FFFFF7D0FFA4
:103FA000069006990298FFF79BFE0590059A019BE3
:103FB0009A4234BF01230023DBB2002B07D1079BB9
:103FC00001330793069B0293079B0193DEE700BF33
:103FD000039B1B69079A9A4205D9039B079A1A61AA
:103FE0000120FFF76DFB00BF09B05DF804FB00BFC7
:103FF00000B587B00390029101920093039B019A50
:10400000DA60039B0299009A1846FFF799FE039B1A
:104010001B690593009A059B9A4201D2059B009368
:10402000039BDB6800991846FFF74AFE03461846D3
:10403000FFF72EFFFFF784FF049004990198FFF724
:104040004FFE0246009B93428CBF01230023DBB24C
:10405000002B0FD1059B0133059305990198FFF7BC
:104060002FFE03461846FFF72BFF049B0193059B89
:104070000093DFE700BF039B1B69059A9A4205D9AD
:10408000039B059A1A610120FFF71AFB00BF07B0D6
:104090005DF804FB000000000000000000000000CC
:1040A00000B589B0039002910192FFF749FF069095
:1040B000039B1846FFF724FE0346002B06D0019B06
:1040C000069A02990398FFF793FF21E0039BDB68B0
:1040D00006991846FFF704FE0590059A019B1344C4
:1040E0000793079A059B9A4201D2019B0793039B72
:1040F0001B689B68079A9A4204D2019A0699039812
:10410000FFF736FF039B0299079A1846FFF758FE00
:1041100009B05DF804FB00BF0000000000000000D3
:1041200000B587B003900291019200931A4B05935A
:10413000FFF7F6FB039B002B0CBF01230023DBB230
:10414000002B07D1019B002B0CBF01230023DBB206
:10415000002B01D0012300E00023002B07D1029B9C
:10416000002B0CBF01230023DBB2002B02D00B4835
:10417000FFF766FA039B009A1A61039B019ADA60C3
:10418000039B00225A61029A03990598FFF788FF62
:1041900000BF07B05DF804FB680900201C6400083C
:1041A00000B587B001903B4B0593FFF7B9FB019B2E
:1041B000002B0CBF01230023DBB2002B02D03648BA
:1041C000FFF73EFA0198FFF7C3FE034683F00103B1
:1041D000DBB2002B02D03048FFF732FA059B019A80
:1041E00011461846FFF79CFD034683F00103DBB23E
:1041F000002B14D0019B1846FFF73AFE019B1B6869
:104200009968019B9A68019B1B680A449A60019B0C
:1042100000221A60059B4FF0FF329A6036E0059B42
:104220001846FFF70DFE019B00221A60059B1846F9
:10423000FFF766FD0346002B02D0FFF739FE25E0AD
:10424000059B1B689968019B9A68059B1B680A443B
:104250009A60FFF775FE0490059BDB680499184689
:10426000FFF73EFD0390059B1B689B68039A9A42EB
:104270000BD2059B1B689A68039BD31A0293029A80
:1042800004990598FFF774FE00E000BF07B05DF8E1
:1042900004FB00BF6809002028640008000000003B
:1042A00000B589B04F4B0593FFF73AFB059B1B68A0
:1042B0000493FFF745FE0390059BDB6803991846BE
:1042C000FFF70EFD0290049B9B68029A9A4269D305
:1042D000059BDA68049B9B6819461046FFF7F0FCC3
:1042E0000190059B019ADA60049B1846FFF7C0FD18
:1042F000049B00221A60059B1846FFF701FD034648
:10430000002B01D0FFF7D4FDFFF70AFE049BDB680A
:10431000049A1269114604989847FFF7E9FD049B37
:104320005B69002B14BF01230023DBB2002BBDD03F
:10433000FFF706FE039003990198FFF7D1FC029066
:10434000049B5B69029A9A4208D92748FFF778F9DB
:104350000220FFF7B5F90023069304E0049B5A6995
:10436000029BD31A0693059B1846FFF7C9FC034628
:10437000002B06D0069B039A04990598FFF738FE98
:104380002DE0029A069B13440793079A029B9A42D8
:1043900001D2069B0793059B0499079A1846FFF7DD
:1043A0000FFD83E700BF059B1846FFF7A9FC0346F6
:1043B000002B13D1059BDA68029B1A44059BDA6037
:1043C000049B9A68029BD21A049B9A60049B9B6888
:1043D0001A4603990598FFF7CBFD00E000BF09B02E
:1043E0005DF804FB68090020386400080000000044
:1043F00082B00190019B5B68019A12681A60019B70
:104400001B68019A52685A60019B184602B07047B7
:1044100084B00190019B1B680393039B1A68019B66
:104420001A60019B1B68019A5A60039B184604B0EE
:10443000704700BF00000000000000000000000006
:1044400082B001900091019B1B680193019B9A68C7
:10445000009B9B689A422CBF01230023DBB2002BF8
:10446000F1D1009B019A1A60019B5A68009B5A6027
:10447000009B5B68009A1A60019B009A5A60009B3F
:10448000184602B0704700BF0000000000000000A6
:1044900082B001900091019B1B680193019B9A6877
:1044A000009B9B689A428CBF01230023DBB2002B48
:1044B000F1D1009B019A1A60019B5A68009B5A60D7
:1044C000009B5B68009A1A60019B009A5A60009BEF
:1044D000184602B0704700BF000000000000000056
:1044E00000B583B072B600BF30230193019B83F304
:1044F000118800BF62B600BF00BF00BFFFF740F9E0
:1045000000BF03B05DF804FB0000000000000000E5
:1045100000B583B0FFF75CF900230193019B83F39F
:10452000118800BF00BF00BF00BF03B05DF804FBEF
:1045300000B583B00190FFF7F3F9019B1B68002BD6
:1045400014BF01230023DBB2184603B05DF804FB5F
:1045500000B583B00190FFF7E3F9019B9B685A1CFB
:10456000019B9A6000BF03B05DF804FB00000000EF
:1045700000B583B00190019B1B7F002B0CBF012372
:104580000023DBB2002B08D1019B1B7F0F2B0CBF3C
:1045900001230023DBB2002B02D00D48FFF750F8B7
:1045A000019B5B6B19460198FFF76AFA019B002299
:1045B0001A77019B1B691A46019B19461046FFF7A3
:1045C0003FFF034600BF00BF184603B05DF804FB81
:1045D000546400080000000000000000000000001B
:1045E00000B583B00190019B1B7F002B0CBF012302
:1045F0000023DBB2002B08D1019B1B7F0F2B0CBFCC
:1046000001230023DBB2002B02D00D48FFF718F87E
:10461000019B5B6B19460198FFF732FA019B002260
:104620001A77019B1B691A46019B19461046FFF732
:104630002FFF034600BF00BF184603B05DF804FB20
:104640006864000800000000000000000000000096
:1046500000B585B001900091009B0393FFF740FFE8
:10466000039B1B7F0C2B2FD801A252F823F000BF15
:10467000A5462000C9462000C9462000AB462000C0
:10468000BF462000B5462000C9462000BF46200096
:10469000C9462000C9462000C9462000C94620005E
:1046A000BF462000FFF734FF19E0039B5B6B00223D
:1046B0001A600AE0039B5B6B1846FFF749FF039BF8
:1046C0001846FFF795FE00E000BF039B4FF0FF3256
:1046D0005A630398FFF74CFFFFF71AFF00BF05B0BE
:1046E0005DF804FB00000000000000000000000076
:1046F00000B583B00190FFF713F9019B002B0CBFAD
:1047000001230023DBB2002B02D00648FEF798FFFE
:104710000198FFF72DFF034600BF00BF184603B006
:104720005DF804FB7C64000800000000000000004D
:1047300000B589B003468DF80730264B0793079BD9
:10474000DB680693FFF70CF9FEF792FF0246069B23
:1047500093420CBF01230023DBB2002B02D01E4882
:10476000FEF76EFF069B1B69079A9A4214BF01234E
:104770000023DBB2002B02D01748FEF761FF069B37
:104780009DF807201A77079B1846FFF741FE059012
:10479000059B01221A77079B059ADA60069905980E
:1047A000FFF7A6F9EFF309830393039B00BF04937C
:1047B000049BA3F12402069B5B699A4202D207483C
:1047C000FEF73EFF06990598FBF78AFD00BF09B08A
:1047D0005DF804FB58090020886400084464000860
:1047E00000B58BB0034600918DF80730164BDB689F
:1047F0000993FFF7B5F8009BB3F1FF3F16D003A86C
:10480000099B124A0099FFF78BFC9DF80730184668
:10481000FFF78EFF03AB1846FFF78AFE0346002B17
:1048200009D003AB1846FFF7BBFC04E09DF8073046
:104830001846FFF77DFF099B5B6B00BF00BF184662
:104840000BB05DF804FB00BF580900205146200062
:1048500000B587B0019000912C4B0593059BDB6858
:104860000493FFF77DF8059B1A68059B9A4214BFD5
:1048700001230023DBB2002B0FD0059BDB689A6875
:10488000059B1B689B689A4234BF01230023DBB25F
:10489000002B02D01E48FEF7D3FE019B009A5A63FC
:1048A000019B9A68049B9B689A4294BF0123002352
:1048B000DBB2002B03D00198FFF75AFE21E00498E9
:1048C000FFF78EFE0490019B01221A77059B019A47
:1048D000DA6004990198FFF70BF9EFF3098302936B
:1048E000029B00BF0393039BA3F12402049B5B691B
:1048F0009A4202D20748FEF7A3FE04990198FBF7FB
:10490000EFFC00BF07B05DF804FB00BF58090020B2
:1049100098640008446400080000000000000000E3
:1049200084B00B4B0393039BDB680293039B1B68D0
:104930009B680193029B9B680093019A009B9A429B
:104940008CBF01230023DBB2184604B0704700BFC0
:1049500058090020000000000000000000000000D6
:1049600000B587B0174B0593059BDB680493059B47
:104970001846FFF74DFD0390039B01221A77059B14
:10498000039ADA600498FFF72BFE049004990398C9
:10499000FFF7AEF8EFF309830193019B0293029BAB
:1049A000A3F12402049B5B699A4202D20648FEF7F7
:1049B00047FE04990398FBF793FC00BF07B05DF82E
:1049C00004FB00BF580900204464000800000000F8
:1049D00082B00190019B00221A6000BF02B07047B4
:1049E00082B00190019B00221A60019B00225A6054
:1049F000019B01229A6000BF02B0704700000000D6
:104A000082B00190019B019A1A60019B019A5A6041
:104A100000BF02B0704700BF0000000000000000AF
:104A200082B001900091009B019A1A60019B5A6824
:104A3000009B5A60009B5B68009A1A60019B009A79
:104A40005A6000BF02B07047000000000000000084
:104A500082B00190019B019A1A60019B019A5A60F1
:104A6000019B00229A6000BF02B070470000000066
:104A700082B00190019B019A1A60019B019A5A60D1
:104A8000019B4FF0FF329A6000BF02B0704700BF39
:104A900008B5FBF755FE0346184608BD00000000A8
:104AA00008B5FFF7F5FF0346184608BD00000000F3
:104AB00030B583B00190019B1846FFF7D9FF019BE9
:104AC0000022DA60019B02221A61FFF7E9FF034628
:104AD00000221C461546019BC3E9064500BF03B0F2
:104AE00030BD00BF0000000000000000000000001A
:104AF00000B583B00190019B1846FFF781FF00BF0E
:104B000003B05DF804FB00BF0000000000000000DF
:104B100082B0019000BFFDE700000000000000002F
:104B200000B593B00190009100231193414A119B6D
:104B30009B0013445B68002B14BF01230023DBB2EE
:104B4000002B02D03C48FEF77BFD3A4A119B9B00AC
:104B50001344019A5A60019B119A9A63019B009A2F
:104B60001A64019801F094F8019B1846FFF770FF52
:104B7000019B30331846FFF7BBFF019B3C331846BF
:104B8000FFF726FF019B10331846FFF791FF019BAB
:104B9000E4331846FFF724FF019BF0331846FEF775
:104BA00047FF264B0393009B5B680493009B9B6825
:104BB0000593802306930023079300230893019B0A
:104BC0000993019B943303AA1146184600F078F923
:104BD0000246019BDA60019B03F13002019BDB6816
:104BE000243319461046FFF71BFF019BDB680122A7
:104BF0001A77134B0A93009BDB680B93009B1B698E
:104C00000C9301230D930F4B0E9300230F93019BE5
:104C100010930B9B0C9A1146184600F039F9019B32
:104C200044330AAA1146184600F042FA00BF13B0F6
:104C30005DF804FB48090020B8640008A864000877
:104C4000B0640008114B20000000000000000000CC
:104C500082B00190019B019A1A6000BF02B07047B8
:104C600082B00190019B1B68019A9A4214BF0123F4
:104C70000023DBB2184602B0704700BF00000000FE
:104C800084B00190019B1B680393039B1A68019BEE
:104C90001A60039B184604B0704700BF0000000074
:104CA00082B00190019B019A1A60019B019A5A609F
:104CB00000BF02B0704700BF00000000000000000D
:104CC00082B00190019B1B68019A9A4214BF012394
:104CD0000023DBB2184602B0704700BF000000009E
:104CE00082B001900091009B019A1A60019B5A6862
:104CF000009B5A60009B5B68009A1A60019B009AB7
:104D00005A6000BF02B070470000000000000000C1
:104D100084B00190019B1B680393039B1A68019B5D
:104D20001A60019B1B68019A5A60039B184604B0E5
:104D3000704700BF000000000000000000000000FD
:104D400082B00190019B5B68019A12681A60019B16
:104D50001B68019A52685A60019B184602B070475E
:104D600000B583B072B600BF30230193019B83F37B
:104D7000118800BF62B600BF00BFFEF7B1FC00BFE4
:104D800003B05DF804FB00BF00000000000000005D
:104D900000B583B0FEF7CCFC124B1B68114A93425E
:104DA00014BF01230023DBB2002B0FD00D4BDB68B7
:104DB0009A680C4B1B689B689A4234BF01230023FE
:104DC000DBB2002B02D00848FEF73AFC0023019327
:104DD000019B83F3118800BF00BF00BF03B05DF8E3
:104DE00004FB00BF58090020006500080000000017
:104DF000014BDB681846704758090020000000008E
:104E000000B583B00190019B002B0CBF0123002350
:104E1000DBB2002B02D00548FEF712FC01990820F6
:104E2000FFF7DEFC00BF03B05DF804FB3C65000843
:104E300000B585B001900091019B1846FFF740FF37
:104E4000034683F00103DBB2002B02D00E48FEF7CD
:104E5000F7FB019B1846FFF75BFF0390039B1B7F4B
:104E6000042B14BF01230023DBB2002B02D0064821
:104E7000FEF7E6FB039B009A5A630398FFF738FCA2
:104E800000BF05B05DF804FB70650008000000007D
:104E900082B001900091019B5A1C019255221A7018
:104EA000019A009B9A4234BF01230023DBB2002BFE
:104EB000F1D100BF00BF02B0704700BF000000008A
:104EC00000B583B001900091019B002B0CBF012322
:104ED0000023DBB2002B02D02948FEF7B1FB009B78
:104EE000002B0CBF01230023DBB2002B02D024488F
:104EF000FEF7A6FB009B5A68019B5A61009B9A68CB
:104F0000019B9A61009BDA68019B9A60019B0222D7
:104F10001A77019B00225A77009B9B69002B04D0D3
:104F2000009B9A69019B1A6102E0019B154A1A6174
:104F3000019B0022DA62019B00221A63019B383335
:104F40001846FFF785FE009BDA68019BDA64019B37
:104F500000229A64019B00225A64019B01229A77E5
:104F6000009B1A68019B1A62019B3C331846FFF7AD
:104F700097FE019B00BF00BF184603B05DF804FB1D
:104F8000D86400085809002000000000000000005C
:104F900000B583B001900091019B002B0CBF012351
:104FA0000023DBB2002B02D03F48FEF749FB009BF9
:104FB000002B0CBF01230023DBB2002B02D03A48A8
:104FC000FEF73EFB009B002B0CBF01230023DBB24E
:104FD000002B0AD1009B5B6803F01F03002B14BF5A
:104FE00001230023DBB2002B01D0012300E00023CA
:104FF000002B0AD1009B9B6803F01F03002B14BFFA
:1050000001230023DBB2002B01D0012300E00023A9
:10501000002B0AD1009B9A68009B5B689A4294BF60
:1050200001230023DBB2002B01D0012300E0002389
:10503000002B0CD1009B9B681A46009B5B68D31A1F
:10504000BF2B94BF01230023DBB2002B02D01648F4
:10505000FEF7F6FA00990198FFF732FF0190019BE5
:105060009B69A3F12402019BDA60009B1A69019BF2
:10507000DB681A60009B5A69019BDB685A60019BE0
:10508000DB680A4A1A62019B1B6903F13002019B2B
:10509000243319461046FFF723FE019B00BF00BFD3
:1050A000184603B05DF804FBE8640008F102200034
:1050B00000B583B00190009100990198FFF768FF57
:1050C00003461846FFF714FB0346184603B05DF885
:1050D00004FB00BF00000000000000000000000012
:1050E00000B591B00390029101920093039B002BB5
:1050F0000CBF01230023DBB2002B09D1029B40F23D
:105100001F12934294BF01230023DBB2002B02D075
:105110004248FEF795FA019BFF2B8CBF0123002329
:10512000DBB2002B07D1009B002B0CBF0123002317
:10513000DBB2002B02D03948FEF782FA039800F068
:10514000AFFA0346002B14BF01230023DBB2002B70
:1051500002D03248FEF774FA039A029B13440F936D
:10516000039B0E930F9B603B0D930E9B03F01F035D
:10517000002B14BF01230023DBB2002B09D10D9BB0
:1051800003F01F03002B14BF01230023DBB2002B0D
:1051900002D02248FEF754FA0D990E98FFF778FED8
:1051A0001F4B0593039B06930F9B0793019B08934B
:1051B000009B0993129B0A931A4B0B9305AB19465C
:1051C0000D98FFF77DFE0C900C9BA3F124020C9B25
:1051D000DA600C9BDB68009A1A600C9BDB68129A01
:1051E0005A600C9BDB68104A1A62FFF7B9FD0C9BF2
:1051F0001B6903F130020C9B243319461046FFF75C
:105200006FFD00210C98FFF723FBFFF7C1FD0C9BFE
:1052100000BF184611B05DF804FB00BF0C65000824
:10522000D064000858090020F102200000000000AE
:1052300000B583B00190FFF793FD019B9B7F002B8E
:105240000CBF01230023DBB2002B02D01348FEF772
:10525000F7F9019B9B7F013BDAB2019B9A77019B97
:105260009B7F002B13D1019B1B7F0F2B0FD1019B29
:1052700024331846FFF764FDFFF78AFD019BDB6AC4
:10528000002B07D0019BDB6A0198984702E0FFF7EB
:105290007FFD00E000BF03B05DF804FB206500085F
:1052A00000B583B00190FFF75BFD019800F008F8AE
:1052B00000BF03B05DF804FB000000000000000028
:1052C00000B585B00190FFF793FD0390039B019A11
:1052D0005A6308E0039B38331846FFF7D1FC0346B6
:1052E0001846FFF705FA039B38331846FFF7B8FC5A
:1052F0000346002BEED1039B9B7F002B0CBF0123A9
:105300000023DBB2002B08D0039BDB6A002B04D107
:10531000039B24331846FFF713FD0F20FFF708FA0D
:105320000348FEF78DF900BF05B05DF804FB00BF30
:1053300030650008000000000000000000000000D0
:1053400000B583B00190FFF70BFD0198FFF758FD02
:10535000FFF71EFD00BF03B05DF804FB0000000076
:1053600000B585B001900091019B1B68002B17D000
:10537000019B1B680393039B1B7F032B14BF01231B
:105380000023DBB2002B02D00748FEF759F9019B3E
:1053900000221A60039B009A5A630398FFF7A8F94A
:1053A00000BF05B05DF804FB486500080000000080
:1053B00000B583B00190019B002B0CBF012300239B
:1053C000DBB2002B02D00548FEF73AF9019B1846E4
:1053D000FFF766FC00BF03B05DF804FB58650008EA
:1053E00000B585B001900091FFF702FD0390009B8E
:1053F000002B0CBF01230023DBB2002B02D04FF0A7
:10540000FF3309E0019B03991846FFF769FC0099F7
:105410000420FFF7E5F90346184605B05DF804FBE4
:1054200000B583B001900091019B1846FFF748FC3E
:105430000346002B03D000990198FFF7F9FC00BF49
:1054400003B05DF804FB00BF000000000000000096
:10545000F0B484B0039002910192039BDB685A1C64
:10546000039BDA60039B9B68029AD21A019BD21AB3
:10547000039B9A60039BD3E9042303998968002066
:105480000C460546161943EB0507039BC3E9046761
:10549000039B9A68039B5B689A4203D9039B9A68B3
:1054A000039B5A60039B9A68039B1B689A4203D232
:1054B000039B9A68039B1A6000BF04B0F0BC70475E
:1054C00082B00190019B4FF0FF321A60019B0022D5
:1054D0005A60019B00229A60019B0022DA600199C8
:1054E0004FF000024FF00003C1E9042300BF02B0F7
:1054F000704700BF00000000000000000000000036
:1055000082B00190034B5A68019B9A6000BF02B0C1
:10551000704700BF001000E0000000000000000025
:1055200000B583B00190064B5B68064A9268194645
:105530000198FFF78DFF00BF03B05DF804FB00BFCB
:10554000001000E0480900200000000000000000FA
:1055500000B583B072B600BF30230193019B83F383
:10556000118800BF62B600BF00BFFEF7B9F800BFE8
:1055700003B05DF804FB00BF000000000000000065
:1055800000B583B0FEF7D4F8124B1B68114A934262
:1055900014BF01230023DBB2002B0FD00D4BDB68BF
:1055A0009A680C4B1B689B689A4234BF0123002306
:1055B000DBB2002B02D00848FEF742F8002301932B
:1055C000019B83F3118800BF00BF00BF03B05DF8EB
:1055D00004FB00BF5809002084650008000000009B
:1055E00082B00190019B5B69184602B0704700BF12
:1055F00000B583B0FFF7ACFF094B1B6B0193019B18
:10560000243B0093009B9B7F0133DAB2009B9A7787
:10561000FFF7B6FF009B184603B05DF804FB00BF20
:1056200058090020000000000000000000000000F9
:1056300000B587B00190FFF78BFF019B5B6A049375
:10564000049B144A934202D10023059316E0049B65
:105650000393039B243B0593059B9B7FFF2B0CBF70
:1056600001230023DBB2002B02D00B48FDF7E8FF3B
:10567000059B9B7F0133DAB2059B9A77FFF780FF8A
:105680000198FFF7D5FD059B00BF00BF184607B086
:105690005DF804FB88090020906500080000000008
:1056A00000B585B00190FFF7A3FF03900398FFF7C3
:1056B00097FF0246019B934201D1039B07E00398A9
:1056C000FFF7B6FF0390039B002BEFD10023184692
:1056D00005B05DF804FB00BF000000000000000002
:1056E00082B00190019B019A1A60019B019A5A6055
:1056F00000BF02B0704700BF0000000000000000C3
:1057000000B583B00190019B002B0CBF0123002347
:10571000DBB2002B02D00748FDF792FF019B184631
:10572000FFF7DEFF019B00229A6000BF03B05DF827
:1057300004FB00BFA065000800000000000000009E
:1057400000B583B00190019B002B0CBF0123002307
:10575000DBB2002B02D00548FDF772FF019B019AD6
:105760001A6000BF03B05DF804FB00BFB06500081D
:1057700000B583B001900091FEF7D2F8019B002B99
:105780000CBF01230023DBB2002B02D01548FDF72C
:1057900057FF019B5A6C009B1A43019B5A64019B63
:1057A0001B7F0A2B06D1019B5A6C019B5B6B13403C
:1057B000002B0CD1019B1B7F0B2B0ED1019B5A6C34
:1057C000019B5B6B1A40019B5B6B9A4205D1019B6D
:1057D00000225A630198FEF78BFF00BF03B05DF80B
:1057E00004FB00BFC06500080000000000000000CE
:1057F00000B585B001900091FEF792F8019B002B57
:105800000CBF01230023DBB2002B02D01448FDF7AC
:1058100017FF019B1B68039319E0039BDA68009B49
:105820001A43039BDA60009B002B05D0039B1A6987
:10583000009B1340002B07D0039B5A68039B9B6877
:1058400019461046FFF794FF039B1B680393039AC6
:10585000019B9A42E1D100BF00BF05B05DF804FB97
:10586000D0650008000000000000000000000000FB
:1058700000B583B072B600BF30230193019B83F360
:10588000118800BF62B600BF00BFFDF729FF00BF4F
:1058900003B05DF804FB00BF000000000000000042
:1058A00000B583B0FDF744FF124B1B68114A9342C9
:1058B00014BF01230023DBB2002B0FD00D4BDB689C
:1058C0009A680C4B1B689B689A4234BF01230023E3
:1058D000DBB2002B02D00848FDF7B2FE0023019393
:1058E000019B83F3118800BF00BF00BF03B05DF8C8
:1058F00004FB00BF58090020FC6500080000000000
:10590000034B044A1A60024B034A5A6000BF7047B7
:1059100060130020000001200000052000000000AE
:1059200000B587B0039002910192FDF7F9FF029B49
:10593000002B0CBF01230023DBB2002B0AD1029BFA
:105940005A1E029B1340002B14BF01230023DBB21D
:10595000002B02D01348FDF773FE134B5A68039BCC
:105960005B4213441A46029B5B4213400593019B22
:105970005B42059A134404930B4B1B68049A9A42AA
:1059800004D3094B5B68049A9A4201D9002304E0CE
:10599000054A049B5360059B00BF184607B05DF89D
:1059A00004FB00BFE8650008601300200000000051
:1059B00000B587B0039002910192FFF759FF019A59
:1059C00002990398FFF7ACFF0590FFF769FF059B6D
:1059D000184607B05DF804FB00000000000000005E
:1059E00082B00190074B1A68019B1A60054B5A68F8
:1059F000044B1B68D31A1A46019B5A6000BF02B0C1
:105A0000704700BF6013002000000000000000008D
:105A100008B5084B084A1A600848FFF7E1FF054B34
:105A20000022DA60034B00221A610548FFF768FE86
:105A300000BF08BD68130020B15920006C1300207E
:105A40007C130020000000000000000000000000A7
:105A500000B585B00390029101920093039B002B47
:105A60000CBF01230023DBB2002B07D1029B032BC9
:105A700094BF01230023DBB2002B01D0012300E0FF
:105A80000023002B07D1019B032B94BF012300238C
:105A9000DBB2002B01D0012300E00023002B17D143
:105AA000019B002B0CBF01230023DBB2002B0AD18A
:105AB000019B5A1E019B1340002B14BF012300239E
:105AC000DBB2002B01D0012300E00023002B02D029
:105AD0000948FDF7B5FD039B00221A60039B029A5B
