:020000040800F2
:10000000000400201D0320001F0320001F03200008
:100010001F0320001F0320001F0320001F032000D8
:100020001F0320001F0320001F0320007170200009
:100030001F0320001F0320001F0320001F032000B8
:100040001F0320001F0320001F0320001F032000A8
:100050001F0320001F0320001F0320001F03200098
:100060001F0320001F0320001F0320001F03200088
:100070001F0320001F0320001F0320001F03200078
:100080001F0320001F0320001F0320001F03200068
:100090001F0320001F0320001F0320001F03200058
:1000A0001F0320001F0320001F0320001F03200048
:1000B000411420001F0320001F0320001F03200005
:1000C0001F0320001F0320001F0320001F03200028
:1000D0001F0320001F0320001F032000B113200076
:1000E0001F0320001F0320001F0320001F03200008
:1000F0001F0320001F0320001F0320001F032000F8
:100100001F0320001F0320001F0320001F032000E7
:100110001F0320001F0320001F0320001F032000D7
:100120001F0320001F0320001F0320001F032000C7
:100130001F0320001F0320001F0320001F032000B7
:100140001F0320001F0320001F0320001F032000A7
:100150001F0320001F0320001F0320001F03200097
:100160001F0320001F0320001F0320001F03200087
:100170001F0320001F0320001F0320001F03200077
:100180001F0320001F0320001F0320001F03200067
:100190001F0320001F0320001F0320001F03200057
:1001A0001F0320001F0320001F0320001F03200047
:1001B0001F0320001F0320001F0320001F03200037
:1001C0001F0320001F0320001F0320001F03200027
:1001D0001F0320001F0320001F0320001F03200017
:1001E0001F0320001F0320001F0320001F03200007
:1001F0001F0320001F0320001F0320001F032000F7
:1002000072B6374880F30888364880F30988364844
:100210003649086040F20000CCF200004EF634711E
:10022000CEF200010860BFF34F8FBFF36F8F40F233
:100230000000C0F2F0004EF68851CEF200010860D6
:10024000BFF34F8FBFF36F8F4FF00000E1EE100A46
:100250004EF63C71CEF200010860022080F3148853
:10026000BFF36F8F00F08CFA01F0D2FD4FF05530E4
:100270001F491B4A91423CBF41F8040BFAE71D4954
:10028000184A91423CBF41F8040BFAE71A491B4A4D
:100290001B4B9A423EBF51F8040B42F8040BF8E79F
:1002A00000201849184A91423CBF41F8040BFAE774
:1002B00000F07EFA00F06CFA144C154DAC4203DAF3
:1002C00054F8041B8847F9E70FF02AFE114C124D31
:1002D000AC4203DA54F8041B8847F9E700F060BA2F
:1002E00000040020000800200000200008ED00E0CD
:1002F0000000002000040020002901080000022066
:10030000DC00022000080020202A0020000220003B
:1003100000022000000220000002200070E700F030
:1003200000F8FEE72DE9F04F2DED108AC1F80CD052
:10033000D0F80CD0BDEC108ABDE8F08F002383F319
:1003400011882846A047002003F0A2F8FEE702F03B
:10035000CFFC00DFFEE70000830730B547D0541E16
:10036000002A3ED0CAB2034601E0013C39D303F86B
:10037000012B9D07F9D1032C2CD9CDB205EB052516
:100380000F2C05EB054535D9A4F1100222F00F0C16
:1003900003F1100EE6444FEA121C1A46C2E900555A
:1003A000C2E9025510327245F8D10CF1010214F085
:1003B0000C0F03EB021204F00F0C13D0ACF104038A
:1003C00023F003030433134442F8045B9342FBD14C
:1003D0000CF003042CB1C9B21C4403F8011BA34266
:1003E000FBD130BD64461346002CF4D1F9E7034637
:1003F0001446C0E71A46A446E0E700BF002A3ED0F4
:1004000030B584460446084380070B462ED1032AA4
:1004100007D82BE0043A25D01EF0803F22D1032AD2
:1004200022D92068194653F8045BA0F1013EA84286
:10043000A4462EEA000E04F10404EBD09CF8000060
:100440000C7884421DD1E64668B11EF8010F11F800
:10045000014FA2EB0E03A04203F1FF3311D11CEBBD
:100460000303F1D1002030BDA44619469CF80000DA
:100470000C78A04205D1012AF4D0E646E4E7104604
:100480007047001B30BD00BF032A30B415D941EAC4
:100490000004A40784460B4604D0541E0FE0043A1F
:1004A000032A08D91946604653F8044B5CF8045BEC
:1004B000A542F4D0F1E760461946541E7AB1431EB6
:1004C0000139021901E09A4209D013F8010F11F81D
:1004D00001CF6045F7D0A0EB0C0030BC7047002086
:1004E00030BC7047844641EA000313F003036DD12A
:1004F000403A41D351F8043B40F8043B51F8043BE7
:1005000040F8043B51F8043B40F8043B51F8043BED
:1005100040F8043B51F8043B40F8043B51F8043BDD
:1005200040F8043B51F8043B40F8043B51F8043BCD
:1005300040F8043B51F8043B40F8043B51F8043BBD
:1005400040F8043B51F8043B40F8043B51F8043BAD
:1005500040F8043B51F8043B40F8043B51F8043B9D
:1005600040F8043B51F8043B40F8043B51F8043B8D
:1005700040F8043B403ABDD2303211D351F8043B2D
:1005800040F8043B51F8043B40F8043B51F8043B6D
:1005900040F8043B51F8043B40F8043B103AEDD2DC
:1005A0000C3205D351F8043B40F8043B043AF9D22D
:1005B000043208D0D2071CBF11F8013B00F8013B00
:1005C00001D30B8803806046704700BF082A13D30D
:1005D0008B078DD010F003038AD0C3F10403D21A25
:1005E000DB071CBF11F8013B00F8013B80D331F859
:1005F000023B20F8023B7BE7043AD9D3013A11F8D9
:10060000013B00F8013BF9D20B7803704B78437043
:100610008B78837060467047000000000000000087
:10062000BFF34F8F00BFBFF36F8F00BF0B4B002294
:10063000C3F85022BFF34F8F00BFBFF36F8F00BFCF
:10064000064B5B69054A43F400335361BFF34F8F98
:1006500000BFBFF36F8F00BF00BF704700ED00E029
:10066000BFF34F8F00BFBFF36F8F00BF054B00225A
:10067000C3F85022BFF34F8F00BFBFF36F8F00BF8F
:1006800000BF704700ED00E0000000000000000027
:1006900084B01E4B0022C3F88420BFF34F8F00BFED
:1006A0001A4BD3F880300193019B5B0BC3F30E030D
:1006B0000393019BDB08C3F309030293039B5A01D5
:1006C00043F6E0731340029A920710491343C1F8AE
:1006D0006032029B5A1E0292002BEFD1039B5A1EDE
:1006E0000392002BE5D1BFF34F8F00BF074B5B692F
:1006F000064A43F480335361BFF34F8F00BFBFF30B
:100700006F8F00BF00BF04B0704700BF00ED00E076
:1007100084B0194B0022C3F88420BFF34F8F00BF71
:10072000154BD3F880300193019B5B0BC3F30E0391
:100730000393019BDB08C3F309030293039B5A0154
:1007400043F6E0731340029A92070B491343C1F832
:100750006C32029B5A1E0292002BEFD1039B5A1E51
:100760000392002BE5D1BFF34F8F00BFBFF36F8F14
:1007700000BF00BF04B0704700ED00E000000000C3
:1007800008B5FFF74DFFFFF783FF00BF08BD00BFAF
:1007900000BF7047000000000000000000000000E3
:1007A00000BFFDE7000000000000000000000000A6
:1007B00000B585B0194B0393039B1B680293039B01
:1007C0005B68019309E0029B1A68019B1A60019B18
:1007D00004330193029B04330293039B9B68019AA9
:1007E0009A42F0D305E0019B00221A60019B04337A
:1007F0000193039BDB68019A9A42F4D3039B103365
:100800000393039B064A9342D6D3FFF781FFFFF77A
:1008100027FF00BF05B05DF804FB00BFA0FF000884
:10082000200001080000000000000000000000009F
:1008300000BF704700000000000000000000000042
:1008400008B5FFF7F5FF00F0ABFE00F0A1FF00F0E8
:1008500087FC01F0E5FA00F03BF800BF08BD00BFDF
:100860004FF080435B6A1846704700BF00000000ED
:1008700082B001904FF08042019B53634FF0804360
:1008800000221A614FF080430222DA6000BF02B0FA
:10089000704700BF000000000000000000000000E2
:1008A0004FF080430022DA6000BF70470000000074
:1008B00082B001904FF08042019B536300BF02B0B1
:1008C000704700BF000000000000000000000000B2
:1008D00008B500F09DFF00BF08BD00BF000000008C
:1008E00008B5FFF7BDFF0346184608BD000000002D
:1008F00000B583B001900198FFF7BAFF00BF03B0C5
:100900005DF804FB00000000000000000000000093
:1009100008B5FFF7C5FF00BF08BD00BF000000001D
:1009200000B583B001900198FFF7C2FF00BF03B08C
:100930005DF804FB00000000000000000000000063
:1009400082B030230193019B83F3118800BF00BF65
:1009500000BF02B0704700BF0000000000000000B0
:1009600082B000230193019B83F3118800BF00BF75
:1009700000BF02B0704700BF000000000000000090
:1009800008B5FFF7DDFF00BF08BD00BF0000000095
:1009900008B5FFF7E5FF00BF08BD00BF000000007D
:1009A00000B583B00190019802F0CAFE00BF03B009
:1009B0005DF804FB000000000000000000000000E3
:1009C00000B583B0019000910099019802F0C8FE33
:1009D0000346184603B05DF804FB00BF00000000AA
:1009E00000B583B0019000910099019802F0D8FE03
:1009F00000BF03B05DF804FB000000000000000031
:100A000000B587B0039002910192039B9B68019A05
:100A10009A4202D9039B9B680193039B1A69039B2B
:100A20009B69D31A0593019A059B9A420DD2039BA9
:100A30009B69019A19460298FFF754FD039B9A6936
:100A4000019B1A44039B9A612BE0019A059B9A42F1
:100A50001CD9039B9B69059A19460298FFF742FD32
:100A6000029A059B13440293019A059BD31A04939F
:100A7000039BDB68049A19460298FFF733FD039B3A
:100A8000DA68049B1A44039B9A610AE0039B9B6902
:100A9000019A19460298FFF725FD039BDA68039B2C
:100AA0009A61039B9A68019BD21A039B9A60019BEF
:100AB000184607B05DF804FB0000000000000000CD
:100AC00000B587B0039002910192039B9B68019A45
:100AD0009A4202D9039B9B680193039B1A69039B6B
:100AE0005B69D31A0593019A059B9A420DD2039B29
:100AF0005B69019A02991846FFF7F4FC039B5A6957
:100B0000019B1A44039B5A612BE0019A059B9A4270
:100B10001CD9039B5B69059A02991846FFF7E2FC12
:100B2000029A059B13440293019A059BD31A0493DE
:100B3000039BDB68049A02991846FFF7D3FC039BDA
:100B4000DA68049B1A44039B5A610AE0039B5B69C1
:100B5000019A02991846FFF7C5FC039BDA68039BCC
:100B60005A61039B9A68019BD21A039B9A60019B6E
:100B7000184607B05DF804FB00000000000000000C
:100B800000B585B00390029101920093039B184633
:100B9000FFF706FF039B00229A60039B029ADA602C
:100BA000039B029A9A61039B029A5A61029A019BE3
:100BB0001A44039B1A61039B009ADA61039B069A0D
:100BC0001A6200BF05B05DF804FB00BF0000000022
:100BD00000B583B001900B468DF80330019B5A6934
:100BE000019B9B699A4205D1019B9B68002B01D018
:100BF000012300E0002303F00103DBB283F00103D3
:100C0000DBB2002B1DD0019B9B685A1C019B9A6094
:100C1000019B5B69591C019A51619DF803201A7070
:100C2000019B5A69019B1B699A4203D3019BDA68B5
:100C3000019B5A61019B00211846FFF7D1FE00235A
:100C400001E04FF0FF33184603B05DF804FB00BF2E
:100C500000B585B001900091FFF792FE0CE0019B7A
:100C600000991846FFF7ACFE0290029B002B03DAB6
:100C7000FFF78EFE029B26E0019B9B68002BEED0C7
:100C8000019B9B685A1E019B9A60019B9B69591CA2
:100C9000019A91611B788DF80F30019B9A69019B35
:100CA0001B699A4203D3019BDA68019B9A61019BFD
:100CB000DB69002B03D0019BDB6901989847FFF7A4
:100CC00067FE9DF80F30184605B05DF804FB00BFC5
:100CD00000B589B00390029101920093039BDB69F8
:100CE0000793019B0693FFF74BFE24E0019A0299BC
:100CF0000398FFF785FE0590059B002B09D1039B08
:100D000000991846FFF75CFE0490049B002B12D05C
:100D100014E0079B002B02D0079B03989847FFF72E
:100D200037FE019A059BD31A0193029A059B13443F
:100D30000293FFF725FE019B002BD7D1FFF728FE7A
:100D4000069A019BD31A184609B05DF804FB00BF50
:100D500000B585B00390029101920093039B184661
:100D6000FFF71EFE039B019A9A60039B029ADA60CA
:100D7000039B029A9A61039B029A5A61029A019B11
:100D80001A44039B1A61039B009ADA61039B069A3B
:100D90001A6200BF05B05DF804FB00BF0000000050
:100DA00000B587B003900B4601928DF80B30FFF72A
:100DB000E7FD0CE0039B01991846FFF701FE059043
:100DC000059B002B03DAFFF7E3FD059B25E0039B62
:100DD0009B68002BEED0039B9B685A1E039B9A6076
:100DE000039B5B69591C039A51619DF80B201A7093
:100DF000039B5A69039B1B699A4203D3039BDA68DE
:100E0000039B5A61039BDB69002B03D0039BDB69C7
:100E100003989847FFF7BCFD0023184607B05DF81C
:100E200004FB00BF00000000000000000000000004
:100E300000B585B00190019B5A69019B9B699A425C
:100E400005D1019B9B68002B01D0012300E000230A
:100E500003F00103DBB283F00103DBB2002B1ED0F1
:100E6000019B9B685A1C019B9A60019B9B69591CC2
:100E7000019A91611B788DF80F30019B9A69019B53
:100E80001B699A4203D3019BDA68019B9A61019B1B
:100E900000211846FFF7A4FD9DF80F3001E04FF048
:100EA000FF33184605B05DF804FB00BF00000000EA
:100EB00000B589B00390029101920093039BDB6916
:100EC0000793019B0693FFF75BFD24E0019A0299CB
:100ED0000398FFF7F5FD0590059B002B09D1039BB7
:100EE00000991846FFF76CFD0490049B002B12D06C
:100EF00014E0079B002B02D0079B03989847FFF74D
:100F000047FD019A059BD31A0193029A059B13444E
:100F10000293FFF735FD019B002BD7D1FFF738FD7A
:100F2000069A019BD31A184609B05DF804FB00BF6E
:100F300082B030230193019B83F3118800BF00BF6F
:100F400000BF02B0704700BF0000000000000000BA
:100F500082B000230193019B83F3118800BF00BF7F
:100F600000BF02B0704700BF00000000000000009A
:100F700008B5FFF7DDFF00BF08BD00BF000000009F
:100F800008B5FFF7E5FF00BF08BD00BF0000000087
:100F900000B583B00190019803F0DAFA00BF03B006
:100FA0005DF804FB000000000000000000000000ED
:100FB00000B583B0019000910099019803F0B0FB57
:100FC00000BF03B05DF804FB00000000000000005B
:100FD00000B585B0039002910192039B03F13000AC
:100FE0004FF0FF33019A0299FFF762FF034618465C
:100FF00005B05DF804FB00BF000000000000000029
:1010000000B585B0039002910192039B03F10C009F
:101010004FF0FF33019A0299FFF75AFE0346184634
:1010200005B05DF804FB00BF0000000000000000F8
:1010300000B583B001900B468DF80330019B30332F
:101040009DF803104FF0FF321846FFF7A9FE034644
:10105000184603B05DF804FB00000000000000002B
:1010600000B583B00190019B0C334FF0FF3118465F
:10107000FFF7EEFD0346184603B05DF804FB00BF22
:1010800000B585B003900B4601928DF80B30039BA1
:1010900030339DF80B10019A1846FFF781FE034686
:1010A000184605B05DF804FB0000000000000000D9
:1010B00000B583B001900091019B0C330099184654
:1010C000FFF7C6FD0346184603B05DF804FB00BFFA
:1010D00000B585B00390029101920093039B03F148
:1010E0003000009B019A0299FFF7E2FE0346184682
:1010F00005B05DF804FB00BF000000000000000028
:1011000000B585B00390029101920093039B03F117
:101110000C00009B019A0299FFF7DAFD034618467E
:1011200005B05DF804FB00BF0000000000000000F7
:1011300086B0039002910192039B0593029B002BC2
:1011400003D0029B012B03D105E06FF0130303E0F2
:101150006FF0130300E00023184606B0704700BF8D
:1011600008B500F0ADFC00BF08BD00BF00000000E6
:1011700000B583B00190019B064A1A60019B0433BD
:101180001846FFF705FF019B01221A7200BF03B04A
:101190005DF804FB200001080000000000000000D2
:1011A00000B585B001900091FFF7E2FE009901982B
:1011B00000F0B6FC00230393039B002B03D1019B9B
:1011C00002221A7202E0019B01221A72FFF7D8FE76
:1011D000039B184605B05DF804FB00BF000000004B
:1011E00000B583B001900B468DF80330019B5B691D
:1011F000002B05D1019B043304211846FFF7D8FECC
:10120000019B0C339DF8032011461846FFF7E0FCC4
:101210000346002B06DA019B04334FF400611846A5
:10122000FFF7C6FE00BF03B05DF804FB000000003E
:1012300082B001900091009BDBB2114A1B01D9B230
:10124000019B134403F540730A461A70019B03F097
:101250001F020B49019B5B09012000FA02F2603377
:1012600041F82320019B03F01F020549019B5B0904
:10127000012000FA02F241F8232000BF02B07047BB
:1012800000E100E00000000000000000000000009D
:1012900000BF7047000000000000000000000000D8
:1012A00000BF7047000000000000000000000000C8
:1012B00000BF7047000000000000000000000000B8
:1012C00000BF7047000000000000000000000000A8
:1012D00000BF704700000000000000000000000098
:1012E00000BF704700000000000000000000000088
:1012F00000BF704700000000000000000000000078
:1013000000BF704700000000000000000000000067
:1013100000BF704700000000000000000000000057
:1013200000BF704700000000000000000000000047
:1013300000BF704700000000000000000000000037
:1013400000BF704700000000000000000000000027
:1013500000BF704700000000000000000000000017
:1013600000BF704700000000000000000000000007
:1013700000BF7047000000000000000000000000F7
:1013800000BF7047000000000000000000000000E7
:1013900000BF7047000000000000000000000000D7
:1013A00008B50C212720FFF743FF00BF08BD00BF91
:1013B00008B5034800F0E4FB05F0D2FE00BF08BD0D
:1013C00000080020000000000000000000000000F5
:1013D00000BF704700000000000000000000000097
:1013E00000BF704700000000000000000000000087
:1013F00000BF704700000000000000000000000077
:1014000000BF704700000000000000000000000066
:1014100000BF704700000000000000000000000056
:1014200000BF704700000000000000000000000046
:1014300008B507211C20FFF7FBFE00BF08BD00BF59
:1014400008B500F025FA05F08BFE00BF08BD00BF0F
:1014500000BF704700000000000000000000000016
:1014600000BF704700000000000000000000000006
:1014700000BF7047000000000000000000000000F6
:1014800000BF7047000000000000000000000000E6
:1014900000BF7047000000000000000000000000D6
:1014A00000BF7047000000000000000000000000C6
:1014B00008B5FFF7EDFEFFF7F3FEFFF7F9FEFFF7C4
:1014C000FFFEFFF705FFFFF70BFFFFF711FFFFF729
:1014D00017FFFFF71DFFFFF723FFFFF729FFFFF7B8
:1014E0002FFFFFF735FFFFF73BFFFFF741FFFFF748
:1014F00097FFFFF79DFFFFF7ABFFFFF7B1FFFFF788
:10150000B7FFFFF7BDFFFFF7C3FFFFF7C9FFFFF707
:1015100037FFFFF73DFFFFF743FFFFF759FFFFF7E7
:101520005FFFFFF765FFFFF76BFFFFF771FF00BF7E
:1015300008BD00BF00000000000000000000000027
:10154000144B1B68134A43F480731360124B1B6FD8
:1015500003F44073B3F5807F06D00F4B4FF4803215
:101560001A670D4B00221A670B4B1B6F0A4A43F098
:101570001903136700BF084B1B6F03F00203002B16
:10158000F9D0044B5B68034A23F40073536000BF37
:10159000704700BF007000400038024000000000AB
:1015A00008B51E4B1A691D491D4B13430B611B4B9C
:1015B0001B691A4AC3F30A031361184B1B69174BC3
:1015C0005B69164B4FF0FF325A61144B5B69134B4A
:1015D00000225A61114B5B69104B1B6A0F4A63F082
:1015E000805313620D4B1B6A0C4A03F08053136245
:1015F0000A4B1B6A094B5B6A084B4FF0FF325A6279
:10160000064B5B6A054B00225A62044B5B6AFFF78C
:1016100097FFFFF74DFF00BF08BD00BF0038024035
:1016200000F8FFFF000000000000000000000000C4
:1016300082B04F4B4F4A1A644F4B4FF440421A60EE
:101640004B4B1B684A4A43F00103136000BF484BF1
:101650001B6803F00203002BF9D0454B9B68444AFA
:1016600023F00303936000BF414B9B6803F00C031E
:10167000002BF9D13E4B1B683D4A03F0F903136080
:101680003B4B00229A603A4B1B68394A43F4A02333
:10169000136000BF364B1B6803F40033002BF9D0F6
:1016A000334B364A5A60324B1B68314A43F08073E1
:1016B000136000BF304B5B6803F48043002BF9D00C
:1016C0002D4B1B682C4A43F48033136000BF2A4B18
:1016D0005B6803F48033002BF9D0274B1B68264A44
:1016E00043F40033136000BF234B5B6803F4003303
:1016F000002BF9D000BF1E4B1B6803F00073002BBA
:10170000F9D01B4B1E4A9A6040F201130193184A0C
:10171000019BC2F88C30164B0022C3F89020194B65
:1017200040F207321A6000BF164B1B6803F00F032C
:10173000072BF9D10E4B9B680D4A43F002039360CF
:1017400000BF0B4B9B6803F00C03082BF9D1084B2F
:101750005B6C074A43F480435364054B5B6E044A59
:1017600043F480435366024B5B6E00BF02B0704788
:10177000003802400004001000700040086C40096E
:1017800000949930003C024000000000000000007E
:1017900000BF7047000000000000000000000000D3
:1017A00082B030230193019B83F3118800BF00BFF7
:1017B00000BF00BF02B07047000000000000000042
:1017C00082B000230193019B83F3118800BF00BF07
:1017D00000BF00BF02B07047000000000000000022
:1017E00008B5FFF7DDFF00BF08BD00BF0000000027
:1017F00008B5FFF7E5FF00BF08BD00BF000000000F
:1018000008B500F045FC00BF08BD00BF00000000A7
:101810001B4B1B6C1A4A43F001031364184B1B6EDD
:10182000174A43F001031366154B1B6E154B9B685B
:10183000144A43F0010393604FF0804342F62F2295
:101840009A624FF080434FF0FF32DA624FF08043EC
:1018500000229A614FF0804300225A634FF0804388
:101860000022DA604FF0804300225A604FF080433C
:1018700001225A614FF0804301221A6000BF704775
:1018800000380240002004E00000000000000000DA
:1018900000B583B04FF080430193019B1B69009317
:1018A000019BDB68DBB2009A13400093009BDA4394
:1018B000019B1A61009B03F00203002B05D0FFF788
:1018C0008FFFFFF79DFFFFF793FF00BF03B05DF8A9
:1018D00004FB00BF0000000000000000000000004A
:1018E00082B030230193019B83F3118800BF00BFB6
:1018F00000BF00BF02B07047000000000000000001
:1019000082B000230193019B83F3118800BF00BFC5
:1019100000BF00BF02B070470000000000000000E0
:1019200008B5FFF7DDFF00BF08BD00BF00000000E5
:1019300008B5FFF7E5FF00BF08BD00BF00000000CD
:1019400000B583B0019000910099019802F0E8FE83
:1019500000BF03B05DF804FB0000000000000000C1
:1019600086B001900091019B5B6D0493019B9B6D80
:101970000393009B1B685A08039B1A44009B1B6837
:10198000B2FBF3F30593009B5B6803F40043002B69
:1019900008D0059B23F007035A00059B03F00703BB
:1019A00013430593049B059ADA60009B9B6843F000
:1019B0004002049B5A60009BDB6843F00102049BD9
:1019C0009A60009B5A6840F22D131343049A1360E7
:1019D000049B4FF0FF321A62009B5B6803F4806344
:1019E000002B18D0009B5B6803F01023002B03D062
:1019F000B3F1805F05D009E0019B7F2283F85C2072
:101A00000EE0019B3F2283F85C2009E0019BFF224E
:101A100083F85C2004E0019BFF2283F85C20FFE751
:101A200000BF06B0704700BF0000000000000000CB
:101A300000B585B00190009100230393009B03F053
:101A40000803002B03D0039B43F480730393009B94
:101A500003F00103002B03D0039B43F02003039307
:101A6000009B03F00203002B03D0039B43F04003D1
:101A70000393009B03F00403002B03D0039B43F06C
:101A800080030393FFF74CFF019B0433039918462F
:101A9000FFF756FFFFF74CFF00BF05B05DF804FBF2
:101AA00082B00190044B1B68034A43F0C0031360EB
:101AB00000BF02B0704700BF0048004000000000B7
:101AC00000B583B00E48FFF753FB0D4B0093002386
:101AD00010220C490C48FFF753F8094B00930B4BAD
:101AE00010220B490B48FFF733F9054B0A4A5A6598
:101AF000034B0A4A9A6500BF03B05DF804FB00BFC0
:101B000000080020600800200C080020A11A200016
:101B100070080020300800200048004080F937039A
:101B200000B583B001900091009B002B01D1104BB8
:101B30000093019B1B7A012B11D1019B0D4A93420B
:101B40000DD10D4B1B6C0C4A43F4802313640A4BDC
:101B50001B6E094A43F480231366074B1B6E0099E2
:101B60000198FFF7FDFE00BF03B05DF804FB00BF66
:101B70004800010800080020003802400000000072
:101B800000B587B00190019B5B6D0393039BDB69FC
:101B90000493039B049A1A62049B03F00F03002B27
:101BA00003D004990198FFF743FF049B03F480736B
:101BB000002B1ED0FFF7B4FE019B04334FF480616D
:101BC0001846FFF7BDFEFFF7B3FE12E0FFF7A8FED1
:101BD000039B5B6ADAB2019B93F85C301340DBB283
:101BE00019460198FFF7FCFAFFF7A2FE039BDB6999
:101BF0000493049B03F02003002BE7D1039B1B6895
:101C00000593059B03F08003002B25D01FE0FFF711
:101C100087FE019B30331846FFF70AF90290029BBA
:101C2000002B0CDA019B043308211846FFF788FECD
:101C3000059B23F080030593FFF77AFE0CE0029AE0
:101C4000039B9A62FFF774FE039BDB690493049B7A
:101C500003F08003002BDAD1059B03F04003002B37
:101C600024D0049B03F04003002B1FD0FFF758FE45
:101C7000019B5A6C019B9B6C9A4205D1019B9B6B0B
:101C8000002B01D0012300E0002303F00103DBB2AD
:101C9000002B09D0019B043310211846FFF750FE9A
:101CA000059B23F040030593FFF742FE039B059A33
:101CB0001A6000BF07B05DF804FB00BF0000000021
:101CC00082B001900091009B5A68019B5A60009B72
:101CD0009A68019B9A60009BDA68019BDA60009B1E
:101CE0001A69019B5A61009B5A69019B1A62009B09
:101CF0009A69019B5A62009B1A68019B1A6000BF97
:101D000002B070470000000000000000000000006A
:101D100008B5264B1A69254940F2FF7313430B613E
:101D2000224B1A692149224B13400B611F4B1B693F
:101D30001E4B1A6B1D4940F2FF7313430B631B4B81
:101D40001A6D1A4940F2FF7313430B65174B1B6D55
:101D500018491948FFF7B4FF18491948FFF7B0FFB1
:101D600018491948FFF7ACFF18491948FFF7A8FFB1
:101D700018491948FFF7A4FF18491948FFF7A0FFB1
:101D800018491948FFF79CFF18491948FFF798FFB1
:101D900018491948FFF794FF18491948FFF790FFB1
:101DA00018491948FFF78CFF00BF08BD00380240F2
:101DB00000F8FFFF5800010800000240740001080D
:101DC000000402409000010800080240AC00010835
:101DD000000C0240C800010800100240E4000108A5
:101DE0000014024000010108001802401C01010813
:101DF000001C024038010108002002405401010883
:101E00000024024070010108002802400000000088
:101E100008B5FFF77DFFFFF70BFC00BF08BD00BF53
:101E200000BF70470000000000000000000000003C
:101E300000B58BB00190019B00221A6002AB1846DE
:101E400001F016FD0423099302AB184601F030FDA2
:101E500002AB184601F03CFD099B013B0993099B2D
:101E6000002BF1D1029A019B1A6000BF0BB05DF804
:101E700004FB00BF000000000000000000000000A4
:101E800082B030230193019B83F3118800BF00BF10
:101E900000BF02B0704700BF00000000000000005B
:101EA00082B000230193019B83F3118800BF00BF20
:101EB00000BF02B0704700BF00000000000000003B
:101EC00082B030230193019B83F3118800BF00BFD0
:101ED00000BF00BF02B0704700000000000000001B
:101EE00082B000230193019B83F3118800BF00BFE0
:101EF00000BF00BF02B070470000000000000000FB
:101F000008B503F055FA03F0EBFA04F0E9FD00BF61
:101F100008BD00BF0000000000000000000000003D
:101F200000B583B0114B01221A700023019308E021
:101F30000E4A019B9B00134400225A60019B01330F
:101F40000193019B002BF3D00948FFF771FFFFF7C6
:101F5000D7FF0849084800F0ABFF044B02221A7073
:101F6000FFF79EFF00BF03B05DF804FB8008002070
:101F700088080020C021010890080020000000000F
:101F800088B00190414B0393019B03F00103002BA8
:101F900022D000230793039B1B68069305E0079B51
:101FA00001330793069B1B680693039B069A9A428C
:101FB000F5D1039B5B68069305E0079B013B079304
:101FC000069B5B680693039B069A9A42F5D1079B92
:101FD000002B01D0012355E0019B03F00203002BED
:101FE00024D000230793039B1B69059305E0079BFF
:101FF00001330793059B1B680593039B1033059AD8
:102000009A42F4D1039B5B69059305E0079B013B72
:102010000793059B5B680593039B1033059A9A42CF
:10202000F4D1079B002B01D001232BE0019B03F08F
:102030000403002B25D0039B303302930023079326
:10204000029B1B68049305E0079B01330793049BE5
:102050001B680493049A029B9A42F5D1029B5B6829
:10206000049305E0079B013B0793049B5B68049383
:10207000049A029B9A42F5D1079B002B01D00123C1
:1020800000E00023184608B0704700BF9008002009
:1020900008B500F005FB00BF08BD00BF0000000050
:1020A00000B587B0EFF311830393039B0293029B68
:1020B0000593059B0493049B002B0CBF0123002375
:1020C000DBB2002B11D0EFF305830193019BC3F327
:1020D0000803002B14BF01230023DBB2002B02D026
:1020E000FFF7EEFE01E0FFF7CBFE059B184607B0B9
:1020F0005DF804FB0000000000000000000000008C
:1021000000B585B00190019B0393039B002B0CBF8E
:1021100001230023DBB2002B13D0EFF305830293DE
:10212000029BC3F30803002B14BF01230023DBB27F
:10213000002B02D0FFF7D4FE03E000F099FDFFF77B
:10214000AFFE00BF05B05DF804FB00BF000000005B
:1021500082B00190044BDA6B019B1343024AD363B4
:1021600000BF02B0704700BF9008002000000000D0
:1021700082B001900091019A009B1344184602B06E
:10218000704700BF000000000000000000000000D9
:1021900082B001900091009A019BD31A184602B0B8
:1021A000704700BF000000000000000000000000B9
:1021B00082B00190019B1B68019A9A420CBF0123D7
:1021C0000023DBB2184602B0704700BF00000000D9
:1021D00082B001900091019B1B68009A9A420CBF4B
:1021E00001230023DBB2184602B070470000000054
:1021F00084B0039002910192029B019A9A60029B23
:10220000039A5A60029B5B681A68029B1A60029BE1
:102210001B68029A5A60039B029A1A6000BF04B0BE
:10222000704700BF00000000000000000000000038
:1022300084B0039002910192029B019A9A60029BE2
:10224000039A1A60029B1B685A68029B5A60029BA1
:102250005B68029A1A60039B029A5A6000BF04B03E
:10226000704700BF000000000000000000000000F8
:1022700000B587B0039002910192039B1B68059300
:1022800007E0059B9B68019AD31A0193059B1B6885
:102290000593059B9B68019A9A428CBF01230023FA
:1022A000DBB2002BEDD1019A02990598FFF7C0FF30
:1022B000059B9A68019BD21A059B9A60039B4FF07D
:1022C000FF329A6000BF07B05DF804FB0000000019
:1022D00084B00190019B1B680393039B1A68019BC8
:1022E0001A60019B1B68019A5A60039B184604B050
:1022F000704700BF00000000000000000000000068
:1023000082B00190019B5B68019A12681A60019B80
:102310001B68019A52685A60019B184602B07047C8
:1023200000B583B001900198FEF7E2FA00BF03B058
:102330005DF804FB00000000000000000000000049
:1023400008B5FEF7E5FA00BF08BD00BF00000000B9
:1023500000B583B001900198FEF7E2FA00BF03B028
:102360005DF804FB00000000000000000000000019
:1023700008B5FEF7B5FA0346184608BD0000000090
:1023800082B030230193019B83F3118800BF00BF0B
:1023900000BF00BF02B07047000000000000000056
:1023A00082B000230193019B83F3118800BF00BF1B
:1023B00000BF00BF02B07047000000000000000036
:1023C00008B5FFF7D5FF0346184608BD000000001A
:1023D00000B589B0039002910192039B1B6907939A
:1023E000019A079B9A4201D2079B01930199029897
:1023F000FFF7BEFE03461846FFF7AAFFFFF7E0FF10
:10240000069006990298FFF7C3FE0590059A019B76
:102410009A4234BF01230023DBB2002B07D1079B74
:1024200001330793069B0293079B0193DEE700BFEE
:10243000039B1B69079A9A4205D9039B079A1A6165
:102440000120FFF785FE00BF09B05DF804FB00BF67
:1024500000B587B00390029101920093039B019A0B
:10246000DA60039B0299009A1846FFF7C1FE039BAE
:102470001B690593009A059B9A4201D2059B009324
:10248000039BDB6800991846FFF772FE0346184667
:10249000FFF746FFFFF794FF049004990198FFF7B8
:1024A00077FE0246009B93428CBF01230023DBB2E0
:1024B000002B0FD1059B0133059305990198FFF778
:1024C00057FE03461846FFF743FF049B0193059B05
:1024D0000093DFE700BF039B1B69059A9A4205D969
:1024E000039B059A1A610120FFF732FE00BF07B077
:1024F0005DF804FB00000000000000000000000088
:1025000000B589B0039002910192FFF759FF069040
:10251000039B1846FFF74CFE0346002B06D0019B99
:10252000069A02990398FFF793FF21E0039BDB686B
:1025300006991846FFF72CFE0590059A019B134457
:102540000793079A059B9A4201D2019B0793039B2D
:102550001B689B68079A9A4204D2019A06990398CD
:10256000FFF736FF039B0299079A1846FFF780FE94
:1025700009B05DF804FB00BF00000000000000008F
:1025800082B00190019B00221A6000BF02B0704728
:1025900000B587B00390029101920093094B059317
:1025A000039B009A1A61039B019ADA60039B002245
:1025B0005A61029A03990598FFF7A2FF00BF07B07E
:1025C0005DF804FBA00800200000000000000000EF
:1025D00000B587B001902E4B0593059B019A1146DB
:1025E0001846FFF7F5FD034683F00103DBB2002B2D
:1025F00014D0019B1846FFF783FE019B1B68996866
:10260000019B9A68019B1B680A449A60019B002207
:102610001A60059B4FF0FF329A6036E0059B184622
:10262000FFF756FE019B00221A60059B1846FFF734
:10263000BFFD0346002B02D0FFF782FE25E0059B7D
:102640001B689968019B9A68059B1B680A449A60FD
:10265000FFF7B6FE0490059BDB6804991846FFF768
:1026600097FD0390059B1B689B68039A9A420BD2C7
:10267000059B1B689A68039BD31A0293029A0499DC
:102680000598FFF7A5FE00E000BF07B05DF804FB6A
:10269000A008002000000000000000000000000072
:1026A00000B589B04D4B0593059B1B680493FFF75C
:1026B00087FE0390059BDB6803991846FFF768FDCA
:1026C0000290049B9B68029A9A4266D3059BDA6843
:1026D000049B9B6819461046FFF74AFD0190059B35
:1026E000019ADA60049B1846FFF70AFE049B002259
:1026F0001A60059B1846FFF75BFD0346002B01D0CF
:10270000FFF71EFEFFF74CFE049BDB68049A12697C
:10271000114604989847FFF733FE049B5B69002B32
:1027200014BF01230023DBB2002BBDD0FFF748FE0E
:10273000039003990198FFF72BFD0290049B5B69BE
:10274000029A9A4205D90220FFF702FD0023069360
:1027500004E0049B5A69029BD31A0693059B184612
:10276000FFF726FD0346002B06D0069B039A04992B
:102770000598FFF76DFE2DE0029A069B1344079320
:10278000079A029B9A4201D2069B0793059B0499E4
:10279000079A1846FFF76CFD86E700BF059B1846B1
:1027A000FFF706FD0346002B13D1059BDA68029B59
:1027B0001A44059BDA60049B9A68029BD21A049B18
:1027C0009A60049B9B681A4603990598FFF700FEE0
:1027D00000E000BF09B05DF804FB00BFA0080020C6
:1027E000F0B587B0124B0593FFF7EAFD0490059B07
:1027F000D3E90A23CDE90223029B04991846FFF787
:10280000C7FC034600221C461546DDE902231619C3
:1028100043EB0507CDE900670599DDE90023C1E930
:102820000A23DDE900231046194607B0F0BD00BFBA
:1028300090080020000000000000000000000000E0
:1028400082B00190019B5B68019A12681A60019B3B
:102850001B68019A52685A60019B184602B0704783
:1028600084B00190019B1B680393039B1A68019B32
:102870001A60019B1B68019A5A60039B184604B0BA
:10288000704700BF000000000000000000000000D2
:1028900082B001900091019B1B680193019B9A6893
:1028A000009B9B689A422CBF01230023DBB2002BC4
:1028B000F1D1009B019A1A60019B5A68009B5A60F3
:1028C000009B5B68009A1A60019B009A5A60009B0B
:1028D000184602B0704700BF000000000000000072
:1028E00082B001900091019B1B680193019B9A6843
:1028F000009B9B689A428CBF01230023DBB2002B14
:10290000F1D1009B019A1A60019B5A68009B5A60A2
:10291000009B5B68009A1A60019B009A5A60009BBA
:10292000184602B0704700BF000000000000000021
:1029300082B030230193019B83F3118800BF00BF55
:1029400000BF00BF02B070470000000000000000A0
:1029500082B000230193019B83F3118800BF00BF65
:1029600000BF00BF02B07047000000000000000080
:1029700082B00190019B1B68002B14BF0123002330
:10298000DBB2184602B070470000000000000000F3
:1029900082B00190019B9B685A1C019B9A6000BF0A
:1029A00002B07047000000000000000000000000BE
:1029B00000B583B00190019B00221A77019B1B692F
:1029C0001A46019B19461046FFF762FF0346184658
:1029D00003B05DF804FB00BF000000000000000031
:1029E00000B583B00190019B00221A77019B1B69FF
:1029F0001A46019B19461046FFF772FF0346184618
:102A000003B05DF804FB00BF000000000000000000
:102A100000B585B00D4B0393039BDB680293039BCA
:102A20001846FFF71DFF0190019B01221A77039BB7
:102A3000019ADA600298FFF7BBFF029002990198B1
:102A4000FDF770FC00BF05B05DF804FB90080020A6
:102A500000B585B00D4B0393039BDB680293039B8A
:102A60001846FFF7FDFE0190019B01221A77039B98
:102A7000019ADA600298FFF7B3FF02900299019879
:102A8000FDF750FC00BF05B05DF804FB9008002086
:102A900000B585B001900091009B0393FFF748FFBC
:102AA000039B1B7F0C2B2FD801A252F823F000BFF1
:102AB000E52A2000092B2000092B2000EB2A20000A
:102AC000FF2A2000F52A2000092B2000FF2A2000E1
:102AD000092B2000092B2000092B2000092B2000A6
:102AE000FF2A2000FFF734FF19E0039B5B6B0022F5
:102AF0001A600AE0039B5B6B1846FFF749FF039BD4
:102B00001846FFF79DFE00E000BF039B4FF0FF3229
:102B10005A630398FFF74CFFFFF71AFF00BF05B099
:102B20005DF804FB00000000000000000000000051
:102B300000B583B001900198FFF73AFF03461846AD
:102B400003B05DF804FB00BF0000000000000000BF
:102B500000B587B003468DF807300E4B0493049BF5
:102B6000DB680393039B9DF807201A77049B1846A4
:102B7000FFF776FE0590059B01221A77049B059AC4
:102B8000DA6003990598FDF7CDFB00BF07B05DF84B
:102B900004FB00BF900800200000000000000000BF
:102BA00000B58BB0034600918DF80730144BDB68FD
:102BB0000993009BB3F1FF3F16D003A8099B114A6C
:102BC0000099FFF7E5FC9DF807301846FFF7C0FFB6
:102BD00003AB1846FFF7CCFE0346002B09D003AB2E
:102BE0001846FFF7F5FC04E09DF807301846FFF79C
:102BF000AFFF099B5B6B18460BB05DF804FB00BF91
:102C000090080020912A2000000000000000000031
:102C100000B585B001900091144B0293029BDB68D4
:102C20000393019B009A5A63019B9A68039B9B68DC
:102C30009A4294BF01230023DBB2002B03D00198FA
:102C4000FFF7B6FE0DE00398FFF7CAFE0390019B65
:102C500001221A77029B019ADA6003990198FDF725
:102C600061FB00BF05B05DF804FB00BF90080020C9
:102C700000B583B00B4B0193019BDB680093019B74
:102C80001B689A68009B9B689A428CBF01230023B3
:102C9000DBB2002B01D0FFF7DBFE00BF03B05DF815
:102CA00004FB00BF900800200000000000000000AE
:102CB00084B00B4B0393039BDB680293039B1B685D
:102CC0009B680193029B9B680093019A009B9A4228
:102CD0008CBF01230023DBB2184604B0704700BF4D
:102CE000900800200000000000000000000000002C
:102CF00000B585B00D4B0393039BDB680293039BE8
:102D00001846FFF7ADFD0190019B01221A77039B46
:102D1000019ADA600298FFF763FE02900299019827
:102D2000FDF700FB00BF05B05DF804FB9008002034
:102D300000B583B00B4B0193019BDB680093019BB3
:102D40001B689A68009B9B689A422CBF0123002352
:102D5000DBB2002B01D0FFF75BFE00BF03B05DF8D4
:102D600004FB00BF900800200000000000000000ED
:102D700082B00190019B00221A6000BF02B0704730
:102D800082B00190019B00221A6000BF02B0704720
:102D900082B00190019B019A1A60019B019A5A60CE
:102DA00000BF02B0704700BF00000000000000003C
:102DB00082B001900091009B019A1A60019B5A68B1
:102DC000009B5A60009B5B68009A1A60019B009A06
:102DD0005A6000BF02B07047000000000000000011
:102DE00082B00190019B019A1A60019B019A5A607E
:102DF000019B00229A6000BF02B0704700000000F3
:102E000082B00190019B019A1A60019B019A5A605D
:102E1000019B4FF0FF329A6000BF02B0704700BFC5
:102E200008B5FDF75DFD0346184608BD000000002B
:102E300008B5FFF7F5FF0346184608BD000000007F
:102E400030B583B00190019B1846FFF7D9FF019B75
:102E50000022DA60019B02221A61FFF7E9FF0346B4
:102E600000221C461546019BC3E9064500BF03B07E
:102E700030BD00BF000000000000000000000000A6
:102E800000B583B00190019B1846FFF781FF00BF9A
:102E900003B05DF804FB00BF00000000000000006C
:102EA00082B0019000BF00BFFCE700BF000000003F
:102EB00000B593B00190009100231193344A119B07
:102EC0009B001344019A5A60019B119A9A63019BDB
:102ED000009A1A64019804F0F3F8019B1846FFF772
:102EE0007FFF019B30331846FFF7CAFF019B3C333D
:102EF0001846FFF73DFF019B10331846FFF7A0FF70
:102F0000019BE4331846FFF73BFF224B0393009BE2
:102F10005B680493009B9B680593802306930023C2
:102F2000079300230893019B0993019B943303AA01
:102F30001146184600F03CF90246019BDA60019BFD
:102F400003F13002019BDB68243319461046FFF77A
:102F50002FFF019BDB6801221A770F4B0A93009B1E
:102F6000DB680B93009B1B690C9301230D930B4BA8
:102F70000E9300230F93019B1093019B44330AAAE5
:102F80001146184600F094F900BF13B05DF804FB39
:102F900080080020980B0108A00B0108A12E20003A
:102FA00082B001900091009A019BD31A184602B09A
:102FB000704700BF0000000000000000000000009B
:102FC00082B00190019B019A1A6000BF02B0704765
:102FD00082B00190019B1B68019A9A4214BF0123A1
:102FE0000023DBB2184602B0704700BF00000000AB
:102FF00082B001900091019B1A68009B1A60019BAE
:10300000009A1A6000BF02B0704700BF00000000C5
:1030100084B00190019B1B680393039B1A68019B7A
:103020001A60039B184604B0704700BF0000000000
:1030300082B00190019B019A1A60019B019A5A602B
:1030400000BF02B0704700BF000000000000000099
:1030500082B00190019B1B68019A9A4214BF012320
:103060000023DBB2184602B0704700BF000000002A
:1030700082B001900091009B019A1A60019B5A68EE
:10308000009B5A60009B5B68009A1A60019B009A43
:103090005A6000BF02B0704700000000000000004E
:1030A00084B00190019B1B680393039B1A68019BEA
:1030B0001A60019B1B68019A5A60039B184604B072
:1030C000704700BF0000000000000000000000008A
:1030D00082B00190019B5B68019A12681A60019BA3
:1030E0001B68019A52685A60019B184602B07047EB
:1030F00008B5FDF7F5FB0346184608BD00000000C3
:1031000082B030230193019B83F3118800BF00BF7D
:1031100000BF02B0704700BF0000000000000000C8
:1031200082B000230193019B83F3118800BF00BF8D
:1031300000BF02B0704700BF0000000000000000A8
:1031400008B5FFF7D5FF0346184608BD000000008C
:10315000014BDB6818467047900800200000000013
:1031600000B583B0019001990820FFF719FD00BF59
:1031700003B05DF804FB00BF000000000000000089
:1031800000B585B001900091019B1846FFF788FFBC
:103190000390039B009A5A630398FFF7C9FC00BF92
:1031A00005B05DF804FB00BF000000000000000057
:1031B00000B583B001900091009B5A68019B5A6151
:1031C000009B9A68019B9A61009BDA68019B9A6058
:1031D000019B02221A77019B00225A77009B9B6970
:1031E000002B04D0009B9A69019B1A6102E0019BAD
:1031F000134A1A61019B0022DA62019B00221A63C2
:10320000019B38331846FFF7DBFE009BDA68019B11
:10321000DA64019B00229A64019B00225A64019B9C
:1032200001229A77009B1A68019B1A62019B3C332A
:103230001846FFF7FDFE019B184603B05DF804FB3E
:1032400090080020000000000000000000000000C6
:1032500000B583B00190009100990198FFF7A8FF95
:103260000190019B9B69A3F16402019BDA60009BC2
:103270001A69019BDB681A64009B5A69019BDB6831
:103280005A64019BDB68084A1A66019B1B6903F1BB
:103290003002019B243319461046FFF7E9FE019BDB
:1032A000184603B05DF804FB3D0320000000000059
:1032B00000B583B00190009100990198FFF7C8FF15
:1032C00003461846FFF734FC0346184603B05DF882
:1032D00004FB00BF00000000000000000000000030
:1032E00000B587B00190019B5B680493019B9B68CC
:1032F000603B039301990398FFF75AFF0590059BE4
:10330000A3F16402059BDA60019B1A69059BDB68E7
:103310001A64019B5A69059BDB685A64059BDB684C
:10332000084A1A66059B1B6903F13002059B24338A
:1033300019461046FFF79CFE059B184607B05DF83E
:1033400004FB00BF3D03200000000000000000005F
:1033500000B585B00190FFF7D3FE0198FFF7C0FFDD
:10336000039000210398FFF753FCFFF7D9FE039B5E
:10337000184605B05DF804FB0000000000000000E6
:1033800000B591B00390029101920093039A029BC1
:1033900013440E93039B0D930E9B603B0C931E4BAB
:1033A0000593039B06930E9B0793019B0893009B39
:1033B0000993129B0A93194B0B9305AB19460C9872
:1033C000FFF7F6FE0F900F9BA3F164020F9BDA60EC
:1033D0000F9BDB68009A1A640F9BDB68129A5A6491
:1033E0000F9BDB680E4A1A66FFF78AFE0F9B1B696C
:1033F00003F130020F9B243319461046FFF738FEC5
:1034000000210F98FFF704FCFFF78AFE0F9B184678
:1034100011B05DF804FB00BFA80B01089008002064
:103420003D0320000000000000000000000000003C
:1034300000B583B00190FFF763FE019B9B7F013BCA
:10344000DAB2019B9A77019B9B7F002B13D1019BE2
:103450001B7F0F2B0FD1019B24331846FFF738FE3B
:10346000FFF75EFE019BDB6A002B07D0019BDB6A46
:103470000198984702E0FFF753FE00E000BF03B059
:103480005DF804FB000000000000000000000000E8
:1034900000B583B00190FFF733FE019800F008F803
:1034A00000BF03B05DF804FB000000000000000056
:1034B00000B585B00190FFF74BFE0390039B019A86
:1034C0005A6308E0039B38331846FFF7A1FD034613
:1034D0001846FFF72DFB039B38331846FFF778FD9E
:1034E0000346002BEED1039B9B7F002B0CBF0123D7
:1034F0000023DBB2002B08D0039BDB6A002B04D136
:10350000039B24331846FFF7E3FD0F20FFF720FB52
:1035100000BF05B05DF804FB0000000000000000E3
:1035200000B585B00190FFF713FE0290FFF7E8FDAC
:10353000019B1B7F0F2B14BF01230023DBB2002B49
:1035400009D0019B3833029A11461846FFF750FD07
:103550000920FFF7FDFA019B5B6B0393FFF7E0FD8A
:103560000198FFF765FF039B184605B05DF804FB63
:1035700000B585B00190FFF7EBFD0390FFF7C0FDAC
:10358000039BDB6C0293039B9A68039BDB6C9A4260
:1035900004D0039B9B68019A9A4202D9039B019A2B
:1035A0009A60039B019ADA64FFF762FBFFF7B8FDAC
:1035B000029B184605B05DF804FB00BF0000000048
:1035C00000B583B00190FFF79BFD019B5B7F63F02B
:1035D0007F03DAB2019B5A77FFF7A2FD00BF03B069
:1035E0005DF804FB00000000000000000000000087
:1035F00000B583B00190FFF783FD0198FFF7B0FDA0
:10360000FFF78EFD00BF03B05DF804FB0000000073
:1036100000B585B00190FFF773FDFFF791FD0346FC
:1036200001991846FFF7BCFC0390039B002B14BFC5
:1036300001230023DBB2002B02D00398FFF790FD9B
:10364000FFF76EFD00BF05B05DF804FB0000000051
:1036500008B5FFF755FDFFF76BFBFFF761FD00BFF6
:1036600008BD00BF000000000000000000000000D6
:1036700000B585B001900091FFF76AFD0390009BB3
:10368000002B0CBF01230023DBB2002B02D04FF034
:10369000FF330AE0019B039A1A60039B019A5A6365
:1036A00000990320FFF77CFA0346184605B05DF841
:1036B00004FB00BF0000000000000000000000004C
:1036C00000B585B001900091019B1B68002B0BD0C9
:1036D000019B1B680393019B00221A60039B009AC5
:1036E0005A630398FFF724FA00BF05B05DF804FBA6
:1036F00000B585B001900091019B1B68002B09D09B
:10370000019B1B680393019B00221A600099039898
:10371000FFF77EFA00BF05B05DF804FB0000000073
:1037200000B583B001900091FFF7EAFC0099019881
:10373000FFF7DEFFFFF7F4FC00BF03B05DF804FB0A
:1037400000B583B00190019B1846FFF771FC00BFE4
:1037500003B05DF804FB00BF0000000000000000A3
:1037600000B585B001900091FFF7F2FC0390009B3B
:10377000002B0CBF01230023DBB2002B02D04FF043
:10378000FF3309E0019B03991846FFF771FC00998C
:103790000420FFF705FA0346184605B05DF804FB60
:1037A00000B583B001900091019B1846FFF750FCD3
:1037B0000346002B03D000990198FFF7E1FC00BFFE
:1037C00003B05DF804FB00BF000000000000000033
:1037D00000B583B00190009103E000990198FFF7D4
:1037E000CFFC019B1846FFF733FC0346002BF4D1B6
:1037F00000BF00BF03B05DF804FB00BF0000000085
:10380000F0B484B0039002910192039BDB685A1CD0
:10381000039BDA60039B9B68029AD21A019BD21A1F
:10382000039B9A60039BD3E90423039989680020D2
:103830000C460546161943EB0507039BC3E90467CD
:10384000039B9A68039B5B689A4203D9039B9A681F
:10385000039B5A60039B9A68039B1B689A4203D29E
:10386000039B9A68039B1A6000BF04B0F0BC7047CA
:1038700082B00190019B4FF0FF321A60019B002241
:103880005A60019B00229A60019B0022DA60019934
:103890004FF000024FF00003C1E9042300BF02B063
:1038A000704700BF000000000000000000000000A2
:1038B00082B00190034B5A68019B9A6000BF02B02E
:1038C000704700BF001000E0000000000000000092
:1038D00000B583B00190064B5B68064A92681946B2
:1038E0000198FFF78DFF00BF03B05DF804FB00BF38
:1038F000001000E080080020000000000000000030
:1039000082B00190019B019A1A60019B019A5A6052
:1039100000BF02B0704700BF0000000000000000C0
:1039200082B00190019B1B68019A9A4214BF012347
:103930000023DBB2184602B0704700BF0000000051
:1039400082B001900091009B019A1A60019B5A6815
:10395000009B5A60009B5B68009A1A60019B009A6A
:103960005A6000BF02B07047000000000000000075
:1039700084B00190019B1B680393039B1A68019B11
:103980001A60019B1B68019A5A60039B184604B099
:10399000704700BF000000000000000000000000B1
:1039A00084B00190019B5B680393039B5A68019B61
:1039B0005A60019B5B68019A1A60039B184604B029
:1039C000704700BF00000000000000000000000081
:1039D00082B030230193019B83F3118800BF00BFA5
:1039E00000BF02B0704700BF0000000000000000F0
:1039F00082B000230193019B83F3118800BF00BFB5
:103A000000BF02B0704700BF0000000000000000CF
:103A1000014BDB681846704790080020000000004A
:103A200000B583B001900091019B1846FFF768FF35
:103A3000019B009A9A6000BF03B05DF804FB00BFD1
:103A400000B585B0039002910192FFF7C1FF019A82
:103A50000299039800F00CF8FFF70AF9FFF7C8FF86
:103A600000BF05B05DF804FB00000000000000008E
:103A700000B585B0039002910192039B029A9A606F
:103A80000AE0039B1846FFF78BFF03461846FFF733
:103A90004FF80246019B5363039B1846FFF740FF14
:103AA0000346002BEDD100BF00BF05B05DF804FB5D
:103AB00000B585B00190FFF78BFF019800F008F882
:103AC0000390FFF795FF039B184605B05DF804FBD4
:103AD00000B585B00190019B9B685A1E019B9A60BE
:103AE000019B9B68002B11DAFFF792FF0390039B69
:103AF000019A5A63019B039A11461846FFF720FF6B
:103B00000520FFF725F8039B5B6B00E000231846B8
:103B100005B05DF804FB00BF0000000000000000DD
:103B200000B585B001900091FFF752FF0099019810
:103B300000F00EF80390FFF75BFF039B184605B0FB
:103B40005DF804FB00000000000000000000000021
:103B500000B585B001900091019B9B685A1E019BA6
:103B60009A60019B9B68002B21DA009B002B0CBF05
:103B700001230023DBB2002B07D0019B9B685A1C5A
:103B8000019B9A604FF0FF3312E0FFF741FF039073
:103B9000039B019A5A63019B039A11461846FFF74B
:103BA000CFFE00990520FEF7FBFF034600E000234F
:103BB000184605B05DF804FB00000000000000009E
:103BC00000B583B00190FFF703FF019B9B685A1C6F
:103BD000019B9A60019B9B68002B08DC019B1846A7
:103BE000FFF7C6FE034600211846FFF711F8FFF75E
:103BF000FFFE00BF03B05DF804FB00BF0000000043
:103C000000B585B00190019B9B685A1C019B9A608E
:103C1000019B9B68002B0ADC019B1846FFF7A8FE5E
:103C20000390039B00225A630398FEF781FF00BFB5
:103C300005B05DF804FB00BF0000000000000000BC
:103C400000B583B00190009116E0019B9B685A1C5F
:103C5000019B9A60019B9B68002B0ADC019B184624
:103C6000FFF786FE03461846FEF762FF0346002272
:103C70005A63009B013B0093009B002BE5DC00BFD7
:103C800000BF03B05DF804FB00000000000000006E
:103C900000B585B001900091FFF79AFE019B9B68EB
:103CA0005A1C019B9A60019B9B68002B0ADC019BBC
:103CB0001846FFF75DFE03461846FEF739FF034638
:103CC00000225A63009B9B685A1E009B9A60009BCF
:103CD0009B68002B12DAFFF79BFE0290009B029A72
:103CE00011461846FFF72CFE029B009A5A630520E6
:103CF000FEF72EFF029B5B6B039303E0FEF7B8FF1A
:103D000000230393FFF774FE039B184605B05DF88C
:103D100004FB00BF000000000000000000000000E5
:103D200082B00190019B019A1A60019B019A5A602E
:103D300000BF02B0704700BF00000000000000009C
:103D400082B00190019B1B68019A9A4214BF012323
:103D50000023DBB2184602B0704700BF000000002D
:103D600084B00190019B1B680393039B1A68019B1D
:103D70001A60019B1B68019A5A60039B184604B0A5
:103D8000704700BF000000000000000000000000BD
:103D900082B00190019B5B68019A12681A60019BD6
:103DA0001B68019A52685A60019B184602B070471E
:103DB00082B030230193019B83F3118800BF00BFC1
:103DC00000BF02B0704700BF00000000000000000C
:103DD00082B000230193019B83F3118800BF00BFD1
:103DE00000BF02B0704700BF0000000000000000EC
:103DF00084B001900091019B0393039B1B68039384
:103E0000039A019B9A4205D0039B9A68009B9B688A
:103E10009A42F2D2009B039A1A60039B5A68009B55
:103E20005A60009B5B68009A1A60039B009A5A6074
:103E300000BF04B0704700BF000000000000000099
:103E4000014BDB6818467047900800200000000016
:103E500000B583B00190019B1846FFF771FF034640
:103E6000184603B05DF804FB0000000000000000ED
:103E700000B583B00190019B1846FFF751FF019BED
:103E800000229A6000BF03B05DF804FB0000000050
:103E900000B583B00190FFF78BFF019800F008F8A0
:103EA000FFF796FF00BF03B05DF804FB00000000C1
:103EB00010B584B00190FFF7C3FF0390019B9B688E
:103EC000002B4DD0019B9B68029336E0039B9A68C0
:103ED000029B9A60029B1B7F072B16D0072B2ADCC4
:103EE000002B1FD0062B26D1029B5B6B1C46029B2E
:103EF0001846FFF74DFF034619462046FFF778FFA7
:103F0000029B5B6B9B68029317E0029B5B6B1C46FA
:103F1000029B1846FFF73CFF034619462046FFF771
:103F200067FF09E0029B1846FFF732FF0346184679
:103F3000FEF7FEFD00E000BF05E0029B9A68039BD0
:103F40009B689A42C2D3019B039A11461846FFF719
:103F50004FFF039B019A5A630620FEF7F9FD09E023
:103F6000019B039A9A60039B9A6C019BDA60039B06
:103F7000019A9A6400BF04B010BD00BF00000000A9
:103F800000B585B00190FFF713FF019800F010F81D
:103F900003468DF80F30FFF71BFF9DF80F301846D2
:103FA00005B05DF804FB00BF000000000000000049
:103FB00000B585B00190FFF743FF0390019B9B681C
:103FC000002B01D000230AE0019B039A9A60039B17
:103FD0009A6C019BDA60039B019A9A64012318464C
:103FE00005B05DF804FB00BF000000000000000009
:103FF00000B587B00190FFF723FF0390FFF7D8FECD
:10400000019BDA68039B9A640198FFF721FF03463E
:10401000002B34D0039BDB6C0593039B9B6C0493B8
:1040200012E00498FFF714FF0346002B09D0049B0D
:104030001B689B68059A9A4203D2049B1B689B6885
:104040000593049BDB680493049B002BE9D1039B3D
:10405000059A9A60019B1846FFF782FE0290019B29
:10406000029A9A60029B9A6C019BDA60029B019A09
:104070009A640298FEF75CFDFEF7FAFD02E0019BF0
:1040800000229A60FFF7A4FE00BF07B05DF804FBB2
:1040900000B587B00190FFF7D3FE0390019BDA686B
:1040A000039B9A640198FFF7D3FE0346002B32D09E
:1040B000039BDB6C0493039B9B6C059312E00598B8
:1040C000FFF7C6FE0346002B09D0059B1B689B68C3
:1040D000049A9A4203D2059B1B689B680493059B34
:1040E000DB680593059B002BE9D1039B049A9A603A
:1040F000019B1846FFF734FE0290019B029A9A60DA
:10410000029B9A6C019BDA60029B019A9A64029866
:10411000FEF70EFD02E0019B00229A6000BF07B08F
:104120005DF804FB0000000000000000000000003B
:1041300000B585B0FFF784FE0390039B9B6C002BBA
:104140002CD0039B9B6C0293029BDA68039B9A64BE
:104150000298FFF77DFE0346002B12D0029B184603
:10416000FFF7FEFD0190029B019A9A60019B9A6CF9
:10417000029BDA60019B029A9A640198FEF7D8FCD0
:1041800002E0029B00229A60039B9B6C002BD8D11B
:10419000039BDA6C039B9A60FEF76AFD00BF05B0D3
:1041A0005DF804FB000000000000000000000000BB
:1041B00008B5FFF7FDFDFFF7BBFFFFF709FE00BFE6
:1041C00008BD00BF0000000000000000000000006B
:1041D00082B00190019B019A1A60019B019A5A607A
:1041E00000BF02B0704700BF0000000000000000E8
:1041F00082B00190019B1B68019A9A4214BF01236F
:104200000023DBB2184602B0704700BF0000000078
:1042100084B00190019B1B680393039B1A68019B68
:104220001A60019B1B68019A5A60039B184604B0F0
:10423000704700BF00000000000000000000000008
:1042400082B030230193019B83F3118800BF00BF2C
:1042500000BF02B0704700BF000000000000000077
:1042600082B000230193019B83F3118800BF00BF3C
:1042700000BF02B0704700BF000000000000000057
:1042800084B001900091019B0393039B1B680393EF
:10429000039A019B9A4205D0039B9A68009B9B68F6
:1042A0009A42F2D2009B039A1A60039B5A68009BC1
:1042B0005A60009B5B68009A1A60039B009A5A60E0
:1042C00000BF04B0704700BF000000000000000005
:1042D000014BDB6818467047900800200000000082
:1042E00008B5FFF7F5FF03469B6C184608BD00BFF5
:1042F00000B583B00190019B1846FFF769FF00BF2E
:1043000003B05DF804FB00BF0000000000000000E7
:1043100000B583B00190FFF793FF019B1846FFF7AC
:1043200067FF0346002B08D0019B1846FFF770FF7C
:10433000034600211846FEF76BFCFFF791FF00BF14
:1043400003B05DF804FB00BF0000000000000000A7
:1043500000B585B00190019B1846FFF749FF034661
:10436000002B0AD0019B1846FFF752FF0390039BD6
:1043700000225A630398FEF7DBFB00BF05B05DF82F
:1043800004FB00BF0000000000000000000000006F
:1043900000B583B00190FFF753FF019800F008F8D3
:1043A000FEF766FCFFF75CFF00BF03B05DF804FB9F
:1043B00000B583B001900BE0019B1846FFF728FF82
:1043C00003461846FEF7B4FB03466FF001025A633A
:1043D000019B1846FFF70CFF0346002BECD100BFF2
:1043E00000BF03B05DF804FB000000000000000007
:1043F00000B585B00190FFF723FF019800F008F8A1
:104400000390FFF72DFF039B184605B05DF804FBF2
:1044100000B587B00190FFF75BFF0490FFF760FFE6
:1044200005900598FFF734FE049B019A5A63019B9F
:10443000049A11461846FFF723FF0720FEF788FB72
:10444000049B5B6B03930598FFF732FD039B1846B3
:1044500007B05DF804FB00BF000000000000000092
:1044600000B585B001900091FFF7EAFE0099019830
:1044700000F00EF80390FFF7F3FE039B184605B01B
:104480005DF804FB000000000000000000000000D8
:1044900000B587B001900091FFF71AFF0590FFF774
:1044A0001FFF04900498FFF7F3FD059B019A5A63E0
:1044B000019B059A11461846FFF7E2FE0099072076
:1044C000FEF76EFB0390039BB3F1FF3F02D004980D
:1044D000FFF7EEFC039B184607B05DF804FB00BF36
:1044E00082B030230193019B83F3118800BF00BF8A
:1044F00000BF02B0704700BF0000000000000000D5
:1045000082B000230193019B83F3118800BF00BF99
:1045100000BF02B0704700BF0000000000000000B4
:10452000014BDB681846704790080020000000002F
:1045300082B00190054BDB68596C044BDB68019A33
:104540000A435A645B6C184602B07047900800201A
:1045500082B00190019B019A1A6000BF02B07047BF
:1045600000B587B00390029101920093FFF7D8FF46
:104570000590039B1A68029B1A60039B029A1A60BB
:10458000029B059A5A60029B019A9A60029B002244
:10459000DA60029B009A1A6100BF07B05DF804FB65
:1045A00000B585B00390029101920093FFF798FF48
:1045B000009B019A02990398FFF7D2FFFFF7A0FF33
:1045C00000BF05B05DF804FB000000000000000023
:1045D00000B585B001900091019B0393FFF780FF28
:1045E0000CE0039B1B68009A9A4204D1009B1A6856
:1045F000039B1A6007E0039B1B680393039B1B68E4
:10460000019A9A42EDD1FFF77BFF00BF05B05DF83C
:1046100004FB00BF000000000000000000000000DC
:1046200000B585B00190FFF77BFF0390039B5B6CA7
:10463000019A13400293039B5A6C019BDB431A407F
:10464000039B5A64029B184605B05DF804FB00BF4B
:1046500000B585B00190FFF743FF0198FFF7E0FF39
:104660000390FFF74DFF039B184605B05DF804FB70
:1046700000B585B00190FFF733FF0198FFF758FFB1
:104680000390FFF73DFF039B184605B05DF804FB60
:1046900000B583B001900091019B5A6C009B1A43B6
:1046A000019B5A64019B1B7F0A2B06D1019B5A6C0C
:1046B000019B5B6B1340002B0CD1019B1B7F0B2BD1
:1046C0000ED1019B5A6C019B5B6B1A40019B5B6B8B
:1046D0009A4205D1019B00225A630198FEF728FAFD
:1046E00000BF03B05DF804FB000000000000000004
:1046F00000B583B001900091FFF7F2FE0099019898
:10470000FFF7C6FFFEF7B4FAFFF7FAFE00BF03B0EB
:104710005DF804FB00000000000000000000000045
:1047200000B585B001900091019B1B68039319E0CF
:10473000039BDA68009B1A43039BDA60009B002B03
:1047400005D0039B1A69009B1340002B07D0039BE5
:104750005A68039B9B6819461046FFF799FF039B15
:104760001B680393039A019B9A42E1D100BF00BFEB
:1047700005B05DF804FB00BF000000000000000071
:1047800000B583B001900091FFF7AAFE009901984F
:10479000FFF7C6FFFEF76CFAFFF7B2FE00BF03B0EB
:1047A0005DF804FB000000000000000000000000B5
:1047B00000B585B0019000910023039319E0039B9D
:1047C000009A22FA03F303F00103002B0ED0039B9F
:1047D000012202FA03F3DB43009A13400093039B88
:1047E0009B00019A13441B6803989847039B01336D
:1047F0000393009B002BE2D100BF00BF05B05DF822
:1048000004FB00BF000000000000000000000000EA
:1048100000B585B00190FFF783FE0290FFF760FEC0
:10482000029B5B6C019A13400393039B002B0AD1FC
:10483000029B019A5A630A20FEF78AF9029B5B6C7D
:10484000019A13400393039B5B42039A1340039323
:10485000029B5A6C039BDB431A40029B5A64FFF78E
:104860004FFE039B184605B05DF804FB00000000F6
:1048700000B585B00190FFF753FE0290FFF730FEC0
:10488000029B5B6C019A13400393039B002B0AD19C
:10489000029B019A5A630A20FEF75AF9029B5B6C4D
:1048A000019A13400393029B5A6C039BDB431A400B
:1048B000029B5A64FFF724FE039B184605B05DF87F
:1048C00004FB00BF0000000000000000000000002A
:1048D00000B585B00190FFF723FE0390FFF700FEBF
:1048E000039B5A6C019B1340019A9A4205D0039B8B
:1048F000019A5A630B20FEF72BF9039B5A6C019B1C
:10490000DB431A40039B5A64FFF7FAFD019B1846EC
:1049100005B05DF804FB00BF0000000000000000CF
:1049200000B585B001900091FFF7FAFD0290FFF706
:10493000D7FD029B5B6C019A13400393039B002BF2
:1049400019D1009B002B03D1FFF7DAFD002321E0F2
:10495000029B019A5A6300990A20FEF721F9034647
:10496000002B03DAFFF7CCFD002313E0029B5B6C06
:10497000019A13400393039B5B42039A13400393F2
:10498000029B5A6C039BDB431A40029B5A64FFF75D
:10499000B7FD039B184605B05DF804FB000000005E
:1049A00000B585B001900091FFF7BAFD0290FFF7C6
:1049B00097FD029B5B6C019A13400393039B002BB2
:1049C00019D1009B002B03D1FFF79AFD00231CE0B7
:1049D000029B019A5A6300990A20FEF7E1F8034608
:1049E000002B03DAFFF78CFD00230EE0029B5B6CCB
:1049F000019A13400393029B5A6C039BDB431A40BA
:104A0000029B5A64FFF77CFD039B184605B05DF8D6
:104A100004FB00BF000000000000000000000000D8
:104A200000B585B001900091FFF77AFD0390FFF784
:104A300057FD039B5A6C019B1340019A9A4214D074
:104A4000009B002B03D1FFF75BFD002317E0039BC6
:104A5000019A5A6300990B20FEF7A2F80346002B37
:104A600003DAFFF74DFD002309E0039B5A6C019B1D
:104A7000DB431A40039B5A64FFF742FD019B184633
:104A800005B05DF804FB00BF00000000000000005E
:104A900082B001900091009B019A1A60019B5A68B4
:104AA000009B5A60009B5B68009A1A60019B009A09
:104AB0005A6000BF02B07047000000000000000014
:104AC00084B00190019B1B680393039B1A68019BB0
:104AD0001A60019B1B68019A5A60039B184604B038
:104AE000704700BF00000000000000000000000050
:104AF00082B030230193019B83F3118800BF00BF74
:104B000000BF02B0704700BF0000000000000000BE
:104B100082B000230193019B83F3118800BF00BF83
:104B200000BF02B0704700BF00000000000000009E
:104B3000014BDB6818467047900800200000000019
:104B400082B00190019BDA6B019B3C339A4214BF07
:104B500001230023DBB2184602B0704700000000BA
:104B600000B583B00190009100990198FEF750F8CC
:104B700000BF03B05DF804FB00000000000000006F
:104B800000B585B001900091FFF7D2FF0390FFF7C9
:104B9000AFFF039B009A5A63019B3C33039A114673
:104BA0001846FFF775FF019B1B7F0E2B02D1019862
:104BB000FDF7BEFF0C20FDF7CBFF039B5B6B009363
:104BC000FFF7A6FF009B184605B05DF804FB00BF89
:104BD00000B583B0FFF7ACFF01900198FFF7B0FF7D
:104BE000034683F00103DBB2002B02D00E20FDF759
:104BF000AFFF019B3C331846FFF762FF0090009B1C
:104C00000D221A77009B184603B05DF804FB00BF25
:104C100000B583B001900091FFF76AFF00990198F9
:104C2000FFF79EFFFFF774FF00BF03B05DF804FBC2
:104C300082B030230193019B83F3118800BF00BF32
:104C400000BF02B0704700BF00000000000000007D
:104C500082B000230193019B83F3118800BF00BF42
:104C600000BF02B0704700BF00000000000000005D
:104C700084B0039002910192039B029ADA62039B33
:104C8000019A1A6300BF04B0704700BF0000000023
:104C900000B583B00190019B5B69184600F048FDA8
:104CA00000BF03B05DF804FB00000000000000003E
:104CB00000B583B00190019B1A6B019B5B6919469B
:104CC000104600F035FF00BF03B05DF804FB00BFE5
:104CD00000B58FB0039002910192009320220299B7
:104CE000039800F055FC0D900D9B002B01D1002383
:104CF00024E00D9A029B13440C93019B04930D9B9B
:104D000005930C9B0693009B0793109B0893119BA4
:104D1000099300230A93FFF78BFF04AB1846FEF7B5
:104D2000DFFA0B90002207490B98FFF7A1FF002143
:104D30000B98FDF76DFFFFF78BFF0B9B18460FB02D
:104D40005DF804FB914C2000000000000000000012
:104D500000B58FB00390029101920093039800F088
:104D6000C7FE0D900D9B002B01D1002325E0039B76
:104D70005B680D9A13440C93029B04930D9B05935F
:104D80000C9B0693019B0793009B0893109B099330
:104D900000230A93FFF74CFF04AB1846FEF7A0FA76
:104DA0000B90039A07490B98FFF762FF00210B98BD
:104DB000FDF72EFFFFF74CFF0B9B18460FB05DF879
:104DC00004FB00BFB14C2000000000000000000008
:104DD00088B0039002910192039B1B680793039B89
:104DE0005B68013B079A13440693029B0593019B62
:104DF000013B059A13440493059A049B9A4209D8EF
:104E0000059A079B9A4205D3049A069B9A4201D8B9
:104E1000012300E0002303F00103DBB2184608B0D1
:104E2000704700BF0000000000000000000000000C
:104E300000B587B0039002910192039B05930CE0AB
:104E4000019A02990598FFF7C3FF0346002B01D092
:104E5000012308E0059B08330593059B1B68B3F10C
:104E6000FF3FEDD10023184607B05DF804FB00BFFB
:104E700000B583B00190012201990448FFF7D8FFE3
:104E80000346184603B05DF804FB00BFD4210108B7
:104E900082B030230193019B83F3118800BF00BFD0
:104EA00000BF02B0704700BF00000000000000001B
:104EB00082B000230193019B83F3118800BF00BFE0
:104EC00000BF02B0704700BF0000000000000000FB
:104ED00082B00190019B5A68019B1B68D31A9B10FA
:104EE000184602B0704700BF00000000000000003C
:104EF00082B00190019B1B69184602B0704700BF49
:104F000010B582B001900198FFF7E2FF04460198C6
:104F1000FFF7EEFF0346E31A184602B010BD00BFCC
:104F200000B585B0039002910192039B029A1A602A
:104F3000019B9B00029A1A44039B5A60039B029AAE
:104F4000DA60039B029A9A60039B00221A61039B1A
:104F500000221A75039B18331846FEF7F1FB039BDA
:104F600020331846FEF7ECFB00BF05B05DF804FBEC
:104F700000B583B00190FFF78BFF019800F008F8AF
:104F8000FDF776FEFFF794FF00BF03B05DF804FB6A
:104F900000B583B00190019B1A68019B9A60019B48
:104FA0001A68019BDA60019B00221A61019B0122B1
:104FB0001A75019B18336FF001011846FEF708FCC3
:104FC000019B20336FF001011846FEF701FC00BF82
:104FD00003B05DF804FB00BF00000000000000000B
:104FE00000B587B0039002910192FFF751FF019A3B
:104FF0000299039800F00CF80590FFF759FF059B04
:10500000184607B05DF804FB000000000000000037
:1050100000B587B0039002910192039B1B7D002B8A
:1050200002D06FF0010330E00398FFF769FF0346F9
:10503000002B1FD0039B9B68191D039A9160029A55
:105040001A60039B9A68039B5B689A4203D3039B95
:105050001A68039B9A60039B1B695A1C039B1A6185
:10506000039B203300211846FEF79AFBFDF700FE54
:1050700000230AE0039B183301991846FEF770FBE2
:105080000590059B002BC8D0059B184607B05DF81E
:1050900004FB00BF00000000000000000000000052
:1050A00000B583B001900091019B1B7D002B02D0C5
:1050B0006FF0010325E00198FFF722FF0346002B64
:1050C0001DD0019B9B68191D019A9160009A1A607E
:1050D000019B9A68019B5B689A4203D3019B1A6803
:1050E000019B9A60019B1B695A1C019B1A61019BE1
:1050F000203300211846FEF753FB002301E04FF058
:10510000FF33184603B05DF804FB00BF0000000049
:1051100000B587B0039002910192FFF7B9FE019AA2
:105120000299039800F00CF80590FFF7C1FE059B6B
:10513000184607B05DF804FB000000000000000006
:1051400000B587B0039002910192039B1B7D002B59
:1051500002D06FF0010333E00398FFF7D1FE03465E
:10516000002B22D0039BDB681A1F039BDA60039B92
:10517000DA68039B1B689A4204D2039B5B681A1F80
:10518000039BDA60039BDB68029A1A60039B1B692E
:105190005A1C039B1A61039B203300211846FEF71B
:1051A000FFFAFDF765FD00230AE0039B1833019920
:1051B0001846FEF7D5FA0590059B002BC5D0059B38
:1051C000184607B05DF804FB000000000000000076
:1051D00000B583B001900091019B1B7D002B02D094
:1051E0006FF0010328E00198FFF78AFE0346002BC9
:1051F00020D0019BDB681A1F019BDA60019BDA68F3
:10520000019B1B689A4204D2019B5B681A1F019B99
:10521000DA60019BDB68009A1A60019B1B695A1CCB
:10522000019B1A61019B203300211846FEF7B8FA52
:10523000002301E04FF0FF33184603B05DF804FB94
:1052400000B587B0039002910192FFF721FE019A09
:105250000299039800F00CF80590FFF729FE059BD2
:10526000184607B05DF804FB0000000000000000D5
:1052700000B587B0039002910192039B1B7D002B28
:1052800002D06FF0010331E00398FFF731FE0346CF
:10529000002B20D0039BDB68191D039AD1601A688C
:1052A000029B1A60039BDA68039B5B689A4203D3F4
:1052B000039B1A68039BDA60039B1B695A1E039BBE
:1052C0001A61039B183300211846FEF769FAFDF7AF
:1052D000CFFC00230AE0039B203301991846FEF718
:1052E0003FFA0590059B002BC7D0059B184607B0D9
:1052F0005DF804FB0000000000000000000000005A
:1053000000B583B001900091019B1B7D002B02D062
:105310006FF0010326E00198FFF7EAFD0346002B3A
:105320001ED0019BDB68191D019AD1601A68009B91
:105330001A60019BDA68019B5B689A4203D3019B68
:105340001A68019BDA60019B1B695A1E019B1A6156
:10535000019B183300211846FEF722FA002301E0D2
:105360004FF0FF33184603B05DF804FB0000000067
:1053700082B030230193019B83F3118800BF00BFEB
:1053800000BF02B0704700BF000000000000000036
:1053900082B000230193019B83F3118800BF00BFFB
:1053A00000BF02B0704700BF000000000000000016
:1053B000034B044A1A60024B034A5A6000BF70470D
:1053C000400B0020E0000220000008200000000048
:1053D00086B0039002910192104B5A68039B5B4286
:1053E00013441A46029B5B4213400593019B5B42A8
:1053F000059A13440493094B1B68049A9A4204D3F8
:10540000064B5B68049A9A4201D9002303E0034AE1
:10541000049B5360059B184606B07047400B002064
:1054200000B587B0039002910192FFF7A1FF019AA6
:1054300002990398FFF7CCFF0590FFF7A9FF059BA2
:10544000184607B05DF804FB0000000000000000F3
:1054500082B00190074B1A68019B1A60054B5A688D
:10546000044B1B68D31A1A46019B5A6000BF02B056
:10547000704700BF400B002000000000000000004B
:1054800088B0039002910192039B1B680793039BD2
:105490005B68013B079A13440693029B0593019BAB
:1054A000013B059A13440493059A049B9A4209D838
:1054B000059A079B9A4205D3049A069B9A4201D803
:1054C000012300E0002303F00103DBB2184608B01B
:1054D000704700BF00000000000000000000000056
:1054E00008B5084B084A1A600848FFF7B1FF054B9A
:1054F0000022DA60034B00221A610548FEF7B8FC6F
:1055000000BF08BD480B0020215420004C0B002098
:105510005C0B002000000000000000000000000004
:1055200000B587B0039002910192029B073323F0EC
:1055300007030593059A029BD31A1A46019B9B1AEF
:105540000193039B00221A60039B059ADA60039B78
:1055500000221A61059B00221A60019B083BDA08B1
:10556000059B5A60039B059A5A60059B5B68013353
:10557000DA00039B9A60039B14331846FEF778FC0D
:1055800000BF07B05DF804FB000000000000000051
:1055900000B58DB0039002910192039B002B01D1C5
:1055A000624B0393019B072B01D808230193029BB5
:1055B0000733DB080993039B14331846FEF768FC96
:1055C000039B0C330B9387E00B9B1B680A930A9A8F
:1055D000019B1344DA1D019B5B421340083B089377
:1055E0000A9B5B680133DB000A9A1344089A9A42CB
:1055F00070D20A9B5B680133DB000A9A1A44089B4D
:105600000833D31ADB101A46099B934262D8089AD2
:105610000A9B9A422CD90A9B5B680133DB000A9AE9
:105620001A44089B0833D31ADB1006930A9B0833ED
:10563000089AD31ADB101A460A9B5A60069A099BED
:105640009A4212D9099B0133DB00089A134405934F
:10565000069A099BD31A5A1E059B5A600A9B1A6820
:10566000059B1A600A9B059A1A60089B0A9323E01F
:105670000A9B5B68099A9A4204D10A9B1A680B9BA1
:105680001A6019E0099B0133DB000A9A134407935F
:105690000A9B1A68079B1A600A9B5B680133DB0050
:1056A0000A9A1A44079B0833D31ADB101A46079B41
:1056B0005A600B9B079A1A600A9B029A5A600A9BCF
:1056C000039A1A60039B14331846FEF791FC0A9B59
:1056D000083326E00A9B0B930B9B1B68002B7FF47F
:1056E00073AF039B14331846FEF782FC039B1B68C1
:1056F000002B15D0039B1B68099AD0000822019942
:1057000098470890089B002B0AD0089B083B0A93F7
:105710000A9B039A1A600A9B029A5A60089B00E04F
:10572000002318460DB05DF804FB00BF480B0020B5
:1057300000B587B00190019B083B0493049B1B6854
:105740000393039B0C330593049B5B680733DA08D0
:10575000049B5A60039B14331846FEF799FB039B86
:105760000C33059A9A4203D0049A059B9A423DD97C
:10577000059B1B68002B04D0059B1B68049A9A426A
:1057800034D2059B1A68049B1A60059B049A1A6020
:10579000049B5B680133DB00049A1A44049B1B687A
:1057A0009A420DD1049B5A68049B1B685B681344A2
:1057B0005A1C049B5A60049B1B681A68049B1A605D
:1057C000059B5B680133DB00059A1344049A9A42F7
:1057D00010D1059B5A68049B5B6813445A1C059BB7
:1057E0005A60049B1A68059B1A6003E0059B1B68BE
:1057F0000593B4E700BF039B14331846FEF7F8FB8C
:1058000000BF07B05DF804FB0000000000000000CE
:1058100000B58BB0039002910192039B002B01D144
:10582000204B0393039B14331846FEF731FB0023F0
:1058300007930023069300230893039B0C330993DB
:1058400013E0099B1B685B680593089B0133089371
:10585000079A059B13440793059A069B9A4201D920
:10586000059B0693099B1B680993099B1B68002BEA
:10587000E7D1029B002B03D0079BDA00029B1A6042
:10588000019B002B03D0069BDA00019B1A60039B4F
:1058900014331846FEF7ACFB089B18460BB05DF8B6
:1058A00004FB00BF480B00200000000000000000C7
:1058B00000B587B0019000238DF81730019B002BB5
:1058C00001D12B4B0193019B1B68002B0CD0019B3A
:1058D0001B681846FFF7CCFA034683F00103DBB2DE
:1058E000002B01D001233EE0019B14331846FEF744
:1058F000CFFA00230393019B0C33049326E0049A10
:10590000039B9A4203D801238DF8173024E0049BAF
:1059100003F00703002B03D001238DF817301BE0A1
:10592000019B181D049B5B680133DB001A46049938
:10593000FFF7A6FD034683F00103DBB2002B03D083
:1059400001238DF8173007E0049B0393049B1B6829
:105950000493049B002BD2D1019B14331846FEF70D
:1059600047FB9DF81730184607B05DF804FB00BFF1
:10597000480B0020000000000000000000000000B4
:1059800082B030230193019B83F3118800BF00BFD5
:1059900000BF02B0704700BF000000000000000020
:1059A00082B000230193019B83F3118800BF00BFE5
:1059B00000BF02B0704700BF000000000000000000
:1059C00000B583B0019000910099019800F0B0F803
:1059D00000BF03B05DF804FB000000000000000001
:1059E00000B583B001900091019B0C3300991846DB
:1059F00000F08EF8019B1846FEF702F900BF03B0D5
:105A00005DF804FB00000000000000000000000042
:105A100000B583B0019000910099019800F008F959
:105A200000BF03B05DF804FB0000000000000000B0
:105A300084B00390029101920093039B00221A60AC
:105A4000039B029A5A60039B019A9A60039B009AF7
:105A5000DA6000BF04B070470000000000000000E2
:105A600000B585B00390029101920BE00299039872
:105A7000FFF7A6FF039B5B68029A13440293019B06
:105A8000013B0193019B002BF0D100BF00BF05B08B
:105A90005DF804FB000000000000000000000000B2
:105AA00000B585B00190019B1B680393039B002BFD
:105AB00005D0019B1B681A68019B1A600CE0019BD2
:105AC000DB68002B08D0019BDB68019A5068019AC3
:105AD0009268114698470390039B184605B05DF8FD
