:020000040800F2
:1000000000040020D9022000DB022000DB022000D7
:10001000DB022000DB022000DB022000DB022000EC
:10002000DB022000DB022000DB0220004144200034
:10003000DB022000DB022000DB022000DB022000CC
:10004000DB022000DB022000DB022000DB022000BC
:10005000DB022000DB022000DB022000DB022000AC
:10006000DB022000DB022000DB022000DB0220009C
:10007000DB022000DB022000DB022000DB0220008C
:10008000DB022000DB022000DB022000DB0220007C
:10009000DB022000DB022000DB022000DB0220006C
:1000A000F11320002114200051142000811420009D
:1000B000C1142000DB022000DB022000DB02200054
:1000C000DB022000DB022000DB022000DB0220003C
:1000D000DB02200021132000DB022000DB022000D5
:1000E000DB022000DB022000DB022000DB0220001C
:1000F000DB022000DB022000DB022000DB0220000C
:10010000DB022000DB02200021152000DB022000A2
:10011000DB022000DB022000DB022000DB022000EB
:10012000DB022000DB022000DB022000DB022000DB
:10013000DB022000DB022000DB022000DB022000CB
:10014000DB022000DB022000DB022000DB022000BB
:10015000DB022000DB022000DB022000DB022000AB
:10016000DB022000DB022000DB022000DB0220009B
:10017000DB022000DB022000DB022000DB0220008B
:10018000DB022000DB022000DB022000DB0220007B
:10019000DB022000DB022000DB022000DB0220006B
:1001A000DB022000DB022000DB022000DB0220005B
:1001B000DB022000DB022000DB022000DB0220004B
:1001C000DB022000DB022000DB022000DB0220003B
:1001D000DB022000DB022000DB022000DB0220002B
:1001E000DB022000DB022000DB022000DB0220001B
:1001F000DB022000DB022000DB022000DB0220000B
:1002000072B6264880F30888254880F30988254877
:1002100025490860022080F31488BFF36F8F00F037
:10022000C7F901F095FF4FF0553020491B4A914224
:100230003CBF41F8040BFAE71D49194A91423CBF03
:1002400041F8040BFAE71B491B4A1C4B9A423EBF7C
:1002500051F8040B42F8040BF8E700201849194A3A
:1002600091423CBF41F8040BFAE700F0B9F900F005
:10027000A7F9154C154DAC4203DA54F8041B884716
:10028000F9E704F07DF9124C124DAC4203DA54F850
:10029000041B8847F9E700F09BB900000004002028
:1002A000000800200000200008ED00E00000002011
:1002B00000040020B04A00080000012000000120D6
:1002C000000800203413002000022000000220005B
:1002D000000220000002200092E700F000F8FEE794
:1002E0002DE9F04FC1F80CD0D0F80CD0BDE8F08F5C
:1002F00002F04EF8002383F311882846A04700201F
:1003000003F0B6FCFEE702F01BF803F0F1F802F090
:100310003FF800DFFEE70000844641EA000313F0E7
:1003200003036DD1403A41D351F8043B40F8043BFC
:1003300051F8043B40F8043B51F8043B40F8043BBF
:1003400051F8043B40F8043B51F8043B40F8043BAF
:1003500051F8043B40F8043B51F8043B40F8043B9F
:1003600051F8043B40F8043B51F8043B40F8043B8F
:1003700051F8043B40F8043B51F8043B40F8043B7F
:1003800051F8043B40F8043B51F8043B40F8043B6F
:1003900051F8043B40F8043B51F8043B40F8043B5F
:1003A00051F8043B40F8043B403ABDD2303211D3FF
:1003B00051F8043B40F8043B51F8043B40F8043B3F
:1003C00051F8043B40F8043B51F8043B40F8043B2F
:1003D000103AEDD20C3205D351F8043B40F8043BFF
:1003E000043AF9D2043208D0D2071CBF11F8013BFD
:1003F00000F8013B01D30B8803806046704700BFC3
:10040000082A13D38B078DD010F003038AD0C3F1D1
:100410000403D21ADB071CBF11F8013B00F8013BB3
:1004200080D331F8023B20F8023B7BE7043AD9D372
:10043000013A11F8013B00F8013BF9D20B78037047
:100440004B7843708B7883706046704700000000E3
:10045000BFF34F8F00BFBFF36F8F00BF0B4B002266
:10046000C3F85022BFF34F8F00BFBFF36F8F00BFA1
:10047000064B5B69054A43F400335361BFF34F8F6A
:1004800000BFBFF36F8F00BF00BF704700ED00E0FB
:10049000BFF34F8F00BFBFF36F8F00BF054B00222C
:1004A000C3F85022BFF34F8F00BFBFF36F8F00BF61
:1004B00000BF704700ED00E00000000000000000F9
:1004C00084B01E4B0022C3F88420BFF34F8F00BFBF
:1004D0001A4BD3F880300193019B5B0BC3F30E03DF
:1004E0000393019BDB08C3F309030293039B5A01A7
:1004F00043F6E0731340029A920710491343C1F880
:100500006032029B5A1E0292002BEFD1039B5A1EAF
:100510000392002BE5D1BFF34F8F00BF074B5B6900
:10052000064A43F480335361BFF34F8F00BFBFF3DC
:100530006F8F00BF00BF04B0704700BF00ED00E048
:1005400084B0194B0022C3F88420BFF34F8F00BF43
:10055000154BD3F880300193019B5B0BC3F30E0363
:100560000393019BDB08C3F309030293039B5A0126
:1005700043F6E0731340029A92070B491343C1F804
:100580006C32029B5A1E0292002BEFD1039B5A1E23
:100590000392002BE5D1BFF34F8F00BFBFF36F8FE6
:1005A00000BF00BF04B0704700ED00E00000000095
:1005B00008B5FFF74DFFFFF783FF00BF08BD00BF81
:1005C00000BF7047000000000000000000000000B5
:1005D000FEE700BF00000000000000000000000077
:1005E00000B585B0194B0393039B1B680293039BD3
:1005F0005B68019309E0029B1A68019B1A60019BEA
:1006000004330193029B04330293039B9B68019A7A
:100610009A42F0D305E0019B00221A60019B04334B
:100620000193039BDB68019A9A42F4D3039B103336
:100630000393039B064A9342D6D3FFF781FFFFF74C
:1006400027FF00BF05B05DF804FB00BFE8450008C8
:1006500068460008000000000000000000000000E4
:1006600000BF704700000000000000000000000014
:1006700008B5FFF7F5FF00F0FBFF01F0F1F800F01F
:1006800007FC00F01DFC00F043FD01F069FD00F0E7
:1006900047F800BF08BD00BF0000000000000000D8
:1006A000014B5B6A18467047000C004000000000D8
:1006B00082B00190054A019B5363044B00221A61EA
:1006C000024B0222DA6000BF02B07047000C00400B
:1006D000024B0022DA6000BF704700BF000C0040F0
:1006E00082B00190024A019B536300BF02B0704781
:1006F000000C0040000000000000000000000000AE
:10070000054BDB6803F00203002B14BF0123002319
:10071000DBB21846704700BF000C0040000000002C
:1007200008B501F09DF900BF08BD00BF0000000042
:1007300008B5FFF7B5FF0346184608BD00000000E6
:1007400000B583B0019000F033F80346002B02D0CF
:10075000044801F0A5FD0198FFF7AAFF00BF03B010
:100760005DF804FB6846000800000000000000007F
:1007700008B5FFF7ADFF00BF08BD00BF00000000D7
:1007800000B583B0019000F013F8034683F0010335
:10079000DBB2002B02D0054801F082FD0198FFF783
:1007A0009FFF00BF03B05DF804FB00BF7846000860
:1007B00008B5FFF7A5FF0346184608BD0000000076
:1007C00000B583B072B600BF30230193019B83F361
:1007D000118800BF62B600BF00BF01F0B1FD00BFCD
:1007E00003B05DF804FB00BF000000000000000043
:1007F00000B583B001F0CCFD124B1B68114A934247
:1008000014BF01230023DBB2002B0FD00D4BDB689C
:100810009A680C4B1B689B689A4234BF01230023E3
:10082000DBB2002B02D0084801F03AFD002301930F
:10083000019B83F3118800BF00BF00BF03B05DF8C8
:1008400004FB00BFC8080020984600080000000014
:1008500008B5FFF7B5FF00BF08BD00BF00000000EE
:1008600008B5FFF7C5FF00BF08BD00BF00000000CE
:1008700000B583B00190019803F05AFA00BF03B0AD
:100880005DF804FB00000000000000000000000014
:1008900000B583B0019000910099019803F060FACF
:1008A0000346184603B05DF804FB00BF00000000DB
:1008B00000B583B0019000910099019803F070FA9F
:1008C00000BF03B05DF804FB000000000000000062
:1008D00000B587B0039002910192019B002B0CBFE1
:1008E00001230023DBB2002B02D02E4801F0D8FCFC
:1008F000039B9B68019A9A4202D9039B9B680193D0
:10090000039B1A69039B9B69D31A0593019A059B64
:100910009A420DD2039B9B69019A19460298FFF7F0
:10092000FBFC039B9A69019B1A44039B9A612BE091
:10093000019A059B9A421CD9039B9B69059A19460B
:100940000298FFF7E9FC029A059B13440293019A6F
:10095000059BD31A0493039BDB68049A19460298FB
:10096000FFF7DAFC039BDA68049B1A44039B9A6145
:100970000AE0039B9B69019A19460298FFF7CCFC99
:10098000039BDA68039B9A61039B9A68019BD21AC6
:10099000039B9A60019B00BF00BF184607B05DF83B
:1009A00004FB00BF844600080000000000000000B7
:1009B00000B587B0039002910192019B002B0CBF00
:1009C00001230023DBB2002B02D02E4801F068FC8B
:1009D000039B9B68019A9A4202D9039B9B680193EF
:1009E000039B1A69039B5B69D31A0593019A059BC4
:1009F0009A420DD2039B5B69019A02991846FFF750
:100A00008BFC039B5A69019B1A44039B5A612BE0A0
:100A1000019A059B9A421CD9039B5B69059A02992E
:100A20001846FFF779FC029A059B13440293019A3A
:100A3000059BD31A0493039BDB68049A029918461A
:100A4000FFF76AFC039BDA68049B1A44039B5A6114
:100A50000AE0039B5B69019A02991846FFF75CFC68
:100A6000039BDA68039B5A61039B9A68019BD21A25
:100A7000039B9A60019B00BF00BF184607B05DF85A
:100A800004FB00BF8C4600080000000000000000CE
:100A900000B585B00390029101920093039B184624
:100AA000FFF7E6FE039B00229A60039B029ADA603E
:100AB000039B029A9A61039B029A5A61029A019BD4
:100AC0001A44039B1A61039B009ADA61039B069AFE
:100AD0001A6200BF05B05DF804FB00BF0000000013
:100AE00000B583B001900B468DF8033001F048FD4E
:100AF000019B5A69019B9B699A4205D1019B9B68A6
:100B0000002B01D0012300E0002303F00103DBB23E
:100B100083F00103DBB2002B1DD0019B9B685A1CA4
:100B2000019B9A60019B5B69591C019A51619DF878
:100B300003201A70019B5A69019B1B699A4203D3D7
:100B4000019BDA68019B5A61019B00211846FFF75F
:100B5000AFFE002301E04FF0FF33184603B05DF80D
:100B600004FB00BF000000000000000000000000C7
:100B700000B585B001900091FFF76AFE0CE0019B83
:100B800000991846FFF784FE0290029B002B03DABF
:100B9000FFF766FE029B26E0019B9B68002BEED0D0
:100BA000019B9B685A1E019B9A60019B9B69591C83
:100BB000019A91611B788DF80F30019B9A69019B16
:100BC0001B699A4203D3019BDA68019B9A61019BDE
:100BD000DB69002B03D0019BDB6901989847FFF785
:100BE0003FFE9DF80F30184605B05DF804FB00BFCE
:100BF00000B589B00390029101920093039BDB69D9
:100C00000793019B0693019B002B0CBF012300233C
:100C1000DBB2002B02D01C4801F042FBFFF718FEAC
:100C200024E0019A02990398FFF752FE0590059B74
:100C3000002B09D1039B00991846FFF729FE049069
:100C4000049B002B12D014E0079B002B02D0079BC3
:100C500003989847FFF704FE019A059BD31A019366
:100C6000029A059B13440293FFF7F2FD019B002BB0
:100C7000D7D1FFF7F5FD069A019BD31A00BF00BF3D
:100C8000184609B05DF804FBA44600080000000007
:100C900000B585B00390029101920093039B184622
:100CA000FFF7E6FD039B019A9A60039B029ADA60C4
:100CB000039B029A9A61039B029A5A61029A019BD2
:100CC0001A44039B1A61039B009ADA61039B069AFC
:100CD0001A6200BF05B05DF804FB00BF0000000011
:100CE00000B587B003900B4601928DF80B30FFF7EB
:100CF000AFFD0CE0039B01991846FFF7C9FD059075
:100D0000059B002B03DAFFF7ABFD059B25E0039B5A
:100D10009B68002BEED0039B9B685A1E039B9A6036
:100D2000039B5B69591C039A51619DF80B201A7053
:100D3000039B5A69039B1B699A4203D3039BDA689E
:100D4000039B5A61039BDB69002B03D0039BDB6988
:100D500003989847FFF784FD0023184607B05DF815
:100D600004FB00BF000000000000000000000000C5
:100D700000B585B0019001F003FC019B5A69019B0D
:100D80009B699A4205D1019B9B68002B01D00123EE
:100D900000E0002303F00103DBB283F00103DBB2C8
:100DA000002B1ED0019B9B685A1C019B9A60019BE3
:100DB0009B69591C019A91611B788DF80F30019B3A
:100DC0009A69019B1B699A4203D3019BDA68019BD4
:100DD0009A61019B00211846FFF76AFD9DF80F30CC
:100DE00001E04FF0FF33184605B05DF804FB00BF8B
:100DF00000B589B00390029101920093039BDB69D7
:100E00000793019B0693019B002B0CBF012300233A
:100E1000DBB2002B02D01C4801F042FAFFF718FDAC
:100E200024E0019A02990398FFF7C2FD0590059B03
:100E3000002B09D1039B00991846FFF729FD049068
:100E4000049B002B12D014E0079B002B02D0079BC1
:100E500003989847FFF704FD019A059BD31A019365
:100E6000029A059B13440293FFF7F2FC019B002BAF
:100E7000D7D1FFF7F5FC069A019BD31A00BF00BF3C
:100E8000184609B05DF804FBB446000800000000F5
:100E900008B500F045FE00BF08BD00BF000000001F
:100EA00082B00190019B01221A70019B00225A60BE
:100EB00000BF02B0704700BF00000000000000004B
:100EC00008B500F0BDFE00BF08BD00BF0000000077
:100ED00082B00190019B01221A70019B00225A608E
:100EE000019B0022DA60019B00221A7400BF02B04D
:100EF000704700BF0000000000000000000000007C
:100F000000B583B00190019803F012F800BF03B060
:100F10005DF804FB0000000000000000000000007D
:100F200000B583B0019000910099019803F058F842
:100F300000BF03B05DF804FB0000000000000000EB
:100F400000B585B0039002910192039B03F130003C
:100F50004FF0FF33019A0299FFF74AFF0346184604
:100F600005B05DF804FB00BF0000000000000000B9
:100F700000B585B0039002910192039B03F10C0030
:100F80004FF0FF33019A0299FFF732FE03461846ED
:100F900005B05DF804FB00BF000000000000000089
:100FA00000B583B001900B468DF80330019B3033C0
:100FB0009DF803104FF0FF321846FFF791FE0346ED
:100FC000184603B05DF804FB0000000000000000BC
:100FD00000B583B00190019B0C334FF0FF311846F0
:100FE000FFF7C6FD0346184603B05DF804FB00BFDB
:100FF00000B585B003900B4601928DF80B30039B32
:1010000030339DF80B10019A1846FFF769FE03462E
:10101000184605B05DF804FB000000000000000069
:1010200000B583B001900091019B0C3300991846E4
:10103000FFF79EFD0346184603B05DF804FB00BFB2
:1010400000B585B00390029101920093039B03F1D8
:101050003000009B019A0299FFF7CAFE034618462A
:1010600005B05DF804FB00BF0000000000000000B8
:1010700000B585B00390029101920093039B03F1A8
:101080000C00009B019A0299FFF7B2FD0346184637
:1010900005B05DF804FB00BF000000000000000088
:1010A00000B587B0039002910192039B0593059BC5
:1010B000002B0CBF01230023DBB2002B02D0114810
:1010C00001F0EEF8029B002B0ED0029B012B0ED1FB
:1010D000019B002B14BF01230023DBB2002B09D09E
:1010E000084801F0DDF805E06FF0130305E06FF04C
:1010F000130302E000BF002300BF184607B05DF8ED
:1011000004FB00BFEC4600080000000000000000E7
:1011100008B500F0A5FE00BF08BD00BF000000003C
:1011200000B583B00190019B064A1A60019B04330D
:101130001846FFF7E5FE019B01221A7200BF03B0BB
:101140005DF804FBC4460008000000000000000039
:1011500000B583B001900B468DF8033001F010FA12
:10116000019B002B0CBF01230023DBB2002B02D01C
:10117000114801F095F8019B5B69002B05D1019B9B
:10118000043304211846FFF7CBFE019B0C339DF876
:10119000032011461846FFF7A3FC0346002B06DA8E
:1011A000019B04334FF400611846FFF7B9FE00BFFE
:1011B00003B05DF804FB00BFF44600080000000027
:1011C00082B001900091009BDBB2114A1B01D9B2A1
:1011D000019B134403F540730A461A70019B03F008
:1011E0001F020B49019B5B09012000FA02F26033E8
:1011F00041F82320019B03F01F020549019B5B0975
:10120000012000FA02F241F8232000BF02B070472B
:1012100000E100E00000000000000000000000000D
:1012200000BF704700000000000000000000000048
:1012300000BF704700000000000000000000000038
:1012400000BF704700000000000000000000000028
:1012500000BF704700000000000000000000000018
:1012600000BF704700000000000000000000000008
:1012700000BF7047000000000000000000000000F8
:1012800000BF7047000000000000000000000000E8
:1012900000BF7047000000000000000000000000D8
:1012A00000BF7047000000000000000000000000C8
:1012B00000BF7047000000000000000000000000B8
:1012C00000BF7047000000000000000000000000A8
:1012D00000BF704700000000000000000000000098
:1012E00000BF704700000000000000000000000088
:1012F00000BF704700000000000000000000000078
:1013000000BF704700000000000000000000000067
:1013100008B50C212520FFF753FF00BF08BD00BF13
:1013200008B5084801F04CFA01F0AAF8064800F0A8
:10133000C7FD01F0E5F8034801F082FA03F0D8F8A0
:1013400000BF08BD04470008380800200000000066
:1013500000BF704700000000000000000000000017
:1013600000BF704700000000000000000000000007
:1013700000BF7047000000000000000000000000F7
:1013800000BF7047000000000000000000000000E7
:1013900000BF7047000000000000000000000000D7
:1013A00000BF7047000000000000000000000000C7
:1013B00000BF7047000000000000000000000000B7
:1013C00008B507211820FFF7FBFE07211920FFF7BA
:1013D000F7FE07211A20FFF7F3FE07211B20FFF776
:1013E000EFFE00BF08BD00BF0000000000000000CD
:1013F00008B5074801F0E4F901F042F801F080F87F
:10140000034801F01DFA03F073F800BF08BD00BFE8
:10141000104700080000000000000000000000006D
:1014200008B5084801F0CCF901F02AF8064800F0A8
:101430001FFC01F065F8034801F002FA03F058F8C8
:1014400000BF08BD1C47000818080020000000006D
:1014500008B5074801F0B4F901F012F801F050F8AE
:10146000034801F0EDF903F043F800BF08BD00BFE9
:1014700028470008000000000000000000000000F5
:1014800008B5084801F09CF900F0FAFF064800F0A2
:10149000EFFB01F035F8034801F0D2F903F028F82A
:1014A00000BF08BD344700081808002000000000F5
:1014B00008B507211C20FFF783FE00BF08BD00BF51
:1014C00008B5084801F07CF900F0DAFF064800F0A2
:1014D00037FB01F015F8034801F0B2F903F008F802
:1014E00000BF08BD404700080008002000000000C1
:1014F00000BF704700000000000000000000000076
:1015000000BF704700000000000000000000000065
:1015100008B507213220FFF753FE00BF08BD00BF0A
:1015200008B5084801F04CF900F0AAFF00F0D0FA25
:1015300000F0E6FF034801F083F902F0D9FF00BF95
:1015400008BD00BF4C47000800000000000000007C
:1015500000BF704700000000000000000000000015
:1015600000BF704700000000000000000000000005
:1015700000BF7047000000000000000000000000F5
:1015800008B5FFF74DFEFFF753FEFFF759FEFFF7D3
:101590005FFEFFF765FEFFF76BFEFFF771FEFFF7DB
:1015A00077FEFFF77DFEFFF783FEFFF789FEFFF76B
:1015B0008FFEFFF795FEFFF79BFEFFF7A1FEFFF7FB
:1015C000FFFEFFF775FFFFF793FFFFF799FFFFF7A8
:1015D0009FFFFFF7BDFFFFF7C3FFFFF7C9FFFFF74F
:1015E00097FEFFF7B5FEFFF7BBFEFFF7C1FEFFF763
:1015F000C7FEFFF7CDFEFFF7D3FEFFF7D9FE00BF12
:1016000008BD00BF00000000000000000000000056
:10161000144B1B68134A43F480731360124B1B6F07
:1016200003F44073B3F5807F06D00F4B4FF4803244
:101630001A670D4B00221A670B4B1B6F0A4A43F0C7
:101640001903136700BF084B1B6F03F00203002B45
:10165000F9D0044B5B68034A23F40073536000BF66
:10166000704700BF007000400038024000000000DA
:1016700008B51E4B1A691D491D4B13430B611B4BCB
:101680001B691A4AC3F30A031361184B1B69174BF2
:101690005B69164B4FF0FF325A61144B5B69134B79
:1016A00000225A61114B5B69104B1B6A0F4A63F0B1
:1016B000805313620D4B1B6A0C4A03F08053136274
:1016C0000A4B1B6A094B5B6A084B4FF0FF325A62A8
:1016D000064B5B6A054B00225A62044B5B6AFFF7BC
:1016E00097FFFFF74DFF00BF08BD00BF0038024065
:1016F00000F8FFFF000000000000000000000000F4
:1017000082B0504B4FF080521A644F4B4FF440421E
:101710001A604C4B1B684B4A43F00103136000BF37
:10172000484B1B6803F00203002BF9D0454B9B6824
:10173000444A23F00303936000BF424B9B6803F0CD
:101740000C03002BF9D13F4B1B683E4A03F0F90311
:1017500013603C4B00229A603A4B1B68394A43F4B1
:10176000A023136000BF374B1B6803F40033002B2A
:10177000F9D0344B354A5A60324B1B68314A43F03A
:101780008073136000BF304B5B6803F48043002B11
:10179000F9D02D4B1B682C4A43F48033136000BFF3
:1017A000294B5B6803F48033002BF9D0264B1B6870
:1017B000254A43F40033136000BF234B5B6803F4F6
:1017C0000033002BF9D000BF1E4B1B6803F00073E1
:1017D000002BF9D01B4B1E4A9A6040F20113019373
:1017E000184A019BC2F88C30164B0022C3F8902097
:1017F000184B40F207321A6000BF164B1B6803F00B
:101800000F03072BF9D10F4B9B680E4A43F00203DD
:10181000936000BF0B4B9B6803F00C03082BF9D1BE
:10182000084B5B6C074A43F480435364054B5B6E83
:10183000044A43F480435366024B5B6E00BF02B020
:10184000704700BF0038024000700040196C40092A
:1018500000949930003C02400000000000000000AD
:1018600000BF704700000000000000000000000002
:101870008EB0039002910192019B03F003030D933C
:10188000019B9B0803F001030C93019BDB0803F011
:1018900003030B93019B5B0903F003030A93019B72
:1018A000DB0903F00F03089300230993029B03F065
:1018B0000103002B79D0099B03F007039B00089AD2
:1018C00002FA03F307930122099B02FA03F306933A
:1018D000099B5B00032202FA03F30593099B03F0C3
:1018E00007039B000F2202FA03F30493039B5A6839
:1018F000069BDB431A400C9B1A43039B5A60039BD5
:101900009A68059BDB431A400B9B1A43039B9A6022
:10191000039BDA68059BDB431A400A9B1A43039B2F
:10192000DA60019B03F00303022B1FD1099B072BF5
:1019300009D8039B1A6A049BDB431A40079B1A438E
:10194000039B1A6208E0039B5A6A049BDB431A401C
:10195000079B1A43039B5A62039B1A68059BDB4350
:101960001A400D9B1A43039B1A601EE0039B1A68E2
:10197000059BDB431A400D9B1A43039B1A60099B8E
:10198000072B09D8039B1A6A049BDB431A40079B69
:101990001A43039B1A6208E0039B5A6A049BDB43C9
:1019A0001A40079B1A43039B5A62029B5B080293EF
:1019B000029B002B0FD00C9B5B000C930B9B9B009E
:1019C0000B930A9B9B000A930D9B9B000D93099B15
:1019D000013309936AE700BF0EB0704700000000B2
:1019E00000B583B072B600BF30230193019B83F32F
:1019F000118800BF62B600BF00BF00BF00F0F0FC5E
:101A000000BF03B05DF804FB000000000000000010
:101A100000B583B000F00CFD00230193019B83F31C
:101A2000118800BF00BF00BF00BF03B05DF804FB1A
:101A300008B5FFF7D5FF00BF08BD00BF00000000DC
:101A400008B5FFF7E5FF00BF08BD00BF00000000BC
:101A500008B500F05DFC00BF08BD00BF000000003D
:101A6000174B1B6C164A43F008031364144B1B6E90
:101A7000134A43F008031366114B1B6E114B9B680E
:101A8000104A43F0080393600F4B42F62F229A62EC
:101A90000D4B4FF0FF32DA620B4B00229A610A4B7A
:101AA00000225A63084B0022DA60074B00225A607A
:101AB000054B01225A61044B01221A6000BF704796
:101AC00000380240002004E0000C0040000000004C
:101AD00000B583B00E4B0193019B1B690093019BE2
:101AE000DB68DBB2009A13400093009BDA43019B52
:101AF0001A61009B03F00203002B05D0FFF798FF4B
:101B0000FFF7A6FFFFF79CFF00BF03B05DF804FBE3
:101B1000000C004000000000000000000000000079
:101B200008B50448FFF7BCF9024B4FF08042DA6079
:101B300000BF08BD000800200000000000000000F9
:101B400000B585B00190019BDB681B690393019B85
:101B5000DB68DB68DBB2039A13400393019BDB680D
:101B6000039AD2431A61019B5B681B7D002B29D12C
:101B7000039B03F00403002B0DD0019B1B78042B67
:101B800009D1019B5B689B68002B04D0019B5B68BB
:101B90009B6801989847039B03F00203002B3AD0FF
:101BA000019B1B78042B09D1019B5B68DB68002B30
:101BB00004D0019B5B68DB6801989847019B042275
:101BC0001A7028E0039B03F00203002B0DD0019B49
:101BD0001B78042B09D1019B5B689B68002B04D008
:101BE000019B5B689B6801989847039B03F0040383
:101BF000002B10D0019B1B78042B09D1019B5B6843
:101C0000DB68002B04D0019B5B68DB680198984778
:101C1000019B04221A70039B03F00103002B07D0E1
:101C2000019B5B681B6901989847019B03221A700E
:101C300000BF05B05DF804FB0000000000000000DC
:101C400008B50748FFF744F9054B06221A74044B00
:101C5000044ADA61024B01221A7600BF08BD00BFB8
:101C600018080020000001400000000000000000F3
:101C700000B585B00190019BDB691B690393019B53
:101C8000DB69DB68DBB2039A13400393019BDB69DA
:101C9000039AD2431A61039B03F00203002B09D07D
:101CA000019B5B681B69002B04D0019B5B681B696F
:101CB00001989847039B03F00403002B09D0019B74
:101CC0005B689B69002B04D0019B5B689B69019852
:101CD0009847039B03F00803002B09D0019B5B6826
:101CE0001B6A002B04D0019B5B681B6A0198984714
:101CF000039B03F01003002B09D0019B5B689B6AD8
:101D0000002B04D0019B5B689B6A01989847039B5A
:101D100003F00103002B09D0019B5B689B68002B3B
:101D200004D0019B5B689B680198984700BF05B091
:101D30005DF804FB0000000000000000000000004F
:101D400000B583B072B600BF30230193019B83F3CB
:101D5000118800BF62B600BF00BF00BF00F040FBAB
:101D600000BF03B05DF804FB0000000000000000AD
:101D700000B583B000F05CFB00230193019B83F36B
:101D8000118800BF00BF00BF00BF03B05DF804FBB7
:101D900008B5FFF7D5FF00BF08BD00BF0000000079
:101DA00008B5FFF7E5FF00BF08BD00BF0000000059
:101DB00000B583B0019000910099019802F010F9EC
:101DC00000BF03B05DF804FB00000000000000004D
:101DD00000B585B00190009100230393009B03F0B0
:101DE0000803002B03D0039B43F480730393009BF1
:101DF00003F00103002B03D0039B43F02003039364
:101E0000009B03F00203002B03D0039B43F040032D
:101E10000393009B03F00403002B03D0039B43F0C8
:101E200080030393FFF7B4FF019B04330399184623
:101E3000FFF7BEFFFFF7B4FF00BF05B05DF804FB7E
:101E400082B00190044B1B68034A43F0C003136047
:101E500000BF02B0704700BF00100140000000004A
:101E600000B583B00E48FFF75BF90D4B00930023DC
:101E700010220C490C48FEF70BFE094B00930B4B4C
:101E800010220B490B48FEF703FF054B0A4A5A651F
:101E9000034B0A4A9A6500BF03B05DF804FB00BF1C
:101EA000380800209808002044080020411E200027
:101EB000A8080020680800200010014000F36F0609
:101EC00000B587B00190019B5B6D0393039BDB69B9
:101ED0000493039B049A1A62049B03F00F03002BE4
:101EE00003D004990198FFF773FF049B03F48073F8
:101EF000002B1ED0FFF74CFF019B04334FF4806191
:101F00001846FFF755FFFFF74BFF12E0FFF740FFC2
:101F1000039B5B6ADAB2019B93F85C301340DBB23F
:101F200019460198FFF714F9FFF73AFF039BDB69A5
:101F30000493049B03F02003002BE7D1039B1B6851
:101F40000593059B03F08003002B25D01FE0FFF7CE
:101F50001FFF019B30331846FEF70AFF0290029BD9
:101F6000002B0CDA019B043308211846FFF720FFF1
:101F7000059B23F080030593FFF712FF0CE0029A04
:101F8000039B9A62FFF70CFF039BDB690493049B9E
:101F900003F08003002BDAD1059B03F04003002BF4
:101FA00024D0049B03F04003002B1FD0FFF7F0FE6A
:101FB000019B5A6C019B9B6C9A4205D1019B9B6BC8
:101FC000002B01D0012300E0002303F00103DBB26A
:101FD000002B09D0019B043310211846FFF7E8FEBF
:101FE000059B23F040030593FFF7DAFE039B059A58
:101FF0001A6000BF07B05DF804FB00BF00000000DE
:1020000082B001900091009B5A68019B5A60009B2E
:102010009A68019B9A60009BDA68019BDA60009BDA
:102020001A69019B5A61009B5A69019B1A62009BC5
:102030009A69019B5A62009B1A68019B1A6000BF53
:1020400002B0704700000000000000000000000027
:1020500008B5264B1A69254940F2FF7313430B61FB
:10206000224B1A692149224B13400B611F4B1B69FC
:102070001E4B1A6B1D4940F2FF7313430B631B4B3E
:102080001A6D1A4940F2FF7313430B65174B1B6D12
:1020900018491948FFF7B4FF18491948FFF7B0FF6E
:1020A00018491948FFF7ACFF18491948FFF7A8FF6E
:1020B00018491948FFF7A4FF18491948FFF7A0FF6E
:1020C00018491948FFF79CFF18491948FFF798FF6E
:1020D00018491948FFF794FF18491948FFF790FF6E
:1020E00018491948FFF78CFF00BF08BD00380240AF
:1020F00000F8FFFF5847000800000240744700083E
:10210000000402409047000800080240AC47000865
:10211000000C0240C847000800100240E4470008D5
:102120000014024000480008001802401C48000843
:10213000001C0240384800080020024054480008B3
:1021400000240240704800080028024000000000FF
:1021500008B5FFF77DFFFFF7D3FA00BF08BD00BF4A
:1021600000BF7047000000000000000000000000F9
:1021700000B58BB00190019B00221A6002AB18469B
:1021800001F05EFE0423099302AB184601F078FECD
:1021900002AB184601F084FE099B013B0993099BA1
:1021A000002BF1D1029A019B1A6000BF0BB05DF8C1
:1021B00004FB00BF00000000000000000000000061
:1021C00000B583B000F0E4F8124B1B68114A93424B
:1021D00014BF01230023DBB2002B0FD00D4BDB68B3
:1021E0009A680C4B1B689B689A4234BF01230023FA
:1021F000DBB2002B02D0084800F052F80023019314
:10220000019B83F3118800BF00BF00BF03B05DF8DE
:1022100004FB00BFC8080020A4480008000000001C
:1022200008B501F065FF01F0EBFF02F089F800BF8F
:1022300008BD00BF0000000000000000000000001A
:1022400000B583B0114B01221A700023019308E0FE
:102250000E4A019B9B00134400225A60019B0133EC
:102260000193019B002BF3D00948FFF781FFFFF793
:10227000D7FF0849084801F01BFA044B02221A70E4
:10228000FFF79EFF00BF03B05DF804FBB808002015
:10229000C008002090480008C80800200000000086
:1022A00000B583B0019072B600BF00BF019800F086
:1022B00007FB044A019BC2F8E430034B03221A7067
:1022C000FEE700BFC8080020B8080020000000009A
:1022D00000B583B00A4B5B680193019B9B68012B9F
:1022E00014BF01230023DBB2002B02D00548FFF707
:1022F000D7FF019B00BF00BF184603B05DF804FB89
:10230000C8080020B04800080000000000000000DD
:1023100008B500F035F900F0F3FD00BF08BD00BFBF
:1023200082B00190044BDA6B019B1343024AD363E2
:1023300000BF02B0704700BFC808002000000000C6
:1023400000B583B0104B0193019BD3F8E830002B0C
:1023500014BF01230023DBB2002B09D1019BD3F86A
:10236000EC30002B14BF01230023DBB2002B02D082
:102370000648FFF795FF019B0122C3F8EC2000BF40
:1023800003B05DF804FB00BFC8080020C448000883
:1023900000B583B0104B0193019BD3F8E830002BBC
:1023A00014BF01230023DBB2002B09D1019BD3F81A
:1023B000EC30002BD4BF01230023DBB2002B02D072
:1023C0000648FFF76DFF019B0022C3F8EC2000BF19
:1023D00003B05DF804FB00BFC8080020CC4800082B
:1023E00000B583B0104B0193019BD3F8E830002B6C
:1023F000D4BF01230023DBB2002B09D1019BD3F80A
:10240000EC30002B14BF01230023DBB2002B02D0E1
:102410000648FFF745FF019B0122C3F8EC2000BFEF
:1024200003B05DF804FB00BFC8080020D4480008D2
:1024300000B583B0104B0193019BD3F8E830002B1B
:10244000D4BF01230023DBB2002B09D1019BD3F8B9
:10245000EC30002BD4BF01230023DBB2002B02D0D1
:102460000648FFF71DFF019B0022C3F8EC2000BFC8
:1024700003B05DF804FB00BFC8080020DC4800087A
:1024800000B585B01A4B039372B600BF3023029398
:10249000029B83F3118800BF62B600BF00BF00BF7C
:1024A000039BD3F8E830DB0FDBB2002B09D1039B91
:1024B000D3F8EC30002B14BF01230023DBB2002B38
:1024C00002D00C48FFF7ECFE039BD3F8E8305A1C0F
:1024D000039BC3F8E82000230193019B83F3118839
:1024E00000BF00BF00BF00BF05B05DF804FB00BF28
:1024F000C8080020E44800080000000000000000B8
:1025000000B585B01B4B039372B600BF3023029316
:10251000029B83F3118800BF62B600BF00BF00BFFB
:10252000039BD3F8E830002BD4BF01230023DBB298
:10253000002B09D1039BD3F8EC30002B14BF0123EF
:102540000023DBB2002B02D00B48FFF7A9FE039B50
:10255000D3F8E8305A1E039BC3F8E8200023019308
:10256000019B83F3118800BF00BF00BF00BF05B00F
:102570005DF804FBC8080020EC48000800000000DB
:1025800000B583B00C4B0193019BD3F8E830DB0F0F
:10259000DBB2002B09D1019BD3F8EC30002BD4BF68
:1025A00001230023DBB2002B02D00448FFF778FEA2
:1025B00000BF03B05DF804FBC8080020F448000821
:1025C00000B583B00E4B0193019BD3F8E830002B8C
:1025D00014BF01230023DBB2002B09D1019BD3F8E8
:1025E000EC30002BD4BF01230023DBB2002B02D040
:1025F0000448FFF755FE00BF03B05DF804FB00BFC1
:10260000C8080020FC48000800000000000000008E
:1026100008B5FEF78DF80346184608BD0000000017
:1026200008B5FFF7F5FF0346184608BD0000000097
:1026300010B582B00190019BD3F8F440FFF7F0FF92
:1026400003466360114B5B68019AD2F8F42023F0D3
:102650007F41136861F31F231360019BD3F8F430AB
:1026600003F11002019BC3F8F420019BD3F8F4207E
:10267000019B03F6F8039A4205D3019B03F1F8028C
:10268000019BC3F8F42000BF02B010BD001000E0B1
:1026900084B00190019B4FF6E0721A80019B80226A
:1026A0005A80019B03F10802019B5A6000230393A7
:1026B0000CE0019A039B1B01134403F108021378F9
:1026C0006FF302031370039B01330393039B7F2B70
:1026D000EFD900BF00BF04B0704700BF000000008A
:1026E00000B585B001900091174B0393039BB3F89D
:1026F000F03003F00103002B21D1039BD3F8F42029
:102700001378012161F302031370019B197F039B6E
:10271000D3F8F4200B4603F01F03D9B2137861F30A
:10272000C7031370039BD3F8F430019A9A60039B9C
:10273000D3F8F430009ADA600398FFF779FF00BF0E
:1027400005B05DF804FB00BFC808002000000000D1
:1027500000B585B001900091174B0393039BB3F82C
:10276000F03003F00203002B22D1039BD3F8F420B6
:102770001378022161F302031370009B197F039BFE
:10278000D3F8F4200B4603F01F03D9B2137861F39A
:10279000C7031370039BD3F8F430019A9A60039B2C
:1027A000D3F8F430009A526BDA600398FFF740FFD9
:1027B00000BF05B05DF804FBC80800200000000061
:1027C00000B587B001901C4B0593059BB3F8F03022
:1027D00003F00403002B2AD172B600BF3023039309
:1027E000039B83F3118800BF62B600BF00BF00BF28
:1027F000059BD3F8F4201378032161F302031370CF
:10280000059BD3F8F42013786FF3C7031370059B6F
:10281000D3F8F430019A9A600598FFF709FF002376
:102820000493049B83F3118800BF00BF00BF00BF67
:1028300007B05DF804FB00BFC808002000000000DE
:1028400000B587B001901C4B0593059BB3F8F030A1
:1028500003F00403002B2AD172B600BF3023039388
:10286000039B83F3118800BF62B600BF00BF00BFA7
:10287000059BD3F8F4201378042161F3020313704D
:10288000059BD3F8F42013786FF3C7031370059BEF
:10289000D3F8F430019A9A600598FFF7C9FE002337
:1028A0000493049B83F3118800BF00BF00BF00BFE7
:1028B00007B05DF804FB00BFC8080020000000005E
:1028C00000B585B00190124B0393039BB3F8F03031
:1028D00003F00803002B16D1039BD3F8F4201378E0
:1028E000052161F302031370039BD3F8F4201378DE
:1028F0006FF3C7031370039BD3F8F430019A9A6007
:102900000398FFF795FE00BF05B05DF804FB00BF1C
:10291000C8080020000000000000000000000000C7
:1029200082B001900091019A009B1344184602B0B6
:10293000704700BF00000000000000000000000021
:1029400082B001900091009A019BD31A184602B000
:10295000704700BF00000000000000000000000001
:1029600082B00190019B1B68019A9A420CBF01231F
:102970000023DBB2184602B0704700BF0000000021
:1029800082B001900091019B1B68009A9A420CBF93
:1029900001230023DBB2184602B07047000000009C
:1029A00084B0039002910192029B019A9A60029B6B
:1029B000039A5A60029B5B681A68029B1A60029B2A
:1029C0001B68029A5A60039B029A1A6000BF04B007
:1029D000704700BF00000000000000000000000081
:1029E00084B0039002910192029B019A9A60029B2B
:1029F000039A1A60029B1B685A68029B5A60029BEA
:102A00005B68029A1A60039B029A5A6000BF04B086
:102A1000704700BF00000000000000000000000040
:102A200000B587B0039002910192039B1B68059348
:102A300013E0059A029B9A420CBF01230023DBB2EC
:102A4000002B02D01348FFF72BFC059B9B68019AD3
:102A5000D31A0193059B1B680593059B9B68019AFC
:102A60009A428CBF01230023DBB2002BE1D1019AF3
:102A700002990598FFF7B4FF059B9A68019BD21A4B
:102A8000059B9A60039B4FF0FF329A6000BF07B02E
:102A90005DF804FB0449000800000000000000008D
:102AA00084B00190019B1B680393039B1A68019BF0
:102AB0001A60019B1B68019A5A60039B184604B078
:102AC000704700BF00000000000000000000000090
:102AD00082B00190019B5B68019A12681A60019BA9
:102AE0001B68019A52685A60019B184602B07047F1
:102AF00000B583B001900198FDF722FE00BF03B03E
:102B00005DF804FB00000000000000000000000071
:102B100008B5FDF72DFE00BF08BD00BF0000000096
:102B200000B583B001900198FDF72AFE00BF03B005
:102B30005DF804FB00000000000000000000000041
:102B400008B5FDF7F5FD0346184608BD0000000076
:102B500000B583B072B600BF30230193019B83F3AD
:102B6000118800BF62B600BF00BF00BFFFF738FC8E
:102B700000BF03B05DF804FB00000000000000008F
:102B800000B583B0FFF754FC00230193019B83F34E
:102B9000118800BF00BF00BF00BF03B05DF804FB99
:102BA00008B5FFF7CDFF0346184608BD000000003A
:102BB00000B583B00190FFF7E3FC019B1B68002B7D
:102BC00014BF01230023DBB2184603B05DF804FBF9
:102BD00000B589B0039002910192039B1B69079392
:102BE000019A079B9A4201D2079B0193019902988F
:102BF000FFF796FE03461846FFF792FFFFF7D0FF58
:102C0000069006990298FFF79BFE0590059A019B96
:102C10009A4234BF01230023DBB2002B07D1079B6C
:102C200001330793069B0293079B0193DEE700BFE6
:102C3000039B1B69079A9A4205D9039B079A1A615D
:102C40000120FFF76DFB00BF09B05DF804FB00BF7A
:102C500000B587B00390029101920093039B019A03
:102C6000DA60039B0299009A1846FFF799FE039BCE
:102C70001B690593009A059B9A4201D2059B00931C
:102C8000039BDB6800991846FFF74AFE0346184687
:102C9000FFF72EFFFFF784FF049004990198FFF7D8
:102CA0004FFE0246009B93428CBF01230023DBB200
:102CB000002B0FD1059B0133059305990198FFF770
:102CC0002FFE03461846FFF72BFF049B0193059B3D
:102CD0000093DFE700BF039B1B69059A9A4205D961
:102CE000039B059A1A610120FFF71AFB00BF07B08A
:102CF0005DF804FB00000000000000000000000080
:102D000000B589B0039002910192FFF749FF069048
:102D1000039B1846FFF724FE0346002B06D0019BB9
:102D2000069A02990398FFF793FF21E0039BDB6863
:102D300006991846FFF704FE0590059A019B134477
:102D40000793079A059B9A4201D2019B0793039B25
:102D50001B689B68079A9A4204D2019A06990398C5
:102D6000FFF736FF039B0299079A1846FFF758FEB4
:102D700009B05DF804FB00BF000000000000000087
:102D800000B587B003900291019200931A4B05930E
:102D9000FFF7F6FB039B002B0CBF01230023DBB2E4
:102DA000002B07D1019B002B0CBF01230023DBB2BA
:102DB000002B01D0012300E00023002B07D1029B50
:102DC000002B0CBF01230023DBB2002B02D00B48E9
:102DD000FFF766FA039B009A1A61039B019ADA6077
:102DE000039B00225A61029A03990598FFF788FF16
:102DF00000BF07B05DF804FBD808002014490008A4
:102E000000B587B001903B4B0593FFF7B9FB019BE1
:102E1000002B0CBF01230023DBB2002B02D036486D
:102E2000FFF73EFA0198FFF7C3FE034683F0010364
:102E3000DBB2002B02D03048FFF732FA059B019A33
:102E400011461846FFF79CFD034683F00103DBB2F1
:102E5000002B14D0019B1846FFF73AFE019B1B681C
:102E60009968019B9A68019B1B680A449A60019BC0
:102E700000221A60059B4FF0FF329A6036E0059BF6
:102E80001846FFF70DFE019B00221A60059B1846AD
:102E9000FFF766FD0346002B02D0FFF739FE25E061
:102EA000059B1B689968019B9A68059B1B680A44EF
:102EB0009A60FFF775FE0490059BDB68049918463D
:102EC000FFF73EFD0390059B1B689B68039A9A429F
:102ED0000BD2059B1B689A68039BD31A0293029A34
:102EE00004990598FFF774FE00E000BF07B05DF895
:102EF00004FB00BFD80800202049000800000000A3
:102F000000B589B04F4B0593FFF73AFB059B1B6853
:102F10000493FFF745FE0390059BDB680399184671
:102F2000FFF70EFD0290049B9B68029A9A4269D3B8
:102F3000059BDA68049B9B6819461046FFF7F0FC76
:102F40000190059B019ADA60049B1846FFF7C0FDCB
:102F5000049B00221A60059B1846FFF701FD0346FB
:102F6000002B01D0FFF7D4FDFFF70AFE049BDB68BE
:102F7000049A1269114604989847FFF7E9FD049BEB
:102F80005B69002B14BF01230023DBB2002BBDD0F3
:102F9000FFF706FE039003990198FFF7D1FC02901A
:102FA000049B5B69029A9A4208D92748FFF778F98F
:102FB0000220FFF7B5F90023069304E0049B5A6949
:102FC000029BD31A0693059B1846FFF7C9FC0346DC
:102FD000002B06D0069B039A04990598FFF738FE4C
:102FE0002DE0029A069B13440793079A029B9A428C
:102FF00001D2069B0793059B0499079A1846FFF791
:103000000FFD83E700BF059B1846FFF7A9FC0346A9
:10301000002B13D1059BDA68029B1A44059BDA60EA
:10302000049B9A68029BD21A049B9A60049B9B683B
:103030001A4603990598FFF7CBFD00E000BF09B0E1
:103040005DF804FBD80800203049000800000000AB
:1030500082B00190019B5B68019A12681A60019B23
:103060001B68019A52685A60019B184602B070476B
:1030700084B00190019B1B680393039B1A68019B1A
:103080001A60019B1B68019A5A60039B184604B0A2
:10309000704700BF000000000000000000000000BA
:1030A00082B001900091019B1B680193019B9A687B
:1030B000009B9B689A422CBF01230023DBB2002BAC
:1030C000F1D1009B019A1A60019B5A68009B5A60DB
:1030D000009B5B68009A1A60019B009A5A60009BF3
:1030E000184602B0704700BF00000000000000005A
:1030F00082B001900091019B1B680193019B9A682B
:10310000009B9B689A428CBF01230023DBB2002BFB
:10311000F1D1009B019A1A60019B5A68009B5A608A
:10312000009B5B68009A1A60019B009A5A60009BA2
:10313000184602B0704700BF000000000000000009
:1031400000B583B072B600BF30230193019B83F3B7
:10315000118800BF62B600BF00BF00BFFFF740F993
:1031600000BF03B05DF804FB000000000000000099
:1031700000B583B0FFF75CF900230193019B83F353
:10318000118800BF00BF00BF00BF03B05DF804FBA3
:1031900000B583B00190FFF7F3F9019B1B68002B8A
:1031A00014BF01230023DBB2184603B05DF804FB13
:1031B00000B583B00190FFF7E3F9019B9B685A1CAF
:1031C000019B9A6000BF03B05DF804FB00000000A3
:1031D00000B583B00190019B1B7F002B0CBF012326
:1031E0000023DBB2002B08D1019B1B7F0F2B0CBFF0
:1031F00001230023DBB2002B02D00D48FFF750F86B
:10320000019B5B6B19460198FFF76AFA019B00224C
:103210001A77019B1B691A46019B19461046FFF756
:103220003FFF034600BF00BF184603B05DF804FB34
:103230004C490008000000000000000000000000F1
:1032400000B583B00190019B1B7F002B0CBF0123B5
:103250000023DBB2002B08D1019B1B7F0F2B0CBF7F
:1032600001230023DBB2002B02D00D48FFF718F832
:10327000019B5B6B19460198FFF732FA019B002214
:103280001A77019B1B691A46019B19461046FFF7E6
:103290002FFF034600BF00BF184603B05DF804FBD4
:1032A000604900080000000000000000000000006D
:1032B00000B585B001900091009B0393FFF740FF9C
:1032C000039B1B7F0C2B2FD801A252F823F000BFC9
:1032D0000533200029332000293320000B33200040
:1032E0001F33200015332000293320001F33200016
:1032F00029332000293320002933200029332000DE
:103300001F332000FFF734FF19E0039B5B6B0022A3
:103310001A600AE0039B5B6B1846FFF749FF039BAB
:103320001846FFF795FE00E000BF039B4FF0FF3209
:103330005A630398FFF74CFFFFF71AFF00BF05B071
:103340005DF804FB00000000000000000000000029
:1033500000B583B00190FFF713F9019B002B0CBF60
:1033600001230023DBB2002B02D00648FEF798FFB2
:103370000198FFF72DFF034600BF00BF184603B0BA
:103380005DF804FB74490008000000000000000024
:1033900000B589B003468DF80730264B0793079B8D
:1033A000DB680693FFF70CF9FEF792FF0246069BD7
:1033B00093420CBF01230023DBB2002B02D01E4836
:1033C000FEF76EFF069B1B69079A9A4214BF012302
:1033D0000023DBB2002B02D01748FEF761FF069BEB
:1033E0009DF807201A77079B1846FFF741FE0590C6
:1033F000059B01221A77079B059ADA6006990598C2
:10340000FFF7A6F9EFF309830393039B00BF04932F
:10341000049BA3F12402069B5B699A4202D20748EF
:10342000FEF73EFF06990598FCF75AFF00BF09B06A
:103430005DF804FBC8080020804900083C490008EA
:1034400000B58BB0034600918DF80730164BDB6852
:103450000993FFF7B5F8009BB3F1FF3F16D003A81F
:10346000099B124A0099FFF78BFC9DF8073018461C
:10347000FFF78EFF03AB1846FFF78AFE0346002BCB
:1034800009D003AB1846FFF7BBFC04E09DF80730FA
:103490001846FFF77DFF099B5B6B00BF00BF184616
:1034A0000BB05DF804FB00BFC8080020B13220005B
:1034B00084B00B4B0393039BDB680293039B1B6855
:1034C0009B680193029B9B680093019A009B9A4220
:1034D0008CBF01230023DBB2184604B0704700BF45
:1034E000C8080020000000000000000000000000EC
:1034F00000B587B0174B0593059BDB680493059BCC
:103500001846FFF7B5FD0390039B01221A77059B30
:10351000039ADA600498FFF793FE049004990398E5
:10352000FFF716F9EFF309830193019B0293029BC6
:10353000A3F12402049B5B699A4202D20648FEF77B
:10354000AFFE04990398FCF7CBFE00BF07B05DF80F
:1035500004FB00BFC80800203C4900080000000030
:1035600082B00190019B00221A6000BF02B0704738
:1035700082B00190019B00221A60019B00225A60D8
:10358000019B01229A6000BF02B07047000000005A
:1035900082B00190019B019A1A60019B019A5A60C6
:1035A00000BF02B0704700BF000000000000000034
:1035B00082B001900091009B019A1A60019B5A68A9
:1035C000009B5A60009B5B68009A1A60019B009AFE
:1035D0005A6000BF02B07047000000000000000009
:1035E00082B00190019B019A1A60019B019A5A6076
:1035F000019B00229A6000BF02B0704700000000EB
:1036000082B00190019B019A1A60019B019A5A6055
:10361000019B4FF0FF329A6000BF02B0704700BFBD
:1036200008B5FDF785F80346184608BD0000000000
:1036300008B5FFF7F5FF0346184608BD0000000077
:1036400030B583B00190019B1846FFF7D9FF019B6D
:103650000022DA60019B02221A61FFF7E9FF0346AC
:1036600000221C461546019BC3E9064500BF03B076
:1036700030BD00BF0000000000000000000000009E
:1036800000B583B00190019B1846FFF781FF00BF92
:1036900003B05DF804FB00BF000000000000000064
:1036A00082B0019000BFFDE70000000000000000B4
:1036B00000B593B00190009100231193414A119BF2
:1036C0009B0013445B68002B14BF01230023DBB273
:1036D000002B02D03C48FEF7E3FD3A4A119B9B00C9
:1036E0001344019A5A60019B119A9A63019B009AB4
:1036F0001A64019800F0C4FE019B1846FFF770FFA2
:10370000019B30331846FFF7BBFF019B3C33184643
:10371000FFF726FF019B10331846FFF791FF019B2F
:10372000E4331846FFF724FF019BF0331846FEF7F9
:10373000AFFF264B0393009B5B680493009B9B6841
:103740000593802306930023079300230893019B8E
:103750000993019B943303AA1146184600F078F9A7
:103760000246019BDA60019B03F13002019BDB689A
:10377000243319461046FFF71BFF019BDB6801222B
:103780001A77134B0A93009BDB680B93009B1B6912
:103790000C9301230D930F4B0E9300230F93019B6A
:1037A00010930B9B0C9A1146184600F039F9019BB7
:1037B00044330AAA1146184600F042FA00BF13B07B
:1037C0005DF804FBB8080020A049000890490008F3
:1037D00098490008A1362000000000000000000009
:1037E00082B00190019B019A1A6000BF02B070473D
:1037F00082B00190019B1B68019A9A4214BF012379
:103800000023DBB2184602B0704700BF0000000082
:1038100084B00190019B1B680393039B1A68019B72
:103820001A60039B184604B0704700BF00000000F8
:1038300082B00190019B019A1A60019B019A5A6023
:1038400000BF02B0704700BF000000000000000091
:1038500082B00190019B1B68019A9A4214BF012318
:103860000023DBB2184602B0704700BF0000000022
:1038700082B001900091009B019A1A60019B5A68E6
:10388000009B5A60009B5B68009A1A60019B009A3B
:103890005A6000BF02B07047000000000000000046
:1038A00084B00190019B1B680393039B1A68019BE2
:1038B0001A60019B1B68019A5A60039B184604B06A
:1038C000704700BF00000000000000000000000082
:1038D00082B00190019B5B68019A12681A60019B9B
:1038E0001B68019A52685A60019B184602B07047E3
:1038F00000B583B072B600BF30230193019B83F300
:10390000118800BF62B600BF00BFFEF719FD00BFFF
:1039100003B05DF804FB00BF0000000000000000E1
:1039200000B583B0FEF734FD124B1B68114A934279
:1039300014BF01230023DBB2002B0FD00D4BDB683B
:103940009A680C4B1B689B689A4234BF0123002382
:10395000DBB2002B02D00848FEF7A2FC0023019343
:10396000019B83F3118800BF00BF00BF03B05DF867
:1039700004FB00BFC8080020E04900080000000068
:10398000014BDB6818467047C808002000000000A3
:1039900000B583B00190019B002B0CBF01230023D5
:1039A000DBB2002B02D00548FEF77AFC0199082013
:1039B000FFF746FD00BF03B05DF804FBF8490008BF
:1039C00000B585B001900091019B1846FFF740FFBC
:1039D000034683F00103DBB2002B02D00E48FEF752
:1039E0005FFC019B1846FFF75BFF0390039B1B7F67
:1039F000042B14BF01230023DBB2002B02D00648A6
:103A0000FEF74EFC039B009A5A630398FFF7A0FC55
:103A100000BF05B05DF804FB1C4A00080000000070
:103A200082B001900091019B5A1C019255221A709C
:103A3000019A009B9A4234BF01230023DBB2002B82
:103A4000F1D100BF00BF02B0704700BF000000000E
:103A500000B583B001900091019B002B0CBF0123A6
:103A60000023DBB2002B02D02948FEF719FC009B93
:103A7000002B0CBF01230023DBB2002B02D0244813
:103A8000FEF70EFC009B5A68019B5A61009B9A68E6
:103A9000019B9A61009BDA68019B9A60019B02225C
:103AA0001A77019B00225A77009B9B69002B04D058
:103AB000009B9A69019B1A6102E0019B154A1A61F9
:103AC000019B0022DA62019B00221A63019B3833BA
:103AD0001846FFF785FE009BDA68019BDA64019BBC
:103AE00000229A64019B00225A64019B01229A776A
:103AF000009B1A68019B1A62019B3C331846FFF732
:103B000097FE019B00BF00BF184603B05DF804FBA1
:103B1000B8490008C80800200000000000000000AC
:103B200000B583B001900091019B002B0CBF0123D5
:103B30000023DBB2002B02D03F48FEF7B1FB009B15
:103B4000002B0CBF01230023DBB2002B02D03A482C
:103B5000FEF7A6FB009B002B0CBF01230023DBB26A
:103B6000002B0AD1009B5B6803F01F03002B14BFDE
:103B700001230023DBB2002B01D0012300E000234E
:103B8000002B0AD1009B9B6803F01F03002B14BF7E
:103B900001230023DBB2002B01D0012300E000232E
:103BA000002B0AD1009B9A68009B5B689A4294BFE5
:103BB00001230023DBB2002B01D0012300E000230E
:103BC000002B0CD1009B9B681A46009B5B68D31AA4
:103BD000BF2B94BF01230023DBB2002B02D0164879
:103BE000FEF75EFB00990198FFF732FF0190019B01
:103BF0009B69A3F12402019BDA60009B1A69019B77
:103C0000DB681A60009B5A69019BDB685A60019B64
:103C1000DB680A4A1A62019B1B6903F13002019BAF
:103C2000243319461046FFF723FE019B00BF00BF57
:103C3000184603B05DF804FBC8490008F1022000F3
:103C400000B583B00190009100990198FFF768FFDB
:103C500003461846FFF77CFB0346184603B05DF8A1
:103C600004FB00BF00000000000000000000000096
:103C700000B583B00190FFF73BFE019800F008F813
:103C800000BF03B05DF804FB00000000000000006E
:103C900000B585B00190FFF773FE0390039B019A76
:103CA0005A6308E0039B38331846FFF7B1FD03461B
:103CB0001846FFF74DFB039B38331846FFF798FD76
:103CC0000346002BEED1039B9B7F002B0CBF0123EF
:103CD0000023DBB2002B08D0039BDB6A002B04D14E
:103CE000039B24331846FFF7F3FD0F20FFF750FB2B
:103CF0000348FEF7D5FA00BF05B05DF804FB00BF2E
:103D0000EC49000800000000000000000000000076
:103D100000B583B00190FFF7EBFD0198FFF738FE87
:103D2000FFF7FEFD00BF03B05DF804FB00000000DC
:103D300000B583B00190019B002B0CBF0123002331
:103D4000DBB2002B02D00548FEF7AAFA019B184609
:103D5000FFF76EFD00BF03B05DF804FB044A0008E6
:103D600000B585B001900091FFF70AFE0390009B1B
:103D7000002B0CBF01230023DBB2002B02D04FF03D
:103D8000FF3309E0019B03991846FFF771FD009985
:103D90000420FFF755FB0346184605B05DF804FB09
:103DA00000B583B001900091019B1846FFF750FDCC
:103DB0000346002B03D000990198FFF701FE00BFD6
:103DC00003B05DF804FB00BF00000000000000002D
:103DD000F0B484B0039002910192039BDB685A1CFB
:103DE000039BDA60039B9B68029AD21A019BD21A4A
:103DF000039B9A60039BD3E90423039989680020FD
:103E00000C460546161943EB0507039BC3E90467F7
:103E1000039B9A68039B5B689A4203D9039B9A6849
:103E2000039B5A60039B9A68039B1B689A4203D2C8
:103E3000039B9A68039B1A6000BF04B0F0BC7047F4
:103E400082B00190019B4FF0FF321A60019B00226B
:103E50005A60019B00229A60019B0022DA6001995E
:103E60004FF000024FF00003C1E9042300BF02B08D
:103E7000704700BF000000000000000000000000CC
:103E800082B00190034B5A68019B9A6000BF02B058
:103E9000704700BF001000E00000000000000000BC
:103EA00000B583B00190064B5B68064A92681946DC
:103EB0000198FFF78DFF00BF03B05DF804FB00BF62
:103EC000001000E0B8080020000000000000000022
:103ED00082B00190019B019A1A60019B019A5A607D
:103EE00000BF02B0704700BF0000000000000000EB
:103EF00000B583B00190019B002B0CBF0123002370
:103F0000DBB2002B02D00748FEF7CAF9019B184626
:103F1000FFF7DEFF019B00229A6000BF03B05DF84F
:103F200004FB00BF304A0008000000000000000051
:103F300000B583B00190019B002B0CBF012300232F
:103F4000DBB2002B02D00548FEF7AAF9019B019ACB
:103F50001A6000BF03B05DF804FB00BF404A0008D0
:103F600000B583B001900091FEF70AFB019B002B86
:103F70000CBF01230023DBB2002B02D01548FEF753
:103F80008FF9019B5A6C009B1A43019B5A64019B59
:103F90001B7F0A2B06D1019B5A6C019B5B6B134064
:103FA000002B0CD1019B1B7F0B2B0ED1019B5A6C5C
:103FB000019B5B6B1A40019B5B6B9A4205D1019B95
:103FC00000225A630198FFF7C3F900BF03B05DF800
:103FD00004FB00BF504A0008000000000000000081
:103FE00000B585B001900091FEF7CAFA019B002B45
:103FF0000CBF01230023DBB2002B02D01448FEF7D4
:104000004FF9019B1B68039319E0039BDA68009B3F
:104010001A43039BDA60009B002B05D0039B1A69AF
:10402000009B1340002B07D0039B5A68039B9B689F
:1040300019461046FFF794FF039B1B680393039AEE
:10404000019B9A42E1D100BF00BF05B05DF804FBBF
:10405000604A0008000000000000000000000000AE
:1040600000B583B072B600BF30230193019B83F388
:10407000118800BF62B600BF00BFFEF761F900BF44
:1040800003B05DF804FB00BF00000000000000006A
:1040900000B583B0FEF77CF9124B1B68114A9342BE
:1040A00014BF01230023DBB2002B0FD00D4BDB68C4
:1040B0009A680C4B1B689B689A4234BF012300230B
:1040C000DBB2002B02D00848FEF7EAF80023019388
:1040D000019B83F3118800BF00BF00BF03B05DF8F0
:1040E00004FB00BFC80800208C4A00080000000044
:1040F000034B044A1A60024B034A5A6000BF7047E0
:10410000C012002000000120000005200000000077
:1041100000B587B0039002910192FEF731FA029B3D
:10412000002B0CBF01230023DBB2002B0AD1029B22
:104130005A1E029B1340002B14BF01230023DBB245
:10414000002B02D01348FEF7ABF8134B5A68039BC1
:104150005B4213441A46029B5B4213400593019B4A
:104160005B42059A134404930B4B1B68049A9A42D2
:1041700004D3094B5B68049A9A4201D9002304E0F6
:10418000054A049B5360059B00BF184607B05DF8C5
:1041900004FB00BF784A0008C012002000000000A5
:1041A00000B587B0039002910192FFF759FF019A81
:1041B00002990398FFF7ACFF0590FFF769FF059B95
:1041C000184607B05DF804FB000000000000000086
:1041D00082B00190074B1A68019B1A60054B5A6820
:1041E000044B1B68D31A1A46019B5A6000BF02B0E9
:1041F000704700BFC0120020000000000000000057
:1042000008B5084B084A1A600848FFF7E1FF054B5C
:104210000022DA60034B00221A610548FFF768FEAE
:1042200000BF08BDC8120020A1412000CC12002010
:10423000DC12002000000000000000000000000070
:1042400000B585B00390029101920093039B002B6F
:104250000CBF01230023DBB2002B07D1029B032BF1
:1042600094BF01230023DBB2002B01D0012300E027
:104270000023002B07D1019B032B94BF01230023B4
:10428000DBB2002B01D0012300E00023002B17D16B
:10429000019B002B0CBF01230023DBB2002B0AD1B2
:1042A000019B5A1E019B1340002B14BF01230023C6
:1042B000DBB2002B01D0012300E00023002B02D051
:1042C0000948FDF7EDFF039B00221A60039B029A49
:1042D0005A60039B019A9A60039B009ADA6000BFC0
:1042E00005B05DF804FB00BF984A0008000000001C
:1042F00000B583B001900091002200990198FFF76A
:1043000007FF0346184603B05DF804FB00000000F9
:1043100000B585B0039002910192019B042202999D
:104320000398FFF78DFF00BF05B05DF804FB00BFE9
:1043300082B00190019B019A1A6000BF02B07047E1
:1043400008B51048FFF7D4FD0F48FFF7F1FF0F4AFB
:1043500014210F48FFF7DCFF0E48FFF7E9FF0E4876
:10436000FFF7E6FF094A1C210C48FFF7D1FF0C4874
:10437000FFF7DEFF0B48FFF7DBFF0B48FFF7D8FF27
:1043800000BF08BDEC120020FC120020F14220000A
:104390000013002010130020141300201813002015
:1043A000281300202C1300203013002000000000F0
:1043B00084B00190019B03F0070303930A4BDB6871
:1043C0000293029A4FF6FF0313400293039B1A02D3
:1043D000029B1A43054B13430293034A029BD3608B
:1043E00000BF04B0704700BF00ED00E00000FA0518
:1043F00082B0034600918DF807309DF90730002BFD
:104400000ADB009BDAB20C499DF907301201D2B2E7
:104410000B4483F800230BE0009BDAB207499DF8B8
:10442000073003F00F03043B1201D2B20B441A769B
:1044300000BF02B0704700BF00E100E000ED00E007
:1044400084B0EFF309830093009B0393039B203315
:104450000393039B0193019B83F3098800BF00230F
:104460000293029B83F3118800BF00BF00BF00BF0F
:1044700004B07047000000000000000000000000D1
:1044800000B585B0019030230393039B83F311881B
:1044900000BF62B600BF00BF0320FFF789FF0F4BCC
:1044A000DB680E4A43F08073D3600D4B0D4AC3F8AE
:1044B000B02F0B4B1B680A4A43F001031360022123
:1044C0006FF00400FFF794FF03216FF00100FFF786
:1044D0008FFF00BF05B05DF804FB00BFF0ED00E00A
:1044E000001000E055CEACC5000000000000000048
:1044F00000B587B072B600BF30230393039B83F3EC
:10450000118800BF62B600BF00BF00BF184B5B68D8
:1045100003F40063002B20D0EFF309830193019B88
:104520000593059B203B0593059B0493049B4FF04B
:104530008072DA61059B0293029B83F3098800BFB6
:10454000FEF7B6FF0346002B03D00A4A049B9A618C
:104550000BE0094A049B9A6107E000230093009B4B
:1045600083F3118800BF00BF00BF07B05DF804FBF4
:1045700000ED00E00703200012032000000000000F
:1045800008B5FCF775F8FDF75BFE0122012115481F
:10459000FDF76EF901224FF480411248FDF768F9EA
:1045A000012280210F48FDF763F94FF47A70FFF77D
:1045B000AFFB0C4B01225A830A4B4FF480425A83C3
:1045C000084B80225A834FF47A70FFF7A1FB054B0A
:1045D00001221A83034B4FF480421A83014B80223D
:0845E0001A83E2E70004024027
:1045E800B04A00080000012000000120000001205E
:1045F800B04A00080000012000000120000001204E
:10460800B04A000800C0042000C0042000C00420F4
:10461800B04A00083413002034130020341300205B
:10462800B04A000800000000000000000000000080
:10463800B04A0008004002400040024000400240EA
:10464800B04A000800000000000000000000000060
:10465800B04A000800000000000000000000000050
:1046680073745374617274416C61726D0000000060
:104678007374536574416C61726D000069715F7287
:10468800656164006F715F7772697465000000008E
:104698006368537973556E6C6F636B00697152650B
:1046A800616454696D656F75740000006F715772AD
:1046B80069746554696D656F7574000000000000C9
:1046C800410F2000710F2000A10F2000D10F200002
:1046D800F10F20002110200041102000711020004F
:1046E800A11020005F63746C000000007364496EC1
:1046F800636F6D696E6744617461490056656374E0
:104708006F72443400000000566563746F72413064
:1047180000000000566563746F72413400000000A9
:10472800566563746F724138000000005665637403
:104738006F72414300000000566563746F72423027
:1047480000000000566563746F7231303800000055
:10475800A888A82A00000000FF3FFFFF11110140B0
:10476800FFFF0000B0ABA0B070AA0A008A88A00AB8
:1047780000000000FFFFFFFF11150550FFFF0000BC
:10478800AA00A07000AAAA00AA0AAA0200000000B3
:10479800FFFFFF0F00100004FFFF0000BACABB00B4
:1047A800CCCC0C002A042AA000000000FFFFFFFF69
:1047B80040504005FF0F0000CC0C0000CC0C00CC92
:1047C8000A82AAAA00000000FFFFFFFF10140000E1
:1047D800FFFF0000CC000EC0CCCCCCCCAA0A80AA2B
:1047E80000000000FFFFFFFF00501500FFFF000062
:1047F800CCCCCC0000C0CCCC0A0A82AA00000000B5
:10480800FFFFFFFF50501400FFFF0000CC00CC005A
:104818000CB0B9CB808A020080010000FFFFFFFFC7
:1048280010105455FFFF000000C0CA4004000000EB
:10483800000028A900000000FFFFFFFF55550100F8
:10484800FFFF000000000000E00EE0EEAAAAAAA800
:10485800000000000000000000000000FFFF000052
:10486800EEEEEEEEEEEEE0EE6AAA000000000000CA
:104878000000000000000000F7FF0000EE0EEEEE62
:1048880000000000633000008C480008000400208D
:1048980000080020C0110020C0120020636853796E
:1048A80073556E6C6F636B006368537973476574F7
:1048B80049646C65546872656164580053562334C2
:1048C80000000000535623350000000053562336DD
:1048D80000000000535623370000000053562338C9
:1048E80000000000535623390000000053562331BE
:1048F80030000000535623313100000063685F64C4
:104908006C6973745F696E7365727400636856547A
:10491800446F53657449000063685654446F526588
:10492800736574490000000063685654446F546905
:10493800636B4900737461636B206F766572666C94
:104948006F7700005F5F7363685F72656164795FAA
:10495800626568696E6400005F5F7363685F7265B3
:104968006164795F6168656164000000636853632E
:1049780068526561647949006368536368476F5397
:104988006C656570530000006D61696E0000000081
:1049980069646C65000000006368496E7374616E39
:1049A80063654F626A656374496E6974000000004C
:1049B80063685468644F626A656374496E69740019
:1049C8006368546864537061776E53757370656E6D
:1049D80064656449000000006368537973556E6C20
:1049E8006F636B00636854686445786974530000AA
:1049F8006368546864536C656570530063685468F1
:104A08006451756575654F626A656374496E69744A
:104A1800000000006368546864446F4465717565FC
:104A280075654E657874490063684D74784F626A9D
:104A3800656374496E69740063684576744F626A89
:104A4800656374496E697400636845767453696771
:104A58006E616C4900000000636845767442726FAD
:104A6800616463617374466C616773490000000098
:104A78006368436F7265416C6C6F6346726F6D5407
:104A88006F7049006368537973556E6C6F636B0080
:104A98006368506F6F6C4F626A656374496E6974BE
:084AA800416C69676E65640052
:04000005002002D9FC
:00000001FF
